{
  "contractName": "NFTRental",
  "abi": [
    {
      "inputs": [],
      "stateMutability": "nonpayable",
      "type": "constructor"
    },
    {
      "anonymous": false,
      "inputs": [
        {
          "indexed": true,
          "internalType": "address",
          "name": "owner",
          "type": "address"
        },
        {
          "indexed": true,
          "internalType": "address",
          "name": "approved",
          "type": "address"
        },
        {
          "indexed": true,
          "internalType": "uint256",
          "name": "tokenId",
          "type": "uint256"
        }
      ],
      "name": "Approval",
      "type": "event"
    },
    {
      "anonymous": false,
      "inputs": [
        {
          "indexed": true,
          "internalType": "address",
          "name": "owner",
          "type": "address"
        },
        {
          "indexed": true,
          "internalType": "address",
          "name": "operator",
          "type": "address"
        },
        {
          "indexed": false,
          "internalType": "bool",
          "name": "approved",
          "type": "bool"
        }
      ],
      "name": "ApprovalForAll",
      "type": "event"
    },
    {
      "anonymous": false,
      "inputs": [
        {
          "indexed": true,
          "internalType": "address",
          "name": "previousOwner",
          "type": "address"
        },
        {
          "indexed": true,
          "internalType": "address",
          "name": "newOwner",
          "type": "address"
        }
      ],
      "name": "OwnershipTransferred",
      "type": "event"
    },
    {
      "anonymous": false,
      "inputs": [
        {
          "indexed": false,
          "internalType": "string",
          "name": "transactionType",
          "type": "string"
        },
        {
          "indexed": true,
          "internalType": "uint256",
          "name": "id",
          "type": "uint256"
        },
        {
          "indexed": false,
          "internalType": "uint8",
          "name": "maxDurationInDays",
          "type": "uint8"
        },
        {
          "indexed": false,
          "internalType": "uint256",
          "name": "dailyPrice",
          "type": "uint256"
        },
        {
          "indexed": false,
          "internalType": "uint256",
          "name": "collateral",
          "type": "uint256"
        },
        {
          "indexed": false,
          "internalType": "uint256",
          "name": "rentEndTime",
          "type": "uint256"
        },
        {
          "indexed": false,
          "internalType": "address",
          "name": "fromAddress",
          "type": "address"
        },
        {
          "indexed": false,
          "internalType": "address",
          "name": "toAddress",
          "type": "address"
        },
        {
          "indexed": false,
          "internalType": "uint256",
          "name": "value",
          "type": "uint256"
        }
      ],
      "name": "Transaction",
      "type": "event"
    },
    {
      "anonymous": false,
      "inputs": [
        {
          "indexed": true,
          "internalType": "address",
          "name": "from",
          "type": "address"
        },
        {
          "indexed": true,
          "internalType": "address",
          "name": "to",
          "type": "address"
        },
        {
          "indexed": true,
          "internalType": "uint256",
          "name": "tokenId",
          "type": "uint256"
        }
      ],
      "name": "Transfer",
      "type": "event"
    },
    {
      "inputs": [],
      "name": "MAX_NFT_SUPPLY",
      "outputs": [
        {
          "internalType": "uint16",
          "name": "",
          "type": "uint16"
        }
      ],
      "stateMutability": "view",
      "type": "function",
      "constant": true
    },
    {
      "inputs": [
        {
          "internalType": "address",
          "name": "to",
          "type": "address"
        },
        {
          "internalType": "uint256",
          "name": "tokenId",
          "type": "uint256"
        }
      ],
      "name": "approve",
      "outputs": [],
      "stateMutability": "nonpayable",
      "type": "function"
    },
    {
      "inputs": [
        {
          "internalType": "address",
          "name": "owner",
          "type": "address"
        }
      ],
      "name": "balanceOf",
      "outputs": [
        {
          "internalType": "uint256",
          "name": "",
          "type": "uint256"
        }
      ],
      "stateMutability": "view",
      "type": "function",
      "constant": true
    },
    {
      "inputs": [
        {
          "internalType": "uint256",
          "name": "tokenId",
          "type": "uint256"
        }
      ],
      "name": "getApproved",
      "outputs": [
        {
          "internalType": "address",
          "name": "",
          "type": "address"
        }
      ],
      "stateMutability": "view",
      "type": "function",
      "constant": true
    },
    {
      "inputs": [
        {
          "internalType": "address",
          "name": "owner",
          "type": "address"
        },
        {
          "internalType": "address",
          "name": "operator",
          "type": "address"
        }
      ],
      "name": "isApprovedForAll",
      "outputs": [
        {
          "internalType": "bool",
          "name": "",
          "type": "bool"
        }
      ],
      "stateMutability": "view",
      "type": "function",
      "constant": true
    },
    {
      "inputs": [],
      "name": "maxSupply",
      "outputs": [
        {
          "internalType": "uint256",
          "name": "",
          "type": "uint256"
        }
      ],
      "stateMutability": "view",
      "type": "function",
      "constant": true
    },
    {
      "inputs": [],
      "name": "name",
      "outputs": [
        {
          "internalType": "string",
          "name": "",
          "type": "string"
        }
      ],
      "stateMutability": "view",
      "type": "function",
      "constant": true
    },
    {
      "inputs": [
        {
          "internalType": "uint256",
          "name": "",
          "type": "uint256"
        }
      ],
      "name": "nfts",
      "outputs": [
        {
          "internalType": "string",
          "name": "name",
          "type": "string"
        },
        {
          "internalType": "string",
          "name": "imageUrl",
          "type": "string"
        },
        {
          "internalType": "uint256",
          "name": "id",
          "type": "uint256"
        },
        {
          "internalType": "bool",
          "name": "isOnSale",
          "type": "bool"
        },
        {
          "internalType": "address payable",
          "name": "lender",
          "type": "address"
        },
        {
          "internalType": "uint256",
          "name": "rentSeconds",
          "type": "uint256"
        },
        {
          "internalType": "uint256",
          "name": "rentEndTime",
          "type": "uint256"
        },
        {
          "internalType": "uint256",
          "name": "dailyPrice",
          "type": "uint256"
        },
        {
          "internalType": "uint256",
          "name": "collateral",
          "type": "uint256"
        }
      ],
      "stateMutability": "view",
      "type": "function",
      "constant": true
    },
    {
      "inputs": [],
      "name": "owner",
      "outputs": [
        {
          "internalType": "address",
          "name": "",
          "type": "address"
        }
      ],
      "stateMutability": "view",
      "type": "function",
      "constant": true
    },
    {
      "inputs": [
        {
          "internalType": "uint256",
          "name": "tokenId",
          "type": "uint256"
        }
      ],
      "name": "ownerOf",
      "outputs": [
        {
          "internalType": "address",
          "name": "",
          "type": "address"
        }
      ],
      "stateMutability": "view",
      "type": "function",
      "constant": true
    },
    {
      "inputs": [],
      "name": "renounceOwnership",
      "outputs": [],
      "stateMutability": "nonpayable",
      "type": "function"
    },
    {
      "inputs": [],
      "name": "rentFee",
      "outputs": [
        {
          "internalType": "uint256",
          "name": "",
          "type": "uint256"
        }
      ],
      "stateMutability": "view",
      "type": "function",
      "constant": true
    },
    {
      "inputs": [
        {
          "internalType": "address",
          "name": "from",
          "type": "address"
        },
        {
          "internalType": "address",
          "name": "to",
          "type": "address"
        },
        {
          "internalType": "uint256",
          "name": "tokenId",
          "type": "uint256"
        }
      ],
      "name": "safeTransferFrom",
      "outputs": [],
      "stateMutability": "nonpayable",
      "type": "function"
    },
    {
      "inputs": [
        {
          "internalType": "address",
          "name": "from",
          "type": "address"
        },
        {
          "internalType": "address",
          "name": "to",
          "type": "address"
        },
        {
          "internalType": "uint256",
          "name": "tokenId",
          "type": "uint256"
        },
        {
          "internalType": "bytes",
          "name": "_data",
          "type": "bytes"
        }
      ],
      "name": "safeTransferFrom",
      "outputs": [],
      "stateMutability": "nonpayable",
      "type": "function"
    },
    {
      "inputs": [
        {
          "internalType": "address",
          "name": "operator",
          "type": "address"
        },
        {
          "internalType": "bool",
          "name": "approved",
          "type": "bool"
        }
      ],
      "name": "setApprovalForAll",
      "outputs": [],
      "stateMutability": "nonpayable",
      "type": "function"
    },
    {
      "inputs": [
        {
          "internalType": "bytes4",
          "name": "interfaceId",
          "type": "bytes4"
        }
      ],
      "name": "supportsInterface",
      "outputs": [
        {
          "internalType": "bool",
          "name": "",
          "type": "bool"
        }
      ],
      "stateMutability": "view",
      "type": "function",
      "constant": true
    },
    {
      "inputs": [],
      "name": "symbol",
      "outputs": [
        {
          "internalType": "string",
          "name": "",
          "type": "string"
        }
      ],
      "stateMutability": "view",
      "type": "function",
      "constant": true
    },
    {
      "inputs": [
        {
          "internalType": "uint256",
          "name": "index",
          "type": "uint256"
        }
      ],
      "name": "tokenByIndex",
      "outputs": [
        {
          "internalType": "uint256",
          "name": "",
          "type": "uint256"
        }
      ],
      "stateMutability": "view",
      "type": "function",
      "constant": true
    },
    {
      "inputs": [
        {
          "internalType": "address",
          "name": "owner",
          "type": "address"
        },
        {
          "internalType": "uint256",
          "name": "index",
          "type": "uint256"
        }
      ],
      "name": "tokenOfOwnerByIndex",
      "outputs": [
        {
          "internalType": "uint256",
          "name": "",
          "type": "uint256"
        }
      ],
      "stateMutability": "view",
      "type": "function",
      "constant": true
    },
    {
      "inputs": [
        {
          "internalType": "uint256",
          "name": "tokenId",
          "type": "uint256"
        }
      ],
      "name": "tokenURI",
      "outputs": [
        {
          "internalType": "string",
          "name": "",
          "type": "string"
        }
      ],
      "stateMutability": "view",
      "type": "function",
      "constant": true
    },
    {
      "inputs": [],
      "name": "totalSupply",
      "outputs": [
        {
          "internalType": "uint256",
          "name": "",
          "type": "uint256"
        }
      ],
      "stateMutability": "view",
      "type": "function",
      "constant": true
    },
    {
      "inputs": [
        {
          "internalType": "address",
          "name": "from",
          "type": "address"
        },
        {
          "internalType": "address",
          "name": "to",
          "type": "address"
        },
        {
          "internalType": "uint256",
          "name": "tokenId",
          "type": "uint256"
        }
      ],
      "name": "transferFrom",
      "outputs": [],
      "stateMutability": "nonpayable",
      "type": "function"
    },
    {
      "inputs": [
        {
          "internalType": "address",
          "name": "newOwner",
          "type": "address"
        }
      ],
      "name": "transferOwnership",
      "outputs": [],
      "stateMutability": "nonpayable",
      "type": "function"
    },
    {
      "inputs": [
        {
          "internalType": "address",
          "name": "",
          "type": "address"
        }
      ],
      "name": "users",
      "outputs": [
        {
          "internalType": "string",
          "name": "",
          "type": "string"
        }
      ],
      "stateMutability": "view",
      "type": "function",
      "constant": true
    },
    {
      "inputs": [
        {
          "internalType": "uint256",
          "name": "_rentFee",
          "type": "uint256"
        }
      ],
      "name": "setRentFee",
      "outputs": [],
      "stateMutability": "nonpayable",
      "type": "function"
    },
    {
      "inputs": [
        {
          "internalType": "string",
          "name": "_username",
          "type": "string"
        }
      ],
      "name": "setUsername",
      "outputs": [],
      "stateMutability": "nonpayable",
      "type": "function"
    },
    {
      "inputs": [
        {
          "internalType": "uint256",
          "name": "_tokenId",
          "type": "uint256"
        },
        {
          "internalType": "uint8",
          "name": "_maxDurationInDays",
          "type": "uint8"
        },
        {
          "internalType": "uint256",
          "name": "_dailyPrice",
          "type": "uint256"
        },
        {
          "internalType": "uint256",
          "name": "_collateral",
          "type": "uint256"
        }
      ],
      "name": "putOnMarket",
      "outputs": [],
      "stateMutability": "nonpayable",
      "type": "function"
    },
    {
      "inputs": [
        {
          "internalType": "uint256",
          "name": "_tokenId",
          "type": "uint256"
        }
      ],
      "name": "removeFromMarket",
      "outputs": [],
      "stateMutability": "nonpayable",
      "type": "function"
    },
    {
      "inputs": [
        {
          "internalType": "uint256",
          "name": "_tokenId",
          "type": "uint256"
        }
      ],
      "name": "borrowFromMarket",
      "outputs": [],
      "stateMutability": "payable",
      "type": "function",
      "payable": true
    },
    {
      "inputs": [
        {
          "internalType": "uint256",
          "name": "_tokenId",
          "type": "uint256"
        }
      ],
      "name": "returnNFT",
      "outputs": [],
      "stateMutability": "nonpayable",
      "type": "function"
    },
    {
      "inputs": [
        {
          "internalType": "uint256",
          "name": "_tokenId",
          "type": "uint256"
        }
      ],
      "name": "claimCollateral",
      "outputs": [],
      "stateMutability": "nonpayable",
      "type": "function"
    },
    {
      "inputs": [
        {
          "internalType": "string",
          "name": "_name",
          "type": "string"
        },
        {
          "internalType": "string",
          "name": "_imageUrl",
          "type": "string"
        }
      ],
      "name": "mintNFT",
      "outputs": [
        {
          "internalType": "uint256",
          "name": "",
          "type": "uint256"
        }
      ],
      "stateMutability": "nonpayable",
      "type": "function"
    }
  ],
  "bytecode": "0x60806040526032600f553480156200001657600080fd5b506040518060400160405280600981526020016813919514995b9d185b60ba1b8152506040518060400160405280600481526020016327232a2960e11b815250620000706200006a620000a460201b60201c565b620000a8565b815162000085906001906020850190620000f8565b5080516200009b906002906020840190620000f8565b505050620001db565b3390565b600080546001600160a01b038381166001600160a01b0319831681178455604051919092169283917f8be0079c531659141344cd1fd0a4f28419497f9722a3daafe3b4186f6b6457e09190a35050565b82805462000106906200019e565b90600052602060002090601f0160209004810192826200012a576000855562000175565b82601f106200014557805160ff191683800117855562000175565b8280016001018555821562000175579182015b828111156200017557825182559160200191906001019062000158565b506200018392915062000187565b5090565b5b8082111562000183576000815560010162000188565b600181811c90821680620001b357607f821691505b60208210811415620001d557634e487b7160e01b600052602260045260246000fd5b50919050565b613b3480620001eb6000396000f3fe6080604052600436106101e35760003560e01c806376774ea311610102578063bf2b23ea11610095578063e960554411610064578063e96055441461057d578063e985e9c51461059d578063ed59313a146105e6578063f2fde38b1461060657600080fd5b8063bf2b23ea14610511578063c49785b414610527578063c87b56dd14610547578063d5abeb011461056757600080fd5b8063a87430ba116100d1578063a87430ba14610488578063b0cd2aa0146104a8578063b5077f44146104c8578063b88d4fde146104f157600080fd5b806376774ea3146104155780638da5cb5b1461043557806395d89b4114610453578063a22cb4651461046857600080fd5b8063397738a01161017a5780636352211e116101495780636352211e146103a05780636457bd04146103c057806370a08231146103e0578063715018a61461040057600080fd5b8063397738a01461032d57806342842e0e146103405780634f6ccce714610360578063539325a11461038057600080fd5b806318160ddd116101b657806318160ddd1461029957806323b872dd146102b8578063265aa621146102d85780632f745c591461030d57600080fd5b806301ffc9a7146101e857806306fdde031461021d578063081812fc1461023f578063095ea7b314610277575b600080fd5b3480156101f457600080fd5b50610208610203366004613631565b610626565b60405190151581526020015b60405180910390f35b34801561022957600080fd5b50610232610651565b60405161021491906137f8565b34801561024b57600080fd5b5061025f61025a366004613704565b6106e3565b6040516001600160a01b039091168152602001610214565b34801561028357600080fd5b50610297610292366004613605565b61077d565b005b3480156102a557600080fd5b506009545b604051908152602001610214565b3480156102c457600080fd5b506102976102d3366004613511565b610893565b3480156102e457600080fd5b506102f86102f3366004613704565b6108c4565b6040516102149998979695949392919061380b565b34801561031957600080fd5b506102aa610328366004613605565b610a43565b61029761033b366004613704565b610ad9565b34801561034c57600080fd5b5061029761035b366004613511565b61118b565b34801561036c57600080fd5b506102aa61037b366004613704565b6111a6565b34801561038c57600080fd5b5061029761039b36600461371d565b611239565b3480156103ac57600080fd5b5061025f6103bb366004613704565b611604565b3480156103cc57600080fd5b506102976103db366004613704565b61167b565b3480156103ec57600080fd5b506102aa6103fb36600461349e565b61191b565b34801561040c57600080fd5b506102976119a2565b34801561042157600080fd5b50610297610430366004613704565b6119d8565b34801561044157600080fd5b506000546001600160a01b031661025f565b34801561045f57600080fd5b50610232611a58565b34801561047457600080fd5b506102976104833660046135d2565b611a67565b34801561049457600080fd5b506102326104a336600461349e565b611b2c565b3480156104b457600080fd5b506102976104c3366004613704565b611bc6565b3480156104d457600080fd5b506104de6103e881565b60405161ffff9091168152602001610214565b3480156104fd57600080fd5b5061029761050c366004613552565b6121bf565b34801561051d57600080fd5b506102aa600f5481565b34801561053357600080fd5b50610297610542366004613704565b6121f7565b34801561055357600080fd5b50610232610562366004613704565b6125fd565b34801561057357600080fd5b506102aa600e5481565b34801561058957600080fd5b506102aa6105983660046136a0565b6126e5565b3480156105a957600080fd5b506102086105b83660046134d8565b6001600160a01b03918216600090815260066020908152604080832093909416825291909152205460ff1690565b3480156105f257600080fd5b5061029761060136600461366b565b61292c565b34801561061257600080fd5b5061029761062136600461349e565b612950565b60006001600160e01b0319821663780e9d6360e01b148061064b575061064b826129eb565b92915050565b606060018054610660906139db565b80601f016020809104026020016040519081016040528092919081815260200182805461068c906139db565b80156106d95780601f106106ae576101008083540402835291602001916106d9565b820191906000526020600020905b8154815290600101906020018083116106bc57829003601f168201915b5050505050905090565b6000818152600360205260408120546001600160a01b03166107615760405162461bcd60e51b815260206004820152602c60248201527f4552433732313a20617070726f76656420717565727920666f72206e6f6e657860448201526b34b9ba32b73a103a37b5b2b760a11b60648201526084015b60405180910390fd5b506000908152600560205260409020546001600160a01b031690565b600061078882611604565b9050806001600160a01b0316836001600160a01b031614156107f65760405162461bcd60e51b815260206004820152602160248201527f4552433732313a20617070726f76616c20746f2063757272656e74206f776e656044820152603960f91b6064820152608401610758565b336001600160a01b0382161480610812575061081281336105b8565b6108845760405162461bcd60e51b815260206004820152603860248201527f4552433732313a20617070726f76652063616c6c6572206973206e6f74206f7760448201527f6e6572206e6f7220617070726f76656420666f7220616c6c00000000000000006064820152608401610758565b61088e8383612a3b565b505050565b61089d3382612aa9565b6108b95760405162461bcd60e51b8152600401610758906138fc565b61088e838383612ba0565b600d81815481106108d457600080fd5b90600052602060002090600802016000915090508060000180546108f7906139db565b80601f0160208091040260200160405190810160405280929190818152602001828054610923906139db565b80156109705780601f1061094557610100808354040283529160200191610970565b820191906000526020600020905b81548152906001019060200180831161095357829003601f168201915b505050505090806001018054610985906139db565b80601f01602080910402602001604051908101604052809291908181526020018280546109b1906139db565b80156109fe5780601f106109d3576101008083540402835291602001916109fe565b820191906000526020600020905b8154815290600101906020018083116109e157829003601f168201915b50505050600283015460038401546004850154600586015460068701546007909701549596939560ff841695506101009093046001600160a01b031693919290919089565b6000610a4e8361191b565b8210610ab05760405162461bcd60e51b815260206004820152602b60248201527f455243373231456e756d657261626c653a206f776e657220696e646578206f7560448201526a74206f6620626f756e647360a81b6064820152608401610758565b506001600160a01b03919091166000908152600760209081526040808320938352929052205490565b6040516331a9108f60e11b8152600481018290523090636352211e9060240160206040518083038186803b158015610b1057600080fd5b505afa158015610b24573d6000803e3d6000fd5b505050506040513d601f19601f82011682018060405250810190610b4891906134bb565b6001600160a01b0316336001600160a01b03161415610ba95760405162461bcd60e51b815260206004820181905260248201527f596f752063616e6e6f7420626f72726f7720796f7572206f776e206974656d216044820152606401610758565b600d610bb6600183613998565b81548110610bc657610bc6613a87565b600091825260209091206008909102016003015461010090046001600160a01b0316331415610c485760405162461bcd60e51b815260206004820152602860248201527f596f752063616e6e6f7420626f72726f7720616e206974656d207468617420796044820152676f75206c656e642160c01b6064820152608401610758565b600d610c55600183613998565b81548110610c6557610c65613a87565b600091825260209091206003600890920201015460ff161515600114610cdf5760405162461bcd60e51b815260206004820152602960248201527f4974656d2073686f756c64206265206f6e2073616c6520666f7220796f7520746044820152683790313abc9034ba1760b91b6064820152608401610758565b6000600d610cee600184613998565b81548110610cfe57610cfe613a87565b90600052602060002090600802016007015462015180600d600185610d239190613998565b81548110610d3357610d33613a87565b906000526020600020906008020160040154610d4f9190613965565b600d610d5c600186613998565b81548110610d6c57610d6c613a87565b906000526020600020906008020160060154610d889190613979565b610d92919061394d565b905034811115610e4d5760405162461bcd60e51b815260206004820152607460248201527f54686520616d6f756e7420796f752073656e74206973206c657373207468616e60448201527f20746865207072696365206f662072656e74616c20287768696368206973207460648201527f6865207072696365206f66207468652066756c6c2072656e74616c20706572696084820152736f6420706c757320636f6c6c61746572616c2e2960601b60a482015260c401610758565b60405163020604bf60e21b8152600481018390523090819063081812fc9060240160206040518083038186803b158015610e8657600080fd5b505afa158015610e9a573d6000803e3d6000fd5b505050506040513d601f19601f82011682018060405250810190610ebe91906134bb565b6001600160a01b031614610f3a5760405162461bcd60e51b815260206004820152603760248201527f53656c6c657220646964206e6f74206769766520616c6c6f77616e636520666f60448201527f7220757320746f2073656c6c2074686973206974656d2e0000000000000000006064820152608401610758565b6040516331a9108f60e11b8152600481018390526000903090636352211e9060240160206040518083038186803b158015610f7457600080fd5b505afa158015610f88573d6000803e3d6000fd5b505050506040513d601f19601f82011682018060405250810190610fac91906134bb565b604051632142170760e11b81526001600160a01b03821660048201523360248201526044810185905290915030906342842e0e90606401600060405180830381600087803b158015610ffd57600080fd5b505af1158015611011573d6000803e3d6000fd5b505050506000600d6001856110269190613998565b8154811061103657611036613a87565b60009182526020822060089190910201600301805460ff191692151592909217909155600d611066600186613998565b8154811061107657611076613a87565b90600052602060002090600802016004015442611093919061394d565b905080600d6110a3600187613998565b815481106110b3576110b3613a87565b9060005260206000209060080201600501819055506110d2308561077d565b83600080516020613adf8339815191526000808085600d6110f4600188613998565b8154811061110457611104613a87565b6000918252602091829020600891820201600301546040805161010080825280820194909452671391950814dbdb1960c21b61012082015260ff98909816938801939093529186019490945260608501929092526080840152046001600160a01b031660a08201523360c082015260e081018690526101400160405180910390a250505050565b61088e838383604051806020016040528060008152506121bf565b60006111b160095490565b82106112145760405162461bcd60e51b815260206004820152602c60248201527f455243373231456e756d657261626c653a20676c6f62616c20696e646578206f60448201526b7574206f6620626f756e647360a01b6064820152608401610758565b6009828154811061122757611227613a87565b90600052602060002001549050919050565b6040516331a9108f60e11b8152600481018590523090636352211e9060240160206040518083038186803b15801561127057600080fd5b505afa158015611284573d6000803e3d6000fd5b505050506040513d601f19601f820116820180604052508101906112a891906134bb565b6001600160a01b0316336001600160a01b03161461133c5760405162461bcd60e51b815260206004820152604560248201527f596f752063616e6e6f74207075742074686973206974656d206f6e2073616c6560448201527f2c206265636175736520796f7520617265206e6f7420746865206f776e6572206064820152641bd9881a5d60da1b608482015260a401610758565b600d611349600186613998565b8154811061135957611359613a87565b600091825260209091206003600890920201015460ff16156113bd5760405162461bcd60e51b815260206004820152601860248201527f4974656d20697320616c7265616479206f6e2073616c652e00000000000000006044820152606401610758565b60008360ff16116114275760405162461bcd60e51b815260206004820152602e60248201527f596f752063616e6e6f74206c656e6420746865206974656d20666f72206c657360448201526d39903a3430b71018103230bcb99760911b6064820152608401610758565b6001600d6114358287613998565b8154811061144557611445613a87565b60009182526020909120600890910201600301805460ff191691151591909117905533600d611475600187613998565b8154811061148557611485613a87565b906000526020600020906008020160030160016101000a8154816001600160a01b0302191690836001600160a01b03160217905550620151808360ff166114cc9190613979565b600d6114d9600187613998565b815481106114e9576114e9613a87565b600091825260209091206004600890920201015581600d61150b600187613998565b8154811061151b5761151b613a87565b600091825260209091206006600890920201015580600d61153d600187613998565b8154811061154d5761154d613a87565b600091825260208220600760089092020101919091558161157160ff861685613979565b61157b919061394d565b9050611587308661077d565b60408051610100808252600d908201526c1391950813db8813585c9ad95d609a1b61012082015260ff86166020820152908101849052606081018390526000608082018190523360a083015260c082015260e081018290528590600080516020613adf833981519152906101400160405180910390a25050505050565b6000818152600360205260408120546001600160a01b03168061064b5760405162461bcd60e51b815260206004820152602960248201527f4552433732313a206f776e657220717565727920666f72206e6f6e657869737460448201526832b73a103a37b5b2b760b91b6064820152608401610758565b600d611688600183613998565b8154811061169857611698613a87565b600091825260209091206003600890920201015460ff16151560011461170f5760405162461bcd60e51b815260206004820152602660248201527f4974656d2073686f756c64206265206f6e2073616c6520746f2063616e63656c6044820152651039b0b6329760d11b6064820152608401610758565b6040516331a9108f60e11b8152600481018290523090636352211e9060240160206040518083038186803b15801561174657600080fd5b505afa15801561175a573d6000803e3d6000fd5b505050506040513d601f19601f8201168201806040525081019061177e91906134bb565b6001600160a01b0316336001600160a01b0316146118145760405162461bcd60e51b815260206004820152604760248201527f596f752063616e6e6f742063616e63656c207468652073616c65206f6620746860448201527f6973206974656d2c206265636175736520796f7520617265206e6f74207468656064820152661037bbb732b91760c91b608482015260a401610758565b6000600d611823600184613998565b8154811061183357611833613a87565b60009182526020822060089190910201600301805460ff191692151592909217909155600d611863600184613998565b8154811061187357611873613a87565b600091825260208083206008929092029091016003018054610100600160a81b0319166101006001600160a01b0395909516850217905560408051848152600b948101949094526a1391950814995b5bdd995960aa1b610120850152908301829052820181905260608201819052608082018190523360a083015260c0820181905260e08201528190600080516020613adf833981519152906101400160405180910390a250565b60006001600160a01b0382166119865760405162461bcd60e51b815260206004820152602a60248201527f4552433732313a2062616c616e636520717565727920666f7220746865207a65604482015269726f206164647265737360b01b6064820152608401610758565b506001600160a01b031660009081526004602052604090205490565b6000546001600160a01b031633146119cc5760405162461bcd60e51b8152600401610758906138c7565b6119d66000612d4b565b565b6000546001600160a01b03163314611a025760405162461bcd60e51b8152600401610758906138c7565b6127108110611a535760405162461bcd60e51b815260206004820152601860248201527f4665652065786365656473203130302070657263656e742e00000000000000006044820152606401610758565b600f55565b606060028054610660906139db565b6001600160a01b038216331415611ac05760405162461bcd60e51b815260206004820152601960248201527f4552433732313a20617070726f766520746f2063616c6c6572000000000000006044820152606401610758565b3360008181526006602090815260408083206001600160a01b03871680855290835292819020805460ff191686151590811790915590519081529192917f17307eab39ab6107e8899845ad3d59bd9653f200f220920489ca2b5937696c31910160405180910390a35050565b600c6020526000908152604090208054611b45906139db565b80601f0160208091040260200160405190810160405280929190818152602001828054611b71906139db565b8015611bbe5780601f10611b9357610100808354040283529160200191611bbe565b820191906000526020600020905b815481529060010190602001808311611ba157829003601f168201915b505050505081565b6040516331a9108f60e11b8152600481018290523090636352211e9060240160206040518083038186803b158015611bfd57600080fd5b505afa158015611c11573d6000803e3d6000fd5b505050506040513d601f19601f82011682018060405250810190611c3591906134bb565b6001600160a01b0316336001600160a01b031614611ca15760405162461bcd60e51b815260206004820152602360248201527f596f75206d757374206f776e20746865206974656d20746f2072657475726e2060448201526234ba1760e91b6064820152608401610758565b600d611cae600183613998565b81548110611cbe57611cbe613a87565b600091825260209091206003600890920201015460ff1615611d225760405162461bcd60e51b815260206004820152601960248201527f4974656d206d757374206e6f74206265206f6e2073616c652e000000000000006044820152606401610758565b6000600d611d31600184613998565b81548110611d4157611d41613a87565b906000526020600020906008020160040154600d600184611d629190613998565b81548110611d7257611d72613a87565b906000526020600020906008020160050154611d8e9190613998565b611d989042613998565b90506000600d611da9600185613998565b81548110611db957611db9613a87565b9060005260206000209060080201600701546201518083600d600187611ddf9190613998565b81548110611def57611def613a87565b906000526020600020906008020160040154611e0b9190613998565b611e159190613965565b600d611e22600187613998565b81548110611e3257611e32613a87565b906000526020600020906008020160060154611e4e9190613979565b611e58919061394d565b604051909150339082156108fc029083906000818181858888f19350505050158015611e88573d6000803e3d6000fd5b5060008262015180600d611e9d600188613998565b81548110611ead57611ead613a87565b906000526020600020906008020160060154611ec99190613965565b611ed39190613979565b9050600d611ee2600186613998565b81548110611ef257611ef2613a87565b906000526020600020906008020160030160019054906101000a90046001600160a01b03166001600160a01b03166108fc612710600f54612710611f369190613998565b611f409190613965565b611f4a9084613979565b6040518115909202916000818181858888f19350505050158015611f72573d6000803e3d6000fd5b5060408051610100808252600c908201526b1391950814995d1d5c9b995960a21b6101208201526000602082018190528183018190526060820181905260808201523060a08201523360c082015260e0810184905290518591600080516020613adf83398151915291908190036101400190a26000600d611ff4600187613998565b8154811061200457612004613a87565b60009182526020909120600890910201600301805460ff191691151591909117905560405163020604bf60e21b8152600481018590523090819063081812fc9060240160206040518083038186803b15801561205f57600080fd5b505afa158015612073573d6000803e3d6000fd5b505050506040513d601f19601f8201168201806040525081019061209791906134bb565b6001600160a01b0316146121135760405162461bcd60e51b815260206004820152603b60248201527f426f72726f77657220646964206e6f74206769766520616c6c6f77616e63652060448201527f666f7220757320746f2072657475726e2074686973206974656d2e00000000006064820152608401610758565b306342842e0e33600d612127600189613998565b8154811061213757612137613a87565b600091825260209091206008909102016003015460405160e084901b6001600160e01b03191681526001600160a01b039283166004820152610100909104909116602482015260448101879052606401600060405180830381600087803b1580156121a157600080fd5b505af11580156121b5573d6000803e3d6000fd5b5050505050505050565b6121c93383612aa9565b6121e55760405162461bcd60e51b8152600401610758906138fc565b6121f184848484612d9b565b50505050565b600d612204600183613998565b8154811061221457612214613a87565b600091825260209091206003600890920201015460ff161561229e5760405162461bcd60e51b815260206004820152603d60248201527f596f752063616e6e6f7420636c61696d2074686520636f6c6c61746572616c2c60448201527f206265636175736520746865206974656d206973206f6e2073616c652e0000006064820152608401610758565b600d6122ab600183613998565b815481106122bb576122bb613a87565b600091825260209091206008909102016003015461010090046001600160a01b031633146123665760405162461bcd60e51b815260206004820152604c60248201527f596f752063616e6e6f7420636c61696d2074686520636f6c6c61746572616c2c60448201527f206265636175736520796f7520617265206e6f7420746865206c656e6465722060648201526b37b3103a34329034ba32b69760a11b608482015260a401610758565b42600d612374600184613998565b8154811061238457612384613a87565b906000526020600020906008020160050154106124175760405162461bcd60e51b8152602060048201526044602482018190527f596f752063616e206e6f7420636c61696d2074686520636f6c6c61746572616c908201527f2c2073696e6365207468652072656e742074696d6520686173206e6f7420656e6064820152633232b21760e11b608482015260a401610758565b6000600d612426600184613998565b8154811061243657612436613a87565b906000526020600020906008020160030160016101000a8154816001600160a01b0302191690836001600160a01b031602179055506000600d60018361247c9190613998565b8154811061248c5761248c613a87565b906000526020600020906008020160070154600d6001846124ad9190613998565b815481106124bd576124bd613a87565b90600052602060002090600802016004015462015180600d6001866124e29190613998565b815481106124f2576124f2613a87565b90600052602060002090600802016006015461250e9190613965565b6125189190613979565b612522919061394d565b9050336001600160a01b03166108fc612710600f546127106125449190613998565b61254e9190613965565b6125589084613979565b6040518115909202916000818181858888f19350505050158015612580573d6000803e3d6000fd5b50604080516101008082526012908201527110dbdb1b185d195c985b0810db185a5b595960721b6101208201526000602082018190528183018190526060820181905260808201523060a08201523360c082015260e0810183905290518391600080516020613adf83398151915291908190036101400190a25050565b6000818152600360205260409020546060906001600160a01b031661267c5760405162461bcd60e51b815260206004820152602f60248201527f4552433732314d657461646174613a2055524920717565727920666f72206e6f60448201526e3732bc34b9ba32b73a103a37b5b2b760891b6064820152608401610758565b600061269360408051602081019091526000815290565b905060008151116126b357604051806020016040528060008152506126de565b806126bd84612dce565b6040516020016126ce92919061378c565b6040516020818303038152906040525b9392505050565b60006126f5600b80546001019055565b6000612700600b5490565b90506103e8811061278d5760405162461bcd60e51b815260206004820152604b60248201527f596f752063616e6e6f74206d696e7420616e79206d6f7265206974656d73207360448201527f696e636520796f7520616c7265616479207265616368656420746865206d617860648201526a696d756d20737570706c7960a81b608482015260a401610758565b604080516101208101825285815260208082018690529181018390526000606082018190526080820181905260a0820181905260c0820181905260e082018190526101008201819052600d8054600181018255915281518051929360089092027fd7b6990105719101dabeb77144f2a3385c8033acd3af97e9423a695e81ad1eb5019261281d928492019061336f565b506020828101518051612836926001850192019061336f565b5060408201516002820155606082015160038201805460808501516001600160a81b0319909116921515610100600160a81b031916929092176101006001600160a01b03909316830217905560a0830151600483015560c0830151600583015560e08301516006830155909101516007909101556128b43382612ecc565b60408051610100808252600a908201526913919508135a5b9d195960b21b610120820152600060208201819052818301819052606082018190526080820181905260a082018190523360c083015260e082015290518291600080516020613adf83398151915291908190036101400190a29392505050565b336000908152600c60209081526040909120825161294c9284019061336f565b5050565b6000546001600160a01b0316331461297a5760405162461bcd60e51b8152600401610758906138c7565b6001600160a01b0381166129df5760405162461bcd60e51b815260206004820152602660248201527f4f776e61626c653a206e6577206f776e657220697320746865207a65726f206160448201526564647265737360d01b6064820152608401610758565b6129e881612d4b565b50565b60006001600160e01b031982166380ac58cd60e01b1480612a1c57506001600160e01b03198216635b5e139f60e01b145b8061064b57506301ffc9a760e01b6001600160e01b031983161461064b565b600081815260056020526040902080546001600160a01b0319166001600160a01b0384169081179091558190612a7082611604565b6001600160a01b03167f8c5be1e5ebec7d5bd14f71427d1e84f3dd0314c0f7b2291e5b200ac8c7c3b92560405160405180910390a45050565b6000818152600360205260408120546001600160a01b0316612b225760405162461bcd60e51b815260206004820152602c60248201527f4552433732313a206f70657261746f7220717565727920666f72206e6f6e657860448201526b34b9ba32b73a103a37b5b2b760a11b6064820152608401610758565b6000612b2d83611604565b9050806001600160a01b0316846001600160a01b03161480612b685750836001600160a01b0316612b5d846106e3565b6001600160a01b0316145b80612b9857506001600160a01b0380821660009081526006602090815260408083209388168352929052205460ff165b949350505050565b826001600160a01b0316612bb382611604565b6001600160a01b031614612c1b5760405162461bcd60e51b815260206004820152602960248201527f4552433732313a207472616e73666572206f6620746f6b656e2074686174206960448201526839903737ba1037bbb760b91b6064820152608401610758565b6001600160a01b038216612c7d5760405162461bcd60e51b8152602060048201526024808201527f4552433732313a207472616e7366657220746f20746865207a65726f206164646044820152637265737360e01b6064820152608401610758565b612c8883838361301a565b612c93600082612a3b565b6001600160a01b0383166000908152600460205260408120805460019290612cbc908490613998565b90915550506001600160a01b0382166000908152600460205260408120805460019290612cea90849061394d565b909155505060008181526003602052604080822080546001600160a01b0319166001600160a01b0386811691821790925591518493918716917fddf252ad1be2c89b69c2b068fc378daa952ba7f163c4a11628f55a4df523b3ef91a4505050565b600080546001600160a01b038381166001600160a01b0319831681178455604051919092169283917f8be0079c531659141344cd1fd0a4f28419497f9722a3daafe3b4186f6b6457e09190a35050565b612da6848484612ba0565b612db2848484846130d2565b6121f15760405162461bcd60e51b815260040161075890613875565b606081612df25750506040805180820190915260018152600360fc1b602082015290565b8160005b8115612e1c5780612e0681613a16565b9150612e159050600a83613965565b9150612df6565b60008167ffffffffffffffff811115612e3757612e37613a9d565b6040519080825280601f01601f191660200182016040528015612e61576020820181803683370190505b5090505b8415612b9857612e76600183613998565b9150612e83600a86613a31565b612e8e90603061394d565b60f81b818381518110612ea357612ea3613a87565b60200101906001600160f81b031916908160001a905350612ec5600a86613965565b9450612e65565b6001600160a01b038216612f225760405162461bcd60e51b815260206004820181905260248201527f4552433732313a206d696e7420746f20746865207a65726f20616464726573736044820152606401610758565b6000818152600360205260409020546001600160a01b031615612f875760405162461bcd60e51b815260206004820152601c60248201527f4552433732313a20746f6b656e20616c7265616479206d696e746564000000006044820152606401610758565b612f936000838361301a565b6001600160a01b0382166000908152600460205260408120805460019290612fbc90849061394d565b909155505060008181526003602052604080822080546001600160a01b0319166001600160a01b03861690811790915590518392907fddf252ad1be2c89b69c2b068fc378daa952ba7f163c4a11628f55a4df523b3ef908290a45050565b6001600160a01b0383166130755761307081600980546000838152600a60205260408120829055600182018355919091527f6e1540171b6c0c960b71a7020d9f60077f6af931a8bbf590da0223dacf75c7af0155565b613098565b816001600160a01b0316836001600160a01b0316146130985761309883826131df565b6001600160a01b0382166130af5761088e8161327c565b826001600160a01b0316826001600160a01b03161461088e5761088e828261332b565b60006001600160a01b0384163b156131d457604051630a85bd0160e11b81526001600160a01b0385169063150b7a02906131169033908990889088906004016137bb565b602060405180830381600087803b15801561313057600080fd5b505af1925050508015613160575060408051601f3d908101601f1916820190925261315d9181019061364e565b60015b6131ba573d80801561318e576040519150601f19603f3d011682016040523d82523d6000602084013e613193565b606091505b5080516131b25760405162461bcd60e51b815260040161075890613875565b805181602001fd5b6001600160e01b031916630a85bd0160e11b149050612b98565b506001949350505050565b600060016131ec8461191b565b6131f69190613998565b600083815260086020526040902054909150808214613249576001600160a01b03841660009081526007602090815260408083208584528252808320548484528184208190558352600890915290208190555b5060009182526008602090815260408084208490556001600160a01b039094168352600781528383209183525290812055565b60095460009061328e90600190613998565b6000838152600a6020526040812054600980549394509092849081106132b6576132b6613a87565b9060005260206000200154905080600983815481106132d7576132d7613a87565b6000918252602080832090910192909255828152600a9091526040808220849055858252812055600980548061330f5761330f613a71565b6001900381819060005260206000200160009055905550505050565b60006133368361191b565b6001600160a01b039093166000908152600760209081526040808320868452825280832085905593825260089052919091209190915550565b82805461337b906139db565b90600052602060002090601f01602090048101928261339d57600085556133e3565b82601f106133b657805160ff19168380011785556133e3565b828001600101855582156133e3579182015b828111156133e35782518255916020019190600101906133c8565b506133ef9291506133f3565b5090565b5b808211156133ef57600081556001016133f4565b600067ffffffffffffffff8084111561342357613423613a9d565b604051601f8501601f19908116603f0116810190828211818310171561344b5761344b613a9d565b8160405280935085815286868601111561346457600080fd5b858560208301376000602087830101525050509392505050565b600082601f83011261348f57600080fd5b6126de83833560208501613408565b6000602082840312156134b057600080fd5b81356126de81613ab3565b6000602082840312156134cd57600080fd5b81516126de81613ab3565b600080604083850312156134eb57600080fd5b82356134f681613ab3565b9150602083013561350681613ab3565b809150509250929050565b60008060006060848603121561352657600080fd5b833561353181613ab3565b9250602084013561354181613ab3565b929592945050506040919091013590565b6000806000806080858703121561356857600080fd5b843561357381613ab3565b9350602085013561358381613ab3565b925060408501359150606085013567ffffffffffffffff8111156135a657600080fd5b8501601f810187136135b757600080fd5b6135c687823560208401613408565b91505092959194509250565b600080604083850312156135e557600080fd5b82356135f081613ab3565b91506020830135801515811461350657600080fd5b6000806040838503121561361857600080fd5b823561362381613ab3565b946020939093013593505050565b60006020828403121561364357600080fd5b81356126de81613ac8565b60006020828403121561366057600080fd5b81516126de81613ac8565b60006020828403121561367d57600080fd5b813567ffffffffffffffff81111561369457600080fd5b612b988482850161347e565b600080604083850312156136b357600080fd5b823567ffffffffffffffff808211156136cb57600080fd5b6136d78683870161347e565b935060208501359150808211156136ed57600080fd5b506136fa8582860161347e565b9150509250929050565b60006020828403121561371657600080fd5b5035919050565b6000806000806080858703121561373357600080fd5b84359350602085013560ff8116811461374b57600080fd5b93969395505050506040820135916060013590565b600081518084526137788160208601602086016139af565b601f01601f19169290920160200192915050565b6000835161379e8184602088016139af565b8351908301906137b28183602088016139af565b01949350505050565b6001600160a01b03858116825284166020820152604081018390526080606082018190526000906137ee90830184613760565b9695505050505050565b6020815260006126de6020830184613760565b600061012080835261381f8184018d613760565b90508281036020840152613833818c613760565b604084019a909a52505095151560608701526001600160a01b0394909416608086015260a085019290925260c084015260e08301526101009091015292915050565b60208082526032908201527f4552433732313a207472616e7366657220746f206e6f6e20455243373231526560408201527131b2b4bb32b91034b6b83632b6b2b73a32b960711b606082015260800190565b6020808252818101527f4f776e61626c653a2063616c6c6572206973206e6f7420746865206f776e6572604082015260600190565b60208082526031908201527f4552433732313a207472616e736665722063616c6c6572206973206e6f74206f6040820152701ddb995c881b9bdc88185c1c1c9bdd9959607a1b606082015260800190565b6000821982111561396057613960613a45565b500190565b60008261397457613974613a5b565b500490565b600081600019048311821515161561399357613993613a45565b500290565b6000828210156139aa576139aa613a45565b500390565b60005b838110156139ca5781810151838201526020016139b2565b838111156121f15750506000910152565b600181811c908216806139ef57607f821691505b60208210811415613a1057634e487b7160e01b600052602260045260246000fd5b50919050565b6000600019821415613a2a57613a2a613a45565b5060010190565b600082613a4057613a40613a5b565b500690565b634e487b7160e01b600052601160045260246000fd5b634e487b7160e01b600052601260045260246000fd5b634e487b7160e01b600052603160045260246000fd5b634e487b7160e01b600052603260045260246000fd5b634e487b7160e01b600052604160045260246000fd5b6001600160a01b03811681146129e857600080fd5b6001600160e01b0319811681146129e857600080fdfe09785da904d2545d158cdea7a5dcf2234601db64742e3bef750aebe254a8a78aa264697066735822122040d8e914e27b53001ce457aaa85fc67550090034863877f4633d08ce1558ff5164736f6c63430008060033",
  "immutableReferences": {},
  "source": "pragma solidity ^0.8.0;\r\n\r\nimport \"@openzeppelin/contracts/token/ERC721/extensions/ERC721Enumerable.sol\";\r\nimport \"@openzeppelin/contracts/utils/Counters.sol\";\r\nimport \"@openzeppelin/contracts/access/Ownable.sol\";\r\n\r\ncontract NFTRental is Ownable, ERC721Enumerable {\r\n    using Counters for Counters.Counter;\r\n    \r\n    Counters.Counter private _tokenIds;\r\n    uint constant DAY_IN_SECONDS = 86400;\r\n    uint16 public constant MAX_NFT_SUPPLY = 1000;\r\n\r\n    struct NFTRentData {\r\n        string name;\r\n        string imageUrl;\r\n        uint256 id;\r\n        bool isOnSale;\r\n        address payable lender;\r\n        //address custodian;     # for supporting NFTs from other contracts\r\n        uint256 rentSeconds;\r\n        uint256 rentEndTime;\r\n        uint256 dailyPrice;\r\n        uint256 collateral;\r\n    }\r\n\r\n    event Transaction(\r\n        string transactionType,\r\n        uint256 indexed id,\r\n        uint8 maxDurationInDays,\r\n        uint256 dailyPrice,\r\n        uint256 collateral,\r\n        uint256 rentEndTime,\r\n        address fromAddress,\r\n        address toAddress,\r\n        uint256 value\r\n    );\r\n\r\n    mapping(address => string) public users;  // address => username\r\n\r\n    NFTRentData[] public nfts;\r\n    uint256 public maxSupply;\r\n    uint256 public rentFee = 50; // in basis points, so 50 => 0.5%\r\n\r\n    constructor() ERC721(\"NFTRental\", \"NFTR\") {}\r\n    \r\n    \r\n    function setRentFee(uint256 _rentFee) external onlyOwner {\r\n        require(_rentFee < 10000, \"Fee exceeds 100 percent.\");\r\n        rentFee = _rentFee;\r\n    }\r\n    \r\n    \r\n    function setUsername(string memory _username) public {\r\n        users[msg.sender] = _username;\r\n    }\r\n    \r\n\r\n    /* for general NFT support\r\n    function safeTransfer(address _from, address _to, uint256 _tokenId) private {\r\n        if (isERC721(_tokenId) {\r\n            IERC721(_tokenId).transferFrom(_from, _to, _tokenId);\r\n        } else {\r\n            revert(\"We currently only support ERC721 tokens.\");\r\n        }\r\n    }\r\n    \r\n    // Currently only support ERC721 tokens\r\n    function isERC721(address _tokenId) private view returns (bool) {\r\n        return IERC165(_tokenId).supportsInterface(type(IERC721).interfaceId);\r\n    }\r\n    */\r\n    \r\n    function putOnMarket(uint256 _tokenId, uint8 _maxDurationInDays, uint256 _dailyPrice, uint256 _collateral) public {\r\n        require(msg.sender == this.ownerOf(_tokenId), \"You cannot put this item on sale, because you are not the owner of it\");\r\n        //require(msg.sender == nfts[_tokenId - 1].custodian, \"You cannot put this item on sale, because you are not its custodian\");\r\n        require(nfts[_tokenId - 1].isOnSale == false, \"Item is already on sale.\");\r\n        require(_maxDurationInDays > 0, \"You cannot lend the item for less than 0 days.\");\r\n        require(_dailyPrice >= 0, \"Daily rent price can not be negative.\");\r\n        require(_collateral >= 0, \"Collateral amount can not be negative.\");\r\n\r\n        nfts[_tokenId - 1].isOnSale = true;\r\n        nfts[_tokenId - 1].lender = payable(msg.sender);\r\n        nfts[_tokenId - 1].rentSeconds = _maxDurationInDays * DAY_IN_SECONDS;\r\n        nfts[_tokenId - 1].dailyPrice = _dailyPrice;\r\n        nfts[_tokenId - 1].collateral = _collateral;\r\n        uint256 value = _dailyPrice * _maxDurationInDays + _collateral;\r\n\r\n        approve(address(this), _tokenId);\r\n        // safeTransfer(msg.sender, address(this), _tokenId);\r\n\r\n        emit Transaction(\r\n            \"NFT On Market\",\r\n            _tokenId,\r\n            _maxDurationInDays,\r\n            _dailyPrice,\r\n            _collateral,\r\n            0,\r\n            msg.sender,\r\n            address(0x0),\r\n            value\r\n        ); \r\n    }\r\n\r\n    function removeFromMarket(uint256 _tokenId) public {\r\n        require(nfts[_tokenId - 1].isOnSale == true, \"Item should be on sale to cancel sale.\");\r\n        require(msg.sender == this.ownerOf(_tokenId), \"You cannot cancel the sale of this item, because you are not the owner.\");\r\n        //require(nfts[_tokenId - 1].custodian == msg.sender, \"You cannot cancel the sale of this item, because you did not put it on sale.\");\r\n\r\n        nfts[_tokenId - 1].isOnSale = false;\r\n        nfts[_tokenId - 1].lender = payable(address(0));\r\n\r\n        //safeTransfer(address(this), msg.sender, _tokenId);\r\n\r\n        emit Transaction(\r\n            \"NFT Removed\",\r\n            _tokenId,\r\n            0,\r\n            0,\r\n            0,\r\n            0,\r\n            msg.sender,\r\n            address(0),\r\n            0\r\n        ); \r\n    }\r\n\r\n    function borrowFromMarket(uint256 _tokenId) public payable {\r\n        require(msg.sender != this.ownerOf(_tokenId), \"You cannot borrow your own item!\");\r\n        require(msg.sender != nfts[_tokenId - 1].lender, \"You cannot borrow an item that you lend!\");\r\n        //require(nfts[_tokenId - 1].custodian != msg.sender, \"You cannot buy your own item.\");\r\n        require(nfts[_tokenId - 1].isOnSale == true, \"Item should be on sale for you to buy it.\");\r\n        \r\n        uint256 initialPrice = nfts[_tokenId - 1].dailyPrice * (nfts[_tokenId - 1].rentSeconds / DAY_IN_SECONDS) + nfts[_tokenId - 1].collateral;\r\n        require(initialPrice <= msg.value, \"The amount you sent is less than the price of rental (which is the price of the full rental period plus collateral.)\");\r\n        \r\n        require(this.getApproved(_tokenId) == address(this), \"Seller did not give allowance for us to sell this item.\");\r\n        \r\n        address sellerAddress = this.ownerOf(_tokenId);\r\n        this.safeTransferFrom(sellerAddress, msg.sender, _tokenId);\r\n            \r\n        nfts[_tokenId - 1].isOnSale = false;\r\n        //nfts[_tokenId - 1].custodian = msg.sender;\r\n        uint256 rentEndTime = block.timestamp + nfts[_tokenId - 1].rentSeconds;\r\n        nfts[_tokenId - 1].rentEndTime = rentEndTime;\r\n\r\n        // Allows contract to return NFT back\r\n        approve(address(this), _tokenId);\r\n\r\n        emit Transaction(\r\n            \"NFT Sold\",\r\n            _tokenId,\r\n            0,\r\n            0,\r\n            0,\r\n            rentEndTime,\r\n            nfts[_tokenId - 1].lender,\r\n            msg.sender,\r\n            initialPrice\r\n        );\r\n    }\r\n    \r\n    function returnNFT(uint256 _tokenId) public {\r\n        require(msg.sender == this.ownerOf(_tokenId), \"You must own the item to return it.\");\r\n        //require(nfts[_tokenId - 1].custodian == msg.sender, \"Only the borrower can return the item.\");\r\n        require(nfts[_tokenId - 1].isOnSale == false, \"Item must not be on sale.\");\r\n\r\n        // return some rent money to borrower when they return early along with their collateral\r\n        uint256 secondsRented = block.timestamp - (nfts[_tokenId - 1].rentEndTime - nfts[_tokenId - 1].rentSeconds);\r\n        uint256 moneyBack = nfts[_tokenId - 1].dailyPrice * ((nfts[_tokenId - 1].rentSeconds - secondsRented) / DAY_IN_SECONDS) + nfts[_tokenId - 1].collateral;\r\n        (payable(msg.sender)).transfer(moneyBack); \r\n        \r\n        // send rent to lender\r\n        uint256 rentToLender = nfts[_tokenId - 1].dailyPrice / DAY_IN_SECONDS * secondsRented;\r\n        (nfts[_tokenId - 1].lender).transfer(rentToLender*((10000-rentFee)/10000)); // small fee is taken and kept in contract\r\n\r\n        emit Transaction(\r\n            \"NFT Returned\",\r\n            _tokenId,\r\n            0,\r\n            0,\r\n            0,\r\n            0,\r\n            address(this),\r\n            msg.sender,\r\n            moneyBack\r\n        );\r\n\r\n        nfts[_tokenId - 1].isOnSale = false;\r\n        \r\n        require(this.getApproved(_tokenId) == address(this), \"Borrower did not give allowance for us to return this item.\");\r\n        this.safeTransferFrom(msg.sender, nfts[_tokenId - 1].lender, _tokenId);        \r\n    }\r\n    \r\n    function claimCollateral(uint256 _tokenId) public {\r\n        //require(msg.sender != nfts[_tokenId - 1].custodian, \"You cannot claim the collateral, because you are already the custodian of the item.\");\r\n        require(nfts[_tokenId - 1].isOnSale == false, \"You cannot claim the collateral, because the item is on sale.\");\r\n        require(msg.sender == nfts[_tokenId - 1].lender, \"You cannot claim the collateral, because you are not the lender of the item.\");\r\n        require(nfts[_tokenId - 1].rentEndTime < block.timestamp, \"You can not claim the collateral, since the rent time has not ended.\");\r\n        \r\n        //nfts[_tokenId - 1].custodian = address(0);\r\n        nfts[_tokenId - 1].lender = payable(address(0));\r\n        \r\n        // Send the full rent + collateral to lender.\r\n        uint256 moneyToLender = nfts[_tokenId - 1].dailyPrice / DAY_IN_SECONDS * nfts[_tokenId - 1].rentSeconds + nfts[_tokenId - 1].collateral;\r\n        (payable(msg.sender)).transfer(moneyToLender*((10000-rentFee)/10000));  // small fee is taken and kept in contract\r\n\r\n        emit Transaction(\r\n            \"Collateral Claimed\",\r\n            _tokenId,\r\n            0,\r\n            0,\r\n            0,\r\n            0,\r\n            address(this),\r\n            msg.sender,\r\n            moneyToLender\r\n        ); \r\n    }\r\n\r\n\r\n    function mintNFT(string memory _name, string memory _imageUrl) public returns (uint256) {\r\n        _tokenIds.increment();\r\n        uint256 newItemId = _tokenIds.current();\r\n        require(newItemId < MAX_NFT_SUPPLY, \"You cannot mint any more items since you already reached the maximum supply\");\r\n\r\n        nfts.push(\r\n            NFTRentData(\r\n                _name,\r\n                _imageUrl,\r\n                newItemId,\r\n                false,\r\n                payable(address(0x0)),\r\n                //address(msg.sender),\r\n                0,\r\n                0,\r\n                0,\r\n                0\r\n            )\r\n        );\r\n        \r\n        _mint(msg.sender, newItemId);\r\n        \r\n        emit Transaction(\r\n            \"NFT Minted\",\r\n            newItemId,\r\n            0,\r\n            0,\r\n            0,\r\n            0,\r\n            address(0x0),\r\n            msg.sender, \r\n            0\r\n        );\r\n       \r\n        return newItemId;\r\n    }\r\n}",
  "sourcePath": "/mnt/c/Programming Projects/Copenhagen University/BBD/nft-rental/truffle/contracts/NFTRental.sol",
  "compiler": {
    "name": "solc",
    "version": "0.8.6+commit.11564f7e.Emscripten.clang"
  },
  "schemaVersion": "3.4.3",
  "updatedAt": "2021-11-07T10:27:46.243Z",
  "networkType": "ethereum",
  "devdoc": {
    "kind": "dev",
    "methods": {
      "approve(address,uint256)": {
        "details": "See {IERC721-approve}."
      },
      "balanceOf(address)": {
        "details": "See {IERC721-balanceOf}."
      },
      "getApproved(uint256)": {
        "details": "See {IERC721-getApproved}."
      },
      "isApprovedForAll(address,address)": {
        "details": "See {IERC721-isApprovedForAll}."
      },
      "name()": {
        "details": "See {IERC721Metadata-name}."
      },
      "owner()": {
        "details": "Returns the address of the current owner."
      },
      "ownerOf(uint256)": {
        "details": "See {IERC721-ownerOf}."
      },
      "renounceOwnership()": {
        "details": "Leaves the contract without owner. It will not be possible to call `onlyOwner` functions anymore. Can only be called by the current owner. NOTE: Renouncing ownership will leave the contract without an owner, thereby removing any functionality that is only available to the owner."
      },
      "safeTransferFrom(address,address,uint256)": {
        "details": "See {IERC721-safeTransferFrom}."
      },
      "safeTransferFrom(address,address,uint256,bytes)": {
        "details": "See {IERC721-safeTransferFrom}."
      },
      "setApprovalForAll(address,bool)": {
        "details": "See {IERC721-setApprovalForAll}."
      },
      "supportsInterface(bytes4)": {
        "details": "See {IERC165-supportsInterface}."
      },
      "symbol()": {
        "details": "See {IERC721Metadata-symbol}."
      },
      "tokenByIndex(uint256)": {
        "details": "See {IERC721Enumerable-tokenByIndex}."
      },
      "tokenOfOwnerByIndex(address,uint256)": {
        "details": "See {IERC721Enumerable-tokenOfOwnerByIndex}."
      },
      "tokenURI(uint256)": {
        "details": "See {IERC721Metadata-tokenURI}."
      },
      "totalSupply()": {
        "details": "See {IERC721Enumerable-totalSupply}."
      },
      "transferFrom(address,address,uint256)": {
        "details": "See {IERC721-transferFrom}."
      },
      "transferOwnership(address)": {
        "details": "Transfers ownership of the contract to a new account (`newOwner`). Can only be called by the current owner."
      }
    },
    "version": 1
  },
  "userdoc": {
    "kind": "user",
    "methods": {},
    "version": 1
  }
}