{
  "contractName": "NFTRental",
  "abi": [
    {
      "inputs": [],
      "payable": false,
      "stateMutability": "nonpayable",
      "type": "constructor",
      "signature": "constructor"
    },
    {
      "anonymous": false,
      "inputs": [
        {
          "indexed": true,
          "internalType": "address",
          "name": "owner",
          "type": "address"
        },
        {
          "indexed": true,
          "internalType": "address",
          "name": "approved",
          "type": "address"
        },
        {
          "indexed": true,
          "internalType": "uint256",
          "name": "tokenId",
          "type": "uint256"
        }
      ],
      "name": "Approval",
      "type": "event",
      "signature": "0x8c5be1e5ebec7d5bd14f71427d1e84f3dd0314c0f7b2291e5b200ac8c7c3b925"
    },
    {
      "anonymous": false,
      "inputs": [
        {
          "indexed": true,
          "internalType": "address",
          "name": "owner",
          "type": "address"
        },
        {
          "indexed": true,
          "internalType": "address",
          "name": "operator",
          "type": "address"
        },
        {
          "indexed": false,
          "internalType": "bool",
          "name": "approved",
          "type": "bool"
        }
      ],
      "name": "ApprovalForAll",
      "type": "event",
      "signature": "0x17307eab39ab6107e8899845ad3d59bd9653f200f220920489ca2b5937696c31"
    },
    {
      "anonymous": false,
      "inputs": [
        {
          "indexed": true,
          "internalType": "address",
          "name": "from",
          "type": "address"
        },
        {
          "indexed": true,
          "internalType": "address",
          "name": "to",
          "type": "address"
        },
        {
          "indexed": true,
          "internalType": "uint256",
          "name": "tokenId",
          "type": "uint256"
        }
      ],
      "name": "Transfer",
      "type": "event",
      "signature": "0xddf252ad1be2c89b69c2b068fc378daa952ba7f163c4a11628f55a4df523b3ef"
    },
    {
      "anonymous": false,
      "inputs": [
        {
          "indexed": true,
          "internalType": "uint256",
          "name": "id",
          "type": "uint256"
        },
        {
          "indexed": false,
          "internalType": "string",
          "name": "transactionType",
          "type": "string"
        },
        {
          "indexed": false,
          "internalType": "address",
          "name": "fromAddress",
          "type": "address"
        },
        {
          "indexed": false,
          "internalType": "address",
          "name": "toAddress",
          "type": "address"
        },
        {
          "indexed": false,
          "internalType": "uint256",
          "name": "value",
          "type": "uint256"
        }
      ],
      "name": "nftTransaction",
      "type": "event",
      "signature": "0xe08c5ec3e4eec30f43f959991338b87e61cc24376dfe3fc0e156daee7a4f7cf8"
    },
    {
      "constant": false,
      "inputs": [
        {
          "internalType": "address",
          "name": "to",
          "type": "address"
        },
        {
          "internalType": "uint256",
          "name": "tokenId",
          "type": "uint256"
        }
      ],
      "name": "approve",
      "outputs": [],
      "payable": false,
      "stateMutability": "nonpayable",
      "type": "function",
      "signature": "0x095ea7b3"
    },
    {
      "constant": true,
      "inputs": [
        {
          "internalType": "address",
          "name": "owner",
          "type": "address"
        }
      ],
      "name": "balanceOf",
      "outputs": [
        {
          "internalType": "uint256",
          "name": "",
          "type": "uint256"
        }
      ],
      "payable": false,
      "stateMutability": "view",
      "type": "function",
      "signature": "0x70a08231"
    },
    {
      "constant": true,
      "inputs": [
        {
          "internalType": "uint256",
          "name": "tokenId",
          "type": "uint256"
        }
      ],
      "name": "getApproved",
      "outputs": [
        {
          "internalType": "address",
          "name": "",
          "type": "address"
        }
      ],
      "payable": false,
      "stateMutability": "view",
      "type": "function",
      "signature": "0x081812fc"
    },
    {
      "constant": true,
      "inputs": [
        {
          "internalType": "address",
          "name": "owner",
          "type": "address"
        },
        {
          "internalType": "address",
          "name": "operator",
          "type": "address"
        }
      ],
      "name": "isApprovedForAll",
      "outputs": [
        {
          "internalType": "bool",
          "name": "",
          "type": "bool"
        }
      ],
      "payable": false,
      "stateMutability": "view",
      "type": "function",
      "signature": "0xe985e9c5"
    },
    {
      "constant": true,
      "inputs": [],
      "name": "maxSupply",
      "outputs": [
        {
          "internalType": "uint256",
          "name": "",
          "type": "uint256"
        }
      ],
      "payable": false,
      "stateMutability": "view",
      "type": "function",
      "signature": "0xd5abeb01"
    },
    {
      "constant": true,
      "inputs": [],
      "name": "name",
      "outputs": [
        {
          "internalType": "string",
          "name": "",
          "type": "string"
        }
      ],
      "payable": false,
      "stateMutability": "view",
      "type": "function",
      "signature": "0x06fdde03"
    },
    {
      "constant": true,
      "inputs": [
        {
          "internalType": "uint256",
          "name": "",
          "type": "uint256"
        }
      ],
      "name": "nfts",
      "outputs": [
        {
          "internalType": "string",
          "name": "name",
          "type": "string"
        },
        {
          "internalType": "uint256",
          "name": "id",
          "type": "uint256"
        },
        {
          "internalType": "string",
          "name": "imageUrl",
          "type": "string"
        },
        {
          "internalType": "bool",
          "name": "isOnSale",
          "type": "bool"
        },
        {
          "internalType": "bool",
          "name": "isOnRent",
          "type": "bool"
        },
        {
          "internalType": "uint256",
          "name": "sellPrice",
          "type": "uint256"
        },
        {
          "internalType": "uint256",
          "name": "rentPrice",
          "type": "uint256"
        },
        {
          "internalType": "uint256",
          "name": "rentEndTime",
          "type": "uint256"
        },
        {
          "internalType": "uint256",
          "name": "rentSeconds",
          "type": "uint256"
        },
        {
          "internalType": "address",
          "name": "actualOwner",
          "type": "address"
        }
      ],
      "payable": false,
      "stateMutability": "view",
      "type": "function",
      "signature": "0x265aa621"
    },
    {
      "constant": true,
      "inputs": [],
      "name": "owner",
      "outputs": [
        {
          "internalType": "address",
          "name": "",
          "type": "address"
        }
      ],
      "payable": false,
      "stateMutability": "view",
      "type": "function",
      "signature": "0x8da5cb5b"
    },
    {
      "constant": true,
      "inputs": [
        {
          "internalType": "uint256",
          "name": "tokenId",
          "type": "uint256"
        }
      ],
      "name": "ownerOf",
      "outputs": [
        {
          "internalType": "address",
          "name": "",
          "type": "address"
        }
      ],
      "payable": false,
      "stateMutability": "view",
      "type": "function",
      "signature": "0x6352211e"
    },
    {
      "constant": false,
      "inputs": [
        {
          "internalType": "address",
          "name": "from",
          "type": "address"
        },
        {
          "internalType": "address",
          "name": "to",
          "type": "address"
        },
        {
          "internalType": "uint256",
          "name": "tokenId",
          "type": "uint256"
        }
      ],
      "name": "safeTransferFrom",
      "outputs": [],
      "payable": false,
      "stateMutability": "nonpayable",
      "type": "function",
      "signature": "0x42842e0e"
    },
    {
      "constant": false,
      "inputs": [
        {
          "internalType": "address",
          "name": "from",
          "type": "address"
        },
        {
          "internalType": "address",
          "name": "to",
          "type": "address"
        },
        {
          "internalType": "uint256",
          "name": "tokenId",
          "type": "uint256"
        },
        {
          "internalType": "bytes",
          "name": "_data",
          "type": "bytes"
        }
      ],
      "name": "safeTransferFrom",
      "outputs": [],
      "payable": false,
      "stateMutability": "nonpayable",
      "type": "function",
      "signature": "0xb88d4fde"
    },
    {
      "constant": false,
      "inputs": [
        {
          "internalType": "address",
          "name": "to",
          "type": "address"
        },
        {
          "internalType": "bool",
          "name": "approved",
          "type": "bool"
        }
      ],
      "name": "setApprovalForAll",
      "outputs": [],
      "payable": false,
      "stateMutability": "nonpayable",
      "type": "function",
      "signature": "0xa22cb465"
    },
    {
      "constant": true,
      "inputs": [
        {
          "internalType": "bytes4",
          "name": "interfaceId",
          "type": "bytes4"
        }
      ],
      "name": "supportsInterface",
      "outputs": [
        {
          "internalType": "bool",
          "name": "",
          "type": "bool"
        }
      ],
      "payable": false,
      "stateMutability": "view",
      "type": "function",
      "signature": "0x01ffc9a7"
    },
    {
      "constant": true,
      "inputs": [],
      "name": "symbol",
      "outputs": [
        {
          "internalType": "string",
          "name": "",
          "type": "string"
        }
      ],
      "payable": false,
      "stateMutability": "view",
      "type": "function",
      "signature": "0x95d89b41"
    },
    {
      "constant": true,
      "inputs": [
        {
          "internalType": "uint256",
          "name": "index",
          "type": "uint256"
        }
      ],
      "name": "tokenByIndex",
      "outputs": [
        {
          "internalType": "uint256",
          "name": "",
          "type": "uint256"
        }
      ],
      "payable": false,
      "stateMutability": "view",
      "type": "function",
      "signature": "0x4f6ccce7"
    },
    {
      "constant": true,
      "inputs": [
        {
          "internalType": "address",
          "name": "owner",
          "type": "address"
        },
        {
          "internalType": "uint256",
          "name": "index",
          "type": "uint256"
        }
      ],
      "name": "tokenOfOwnerByIndex",
      "outputs": [
        {
          "internalType": "uint256",
          "name": "",
          "type": "uint256"
        }
      ],
      "payable": false,
      "stateMutability": "view",
      "type": "function",
      "signature": "0x2f745c59"
    },
    {
      "constant": true,
      "inputs": [
        {
          "internalType": "uint256",
          "name": "tokenId",
          "type": "uint256"
        }
      ],
      "name": "tokenURI",
      "outputs": [
        {
          "internalType": "string",
          "name": "",
          "type": "string"
        }
      ],
      "payable": false,
      "stateMutability": "view",
      "type": "function",
      "signature": "0xc87b56dd"
    },
    {
      "constant": true,
      "inputs": [],
      "name": "totalSupply",
      "outputs": [
        {
          "internalType": "uint256",
          "name": "",
          "type": "uint256"
        }
      ],
      "payable": false,
      "stateMutability": "view",
      "type": "function",
      "signature": "0x18160ddd"
    },
    {
      "constant": false,
      "inputs": [
        {
          "internalType": "address",
          "name": "from",
          "type": "address"
        },
        {
          "internalType": "address",
          "name": "to",
          "type": "address"
        },
        {
          "internalType": "uint256",
          "name": "tokenId",
          "type": "uint256"
        }
      ],
      "name": "transferFrom",
      "outputs": [],
      "payable": false,
      "stateMutability": "nonpayable",
      "type": "function",
      "signature": "0x23b872dd"
    },
    {
      "constant": true,
      "inputs": [
        {
          "internalType": "address",
          "name": "",
          "type": "address"
        }
      ],
      "name": "users",
      "outputs": [
        {
          "internalType": "string",
          "name": "username",
          "type": "string"
        },
        {
          "internalType": "uint256",
          "name": "userBalance",
          "type": "uint256"
        }
      ],
      "payable": false,
      "stateMutability": "view",
      "type": "function",
      "signature": "0xa87430ba"
    },
    {
      "constant": false,
      "inputs": [
        {
          "internalType": "string",
          "name": "_username",
          "type": "string"
        }
      ],
      "name": "setUsername",
      "outputs": [],
      "payable": false,
      "stateMutability": "nonpayable",
      "type": "function",
      "signature": "0xed59313a"
    },
    {
      "constant": true,
      "inputs": [
        {
          "internalType": "address",
          "name": "_owner",
          "type": "address"
        }
      ],
      "name": "tokensOfOwner",
      "outputs": [
        {
          "internalType": "uint256[]",
          "name": "",
          "type": "uint256[]"
        }
      ],
      "payable": false,
      "stateMutability": "view",
      "type": "function",
      "signature": "0x8462151c"
    },
    {
      "constant": false,
      "inputs": [
        {
          "internalType": "uint256",
          "name": "_tokenId",
          "type": "uint256"
        },
        {
          "internalType": "uint256",
          "name": "_sellPrice",
          "type": "uint256"
        }
      ],
      "name": "putOnSale",
      "outputs": [],
      "payable": false,
      "stateMutability": "nonpayable",
      "type": "function",
      "signature": "0x36f7992b"
    },
    {
      "constant": false,
      "inputs": [
        {
          "internalType": "uint256",
          "name": "_tokenId",
          "type": "uint256"
        }
      ],
      "name": "cancelSale",
      "outputs": [],
      "payable": false,
      "stateMutability": "nonpayable",
      "type": "function",
      "signature": "0xbd94b005"
    },
    {
      "constant": false,
      "inputs": [
        {
          "internalType": "uint256",
          "name": "_tokenId",
          "type": "uint256"
        }
      ],
      "name": "buyFromSale",
      "outputs": [],
      "payable": true,
      "stateMutability": "payable",
      "type": "function",
      "signature": "0xfc84afb4"
    },
    {
      "constant": false,
      "inputs": [
        {
          "internalType": "uint256",
          "name": "_tokenId",
          "type": "uint256"
        },
        {
          "internalType": "uint256",
          "name": "_rentPrice",
          "type": "uint256"
        },
        {
          "internalType": "uint256",
          "name": "_days",
          "type": "uint256"
        },
        {
          "internalType": "uint256",
          "name": "_hours",
          "type": "uint256"
        },
        {
          "internalType": "uint256",
          "name": "_minutes",
          "type": "uint256"
        },
        {
          "internalType": "uint256",
          "name": "_seconds",
          "type": "uint256"
        }
      ],
      "name": "putOnRent",
      "outputs": [],
      "payable": false,
      "stateMutability": "nonpayable",
      "type": "function",
      "signature": "0xd727d40d"
    },
    {
      "constant": false,
      "inputs": [
        {
          "internalType": "uint256",
          "name": "_tokenId",
          "type": "uint256"
        }
      ],
      "name": "cancelRent",
      "outputs": [],
      "payable": false,
      "stateMutability": "nonpayable",
      "type": "function",
      "signature": "0x857529f1"
    },
    {
      "constant": false,
      "inputs": [
        {
          "internalType": "uint256",
          "name": "_tokenId",
          "type": "uint256"
        }
      ],
      "name": "rent",
      "outputs": [],
      "payable": true,
      "stateMutability": "payable",
      "type": "function",
      "signature": "0x7456be7d"
    },
    {
      "constant": false,
      "inputs": [
        {
          "internalType": "uint256",
          "name": "_tokenId",
          "type": "uint256"
        }
      ],
      "name": "returnRented",
      "outputs": [],
      "payable": false,
      "stateMutability": "nonpayable",
      "type": "function",
      "signature": "0x475970d3"
    },
    {
      "constant": false,
      "inputs": [
        {
          "internalType": "uint256",
          "name": "_amount",
          "type": "uint256"
        }
      ],
      "name": "withdrawMoney",
      "outputs": [],
      "payable": false,
      "stateMutability": "nonpayable",
      "type": "function",
      "signature": "0x54876921"
    },
    {
      "constant": false,
      "inputs": [
        {
          "internalType": "string",
          "name": "_name",
          "type": "string"
        },
        {
          "internalType": "string",
          "name": "_imageUrl",
          "type": "string"
        }
      ],
      "name": "mint",
      "outputs": [
        {
          "internalType": "uint256",
          "name": "",
          "type": "uint256"
        }
      ],
      "payable": false,
      "stateMutability": "nonpayable",
      "type": "function",
      "signature": "0x8aa0fdad"
    },
    {
      "constant": false,
      "inputs": [
        {
          "internalType": "address",
          "name": "from",
          "type": "address"
        },
        {
          "internalType": "uint256",
          "name": "nft",
          "type": "uint256"
        }
      ],
      "name": "transfer",
      "outputs": [],
      "payable": false,
      "stateMutability": "nonpayable",
      "type": "function",
      "signature": "0xa9059cbb"
    }
  ],
  "bytecode": "0x60806040526000600c553480156200001657600080fd5b506040518060400160405280600981526020017f4e465452656e74616c00000000000000000000000000000000000000000000008152506040518060400160405280600481526020017f4e465452000000000000000000000000000000000000000000000000000000008152508181620000c26301ffc9a77c010000000000000000000000000000000000000000000000000000000002620001ac640100000000026401000000009004565b620000f67f80ac58cd00000000000000000000000000000000000000000000000000000000640100000000620001ac810204565b6200012a7f780e9d6300000000000000000000000000000000000000000000000000000000640100000000620001ac810204565b81516200013f9060099060208501906200027b565b5080516200015590600a9060208401906200027b565b506200018a7f5b5e139f00000000000000000000000000000000000000000000000000000000640100000000620001ac810204565b505060108054600160a060020a0319163317905550506103e860115562000320565b7fffffffff0000000000000000000000000000000000000000000000000000000080821614156200023e57604080517f08c379a000000000000000000000000000000000000000000000000000000000815260206004820152601c60248201527f4552433136353a20696e76616c696420696e7465726661636520696400000000604482015290519081900360640190fd5b7fffffffff00000000000000000000000000000000000000000000000000000000166000908152602081905260409020805460ff19166001179055565b828054600181600116156101000203166002900490600052602060002090601f016020900481019282601f10620002be57805160ff1916838001178555620002ee565b82800160010185558215620002ee579182015b82811115620002ee578251825591602001919060010190620002d1565b50620002fc92915062000300565b5090565b6200031d91905b80821115620002fc576000815560010162000307565b90565b6140e980620003306000396000f3fe6080604052600436106101e75760003560e060020a900480638462151c11610106578063b88d4fde11610099578063d727d40d11610068578063d727d40d14610b2f578063e985e9c514610b77578063ed59313a14610bb2578063fc84afb414610c65576101e7565b8063b88d4fde146109f3578063bd94b00514610ac6578063c87b56dd14610af0578063d5abeb0114610b1a576101e7565b806395d89b41116100d557806395d89b41146108b8578063a22cb465146108cd578063a87430ba14610908578063a9059cbb146109ba576101e7565b80638462151c146106bc578063857529f11461073f5780638aa0fdad146107695780638da5cb5b146108a3576101e7565b806336f7992b1161017e578063548769211161014d57806354876921146106185780636352211e1461064257806370a082311461066c5780637456be7d1461069f576101e7565b806336f7992b1461055157806342842e0e14610581578063475970d3146105c45780634f6ccce7146105ee576101e7565b806318160ddd116101ba57806318160ddd1461035457806323b872dd1461037b578063265aa621146103be5780632f745c5914610518576101e7565b806301ffc9a7146101ec57806306fdde0314610249578063081812fc146102d3578063095ea7b314610319575b600080fd5b3480156101f857600080fd5b506102356004803603602081101561020f57600080fd5b50357bffffffffffffffffffffffffffffffffffffffffffffffffffffffff1916610c82565b604080519115158252519081900360200190f35b34801561025557600080fd5b5061025e610cb6565b6040805160208082528351818301528351919283929083019185019080838360005b83811015610298578181015183820152602001610280565b50505050905090810190601f1680156102c55780820380516001836020036101000a031916815260200191505b509250505060405180910390f35b3480156102df57600080fd5b506102fd600480360360208110156102f657600080fd5b5035610d4d565b60408051600160a060020a039092168252519081900360200190f35b34801561032557600080fd5b506103526004803603604081101561033c57600080fd5b50600160a060020a038135169060200135610db2565b005b34801561036057600080fd5b50610369610ed6565b60408051918252519081900360200190f35b34801561038757600080fd5b506103526004803603606081101561039e57600080fd5b50600160a060020a03813581169160208101359091169060400135610edc565b3480156103ca57600080fd5b506103e8600480360360208110156103e157600080fd5b5035610f34565b60405180806020018b8152602001806020018a1515151581526020018915151515815260200188815260200187815260200186815260200185815260200184600160a060020a0316600160a060020a0316815260200183810383528d818151815260200191508051906020019080838360005b8381101561047357818101518382015260200161045b565b50505050905090810190601f1680156104a05780820380516001836020036101000a031916815260200191505b5083810382528b5181528b516020918201918d019080838360005b838110156104d35781810151838201526020016104bb565b50505050905090810190601f1680156105005780820380516001836020036101000a031916815260200191505b509c5050505050505050505050505060405180910390f35b34801561052457600080fd5b506103696004803603604081101561053b57600080fd5b50600160a060020a0381351690602001356110c4565b34801561055d57600080fd5b506103526004803603604081101561057457600080fd5b5080359060200135611146565b34801561058d57600080fd5b50610352600480360360608110156105a457600080fd5b50600160a060020a038135811691602081013590911690604001356113be565b3480156105d057600080fd5b50610352600480360360208110156105e757600080fd5b50356113d9565b3480156105fa57600080fd5b506103696004803603602081101561061157600080fd5b503561178b565b34801561062457600080fd5b506103526004803603602081101561063b57600080fd5b50356117f4565b34801561064e57600080fd5b506102fd6004803603602081101561066557600080fd5b503561188e565b34801561067857600080fd5b506103696004803603602081101561068f57600080fd5b5035600160a060020a03166118eb565b610352600480360360208110156106b557600080fd5b5035611956565b3480156106c857600080fd5b506106ef600480360360208110156106df57600080fd5b5035600160a060020a0316611e60565b60408051602080825283518183015283519192839290830191858101910280838360005b8381101561072b578181015183820152602001610713565b505050509050019250505060405180910390f35b34801561074b57600080fd5b506103526004803603602081101561076257600080fd5b5035611ec1565b34801561077557600080fd5b506103696004803603604081101561078c57600080fd5b8101906020810181356401000000008111156107a757600080fd5b8201836020820111156107b957600080fd5b803590602001918460018302840111640100000000831117156107db57600080fd5b91908080601f016020809104026020016040519081016040528093929190818152602001838380828437600092019190915250929594936020810193503591505064010000000081111561082e57600080fd5b82018360208201111561084057600080fd5b8035906020019184600183028401116401000000008311171561086257600080fd5b91908080601f0160208091040260200160405190810160405280939291908181526020018383808284376000920191909152509295506120e4945050505050565b3480156108af57600080fd5b506102fd612413565b3480156108c457600080fd5b5061025e612422565b3480156108d957600080fd5b50610352600480360360408110156108f057600080fd5b50600160a060020a0381351690602001351515612483565b34801561091457600080fd5b5061093b6004803603602081101561092b57600080fd5b5035600160a060020a0316612552565b6040518080602001838152602001828103825284818151815260200191508051906020019080838360005b8381101561097e578181015183820152602001610966565b50505050905090810190601f1680156109ab5780820380516001836020036101000a031916815260200191505b50935050505060405180910390f35b3480156109c657600080fd5b50610352600480360360408110156109dd57600080fd5b50600160a060020a03813516906020013561188a565b3480156109ff57600080fd5b5061035260048036036080811015610a1657600080fd5b600160a060020a03823581169260208101359091169160408201359190810190608081016060820135640100000000811115610a5157600080fd5b820183602082011115610a6357600080fd5b80359060200191846001830284011164010000000083111715610a8557600080fd5b91908080601f0160208091040260200160405190810160405280939291908181526020018383808284376000920191909152509295506125f9945050505050565b348015610ad257600080fd5b5061035260048036036020811015610ae957600080fd5b5035612654565b348015610afc57600080fd5b5061025e60048036036020811015610b1357600080fd5b5035612845565b348015610b2657600080fd5b50610369612923565b348015610b3b57600080fd5b50610352600480360360c0811015610b5257600080fd5b5080359060208101359060408101359060608101359060808101359060a00135612929565b348015610b8357600080fd5b5061023560048036036040811015610b9a57600080fd5b50600160a060020a0381358116916020013516612be2565b348015610bbe57600080fd5b5061035260048036036020811015610bd557600080fd5b810190602081018135640100000000811115610bf057600080fd5b820183602082011115610c0257600080fd5b80359060200191846001830284011164010000000083111715610c2457600080fd5b91908080601f016020809104026020016040519081016040528093929190818152602001838380828437600092019190915250929550612c10945050505050565b61035260048036036020811015610c7b57600080fd5b5035612c30565b7bffffffffffffffffffffffffffffffffffffffffffffffffffffffff191660009081526020819052604090205460ff1690565b60098054604080516020601f6002600019610100600188161502019095169490940493840181900481028201810190925282815260609390929091830182828015610d425780601f10610d1757610100808354040283529160200191610d42565b820191906000526020600020905b815481529060010190602001808311610d2557829003601f168201915b505050505090505b90565b6000610d5882613172565b610d965760405160e560020a62461bcd02815260040180806020018281038252602c815260200180613d77602c913960400191505060405180910390fd5b50600090815260026020526040902054600160a060020a031690565b6000610dbd8261188e565b905080600160a060020a031683600160a060020a03161415610e135760405160e560020a62461bcd028152600401808060200182810382526021815260200180613ef06021913960400191505060405180910390fd5b33600160a060020a0382161480610e2f5750610e2f8133612be2565b610e6d5760405160e560020a62461bcd028152600401808060200182810382526038815260200180613c1b6038913960400191505060405180910390fd5b600082815260026020526040808220805473ffffffffffffffffffffffffffffffffffffffff1916600160a060020a0387811691821790925591518593918516917f8c5be1e5ebec7d5bd14f71427d1e84f3dd0314c0f7b2291e5b200ac8c7c3b92591a4505050565b60075490565b610ee6338261318f565b610f245760405160e560020a62461bcd028152600401808060200182810382526031815260200180613f846031913960400191505060405180910390fd5b610f2f838383613236565b505050565b600f8181548110610f4157fe5b60009182526020918290206009919091020180546040805160026001841615610100026000190190931692909204601f810185900485028301850190915280825291935091839190830182828015610fda5780601f10610faf57610100808354040283529160200191610fda565b820191906000526020600020905b815481529060010190602001808311610fbd57829003601f168201915b505050505090806001015490806002018054600181600116156101000203166002900480601f01602080910402602001604051908101604052809291908181526020018280546001816001161561010002031660029004801561107e5780601f106110535761010080835404028352916020019161107e565b820191906000526020600020905b81548152906001019060200180831161106157829003601f168201915b5050505060038301546004840154600585015460068601546007870154600890970154959660ff80861697610100909604169550929391929091600160a060020a03168a565b60006110cf836118eb565b821061110f5760405160e560020a62461bcd02815260040180806020018281038252602b815260200180613a15602b913960400191505060405180910390fd5b600160a060020a038316600090815260056020526040902080548390811061113357fe5b9060005260206000200154905092915050565b30600160a060020a0316636352211e836040518263ffffffff1660e060020a0281526004018082815260200191505060206040518083038186803b15801561118d57600080fd5b505afa1580156111a1573d6000803e3d6000fd5b505050506040513d60208110156111b757600080fd5b5051600160a060020a031633146112025760405160e560020a62461bcd028152600401808060200182810382526045815260200180613f3f6045913960600191505060405180910390fd5b600f600183038154811061121257fe5b6000918252602090912060099091020160080154600160a060020a0316331461126f5760405160e560020a62461bcd028152600401808060200182810382526046815260200180613e416046913960600191505060405180910390fd5b600f600183038154811061127f57fe5b600091825260209091206003600990920201015460ff16156112eb576040805160e560020a62461bcd02815260206004820152601860248201527f4974656d20697320616c7265616479206f6e2073616c65210000000000000000604482015290519081900360640190fd5b6001600f60018403815481106112fd57fe5b906000526020600020906009020160030160006101000a81548160ff02191690831515021790555080600f600184038154811061133657fe5b9060005260206000209060090201600401819055506113553083610db2565b604080513360208201526000818301526060810183905260808082526007908201527f4f6e2053616c650000000000000000000000000000000000000000000000000060a082015290518391600080516020613ba0833981519152919081900360c00190a25050565b610f2f838383604051806020016040528060008152506125f9565b30600160a060020a0316636352211e826040518263ffffffff1660e060020a0281526004018082815260200191505060206040518083038186803b15801561142057600080fd5b505afa158015611434573d6000803e3d6000fd5b505050506040513d602081101561144a57600080fd5b5051600160a060020a03163314156114965760405160e560020a62461bcd028152600401808060200182810382526040815260200180613ca66040913960400191505060405180910390fd5b600f60018203815481106114a657fe5b6000918252602090912060099091020160080154600160a060020a031633146115035760405160e560020a62461bcd028152600401808060200182810382526044815260200180613dd46044913960600191505060405180910390fd5b42600f600183038154811061151457fe5b906000526020600020906009020160060154106115655760405160e560020a62461bcd028152600401808060200182810382526035815260200180613fb56035913960400191505060405180910390fd5b6000600f600183038154811061157757fe5b906000526020600020906009020160030160016101000a81548160ff0219169083151502179055506000600f60018303815481106115b157fe5b9060005260206000209060090201600501819055506000600f60018303815481106115d857fe5b9060005260206000209060090201600701819055506000600f60018303815481106115ff57fe5b906000526020600020906009020160060181905550600030600160a060020a0316636352211e836040518263ffffffff1660e060020a0281526004018082815260200191505060206040518083038186803b15801561165d57600080fd5b505afa158015611671573d6000803e3d6000fd5b505050506040513d602081101561168757600080fd5b5051600f805491925030916342842e0e91849160001987019081106116a857fe5b600091825260208220600860099092020101546040805160e060020a63ffffffff8716028152600160a060020a039485166004820152939091166024840152604483018790525160648084019382900301818387803b15801561170a57600080fd5b505af115801561171e573d6000803e3d6000fd5b5050604080513360208201526000818301819052606082015260808082526014908201527f52656e746564206974656d2072657475726e656400000000000000000000000060a08201529051859350600080516020613ba083398151915292509081900360c00190a25050565b6000611795610ed6565b82106117d55760405160e560020a62461bcd02815260040180806020018281038252602c815260200180614016602c913960400191505060405180910390fd5b600782815481106117e257fe5b90600052602060002001549050919050565b336000908152600d60205260409020600101548111156118485760405160e560020a62461bcd0281526004018080602001828103825260368152602001806139df6036913960400191505060405180910390fd5b336000818152600d6020526040808220600101805485900390555183156108fc0291849190818181858888f1935050505015801561188a573d6000803e3d6000fd5b5050565b600081815260016020526040812054600160a060020a0316806118e55760405160e560020a62461bcd028152600401808060200182810382526029815260200180613c7d6029913960400191505060405180910390fd5b92915050565b6000600160a060020a0382166119355760405160e560020a62461bcd02815260040180806020018281038252602a815260200180613c53602a913960400191505060405180910390fd5b600160a060020a03821660009081526003602052604090206118e590613255565b30600160a060020a0316636352211e826040518263ffffffff1660e060020a0281526004018082815260200191505060206040518083038186803b15801561199d57600080fd5b505afa1580156119b1573d6000803e3d6000fd5b505050506040513d60208110156119c757600080fd5b5051600160a060020a0316331415611a29576040805160e560020a62461bcd02815260206004820152601e60248201527f596f752063616e6e6f742072656e7420796f7572206f776e206974656d210000604482015290519081900360640190fd5b600f6001820381548110611a3957fe5b600091825260209091206003600990920201015460ff610100909104161515600114611a995760405160e560020a62461bcd02815260040180806020018281038252602e815260200180613f11602e913960400191505060405180910390fd5b34600f6001830381548110611aaa57fe5b9060005260206000209060090201600501541115611afc5760405160e560020a62461bcd028152600401808060200182810382526031815260200180613da36031913960400191505060405180910390fd5b30600160a060020a031630600160a060020a031663081812fc836040518263ffffffff1660e060020a0281526004018082815260200191505060206040518083038186803b158015611b4d57600080fd5b505afa158015611b61573d6000803e3d6000fd5b505050506040513d6020811015611b7757600080fd5b5051600160a060020a031614611bc15760405160e560020a62461bcd02815260040180806020018281038252603a8152602001806139a5603a913960400191505060405180910390fd5b6000600f6001830381548110611bd357fe5b906000526020600020906009020160030160016101000a81548160ff0219169083151502179055506000600f6001830381548110611c0d57fe5b60009182526020822060099190910201600301805460ff191692151592909217909155600f80546000198401908110611c4257fe5b9060005260206000209060090201600401819055506000600f6001830381548110611c6957fe5b906000526020600020906009020160050181905550600f6001820381548110611c8e57fe5b9060005260206000209060090201600701544201600f6001830381548110611cb257fe5b906000526020600020906009020160060181905550600030600160a060020a0316636352211e836040518263ffffffff1660e060020a0281526004018082815260200191505060206040518083038186803b158015611d1057600080fd5b505afa158015611d24573d6000803e3d6000fd5b505050506040513d6020811015611d3a57600080fd5b5051604080517f42842e0e000000000000000000000000000000000000000000000000000000008152600160a060020a038316600482015233602482015260448101859052905191925030916342842e0e9160648082019260009290919082900301818387803b158015611dad57600080fd5b505af1158015611dc1573d6000803e3d6000fd5b505050600160a060020a0382166000908152600d6020526040902060010180543401905550611df03083610db2565b60408051600160a060020a038316602082015233818301523460608201526080808252600a908201527f52656e746564206f75740000000000000000000000000000000000000000000060a082015290518391600080516020613ba0833981519152919081900360c00190a25050565b6060611e6b82613259565b805480602002602001604051908101604052809291908181526020018280548015611eb557602002820191906000526020600020905b815481526020019060010190808311611ea1575b50505050509050919050565b600f6001820381548110611ed157fe5b600091825260209091206003600990920201015460ff610100909104161515600114611f315760405160e560020a62461bcd028152600401808060200182810382526032815260200180613a956032913960400191505060405180910390fd5b30600160a060020a0316636352211e826040518263ffffffff1660e060020a0281526004018082815260200191505060206040518083038186803b158015611f7857600080fd5b505afa158015611f8c573d6000803e3d6000fd5b505050506040513d6020811015611fa257600080fd5b5051600160a060020a03163314611fed5760405160e560020a62461bcd02815260040180806020018281038252604a815260200180613d2d604a913960600191505060405180910390fd5b6000600f6001830381548110611fff57fe5b906000526020600020906009020160030160016101000a81548160ff0219169083151502179055506000600f600183038154811061203957fe5b9060005260206000209060090201600501819055506000600f600183038154811061206057fe5b600091825260208083206007600990930201919091019290925560408051339381019390935282810182905260608301919091526080808352600e908301527f52656e742043616e63656c6c656400000000000000000000000000000000000060a0830152518291600080516020613ba0833981519152919081900360c00190a250565b600c8054600101908190556000818152600e602052604081205490919060ff16156121435760405160e560020a62461bcd02815260040180806020018281038252602c815260200180613fea602c913960400191505060405180910390fd5b60115430600160a060020a03166318160ddd6040518163ffffffff1660e060020a02815260040160206040518083038186803b15801561218257600080fd5b505afa158015612196573d6000803e3d6000fd5b505050506040513d60208110156121ac57600080fd5b5051106121ed5760405160e560020a62461bcd02815260040180806020018281038252604a81526020018061406b604a913960600191505060405180910390fd5b601054600160a060020a031633146122395760405160e560020a62461bcd028152600401808060200182810382526023815260200180613a726023913960400191505060405180910390fd5b604080516101408101825285815260208082018490529181018590526000606082018190526080820181905260a0820181905260c0820181905260e08201819052610100820181905233610120830152600f8054600181018083559190925282518051919460099093027f8d1108e10bcb7c27dddfc02ed9d693a074039d026cf4ea4240b40f7d581ac80201926122d5928492909101906138ec565b506020828101516001830155604083015180516122f892600285019201906138ec565b506060820151600382018054608085015160ff199091169215159290921761ff001916610100921515830217905560a0830151600483015560c0830151600583015560e083015160068301558201516007820155610120909101516008909101805473ffffffffffffffffffffffffffffffffffffffff1916600160a060020a039092169190911790555061238d3382613273565b6000818152600e60209081526040808320805460ff1916600117905580519182018390523382820152606082019290925260808082526007908201527f636c61696d65640000000000000000000000000000000000000000000000000060a082015290518291600080516020613ba0833981519152919081900360c00190a29392505050565b601054600160a060020a031681565b600a8054604080516020601f6002600019610100600188161502019095169490940493840181900481028201810190925282815260609390929091830182828015610d425780601f10610d1757610100808354040283529160200191610d42565b600160a060020a0382163314156124e4576040805160e560020a62461bcd02815260206004820152601960248201527f4552433732313a20617070726f766520746f2063616c6c657200000000000000604482015290519081900360640190fd5b336000818152600460209081526040808320600160a060020a03871680855290835292819020805460ff1916861515908117909155815190815290519293927f17307eab39ab6107e8899845ad3d59bd9653f200f220920489ca2b5937696c31929181900390910190a35050565b600d6020908152600091825260409182902080548351601f600260001961010060018616150201909316929092049182018490048402810184019094528084529092918391908301828280156125e95780601f106125be576101008083540402835291602001916125e9565b820191906000526020600020905b8154815290600101906020018083116125cc57829003601f168201915b5050505050908060010154905082565b612604848484610edc565b61261084848484613290565b61264e5760405160e560020a62461bcd028152600401808060200182810382526032815260200180613a406032913960400191505060405180910390fd5b50505050565b600f600182038154811061266457fe5b600091825260209091206003600990920201015460ff1615156001146126be5760405160e560020a62461bcd02815260040180806020018281038252602e815260200180613bed602e913960400191505060405180910390fd5b30600160a060020a0316636352211e826040518263ffffffff1660e060020a0281526004018082815260200191505060206040518083038186803b15801561270557600080fd5b505afa158015612719573d6000803e3d6000fd5b505050506040513d602081101561272f57600080fd5b5051600160a060020a0316331461277a5760405160e560020a62461bcd028152600401808060200182810382526047815260200180613ce66047913960600191505060405180910390fd5b6000600f600183038154811061278c57fe5b60009182526020822060099190910201600301805460ff191692151592909217909155600f805460001984019081106127c157fe5b600091825260208083206004600990930201919091019290925560408051339381019390935282810182905260608301919091526080808352600e908301527f53616c652043616e63656c6c656400000000000000000000000000000000000060a0830152518291600080516020613ba0833981519152919081900360c00190a250565b606061285082613172565b61288e5760405160e560020a62461bcd02815260040180806020018281038252602f815260200180613e87602f913960400191505060405180910390fd5b6000828152600b602090815260409182902080548351601f600260001961010060018616150201909316929092049182018490048402810184019094528084529091830182828015611eb55780601f106128f657610100808354040283529160200191611eb5565b820191906000526020600020905b8154815290600101906020018083116129045750939695505050505050565b60115481565b30600160a060020a0316636352211e876040518263ffffffff1660e060020a0281526004018082815260200191505060206040518083038186803b15801561297057600080fd5b505afa158015612984573d6000803e3d6000fd5b505050506040513d602081101561299a57600080fd5b5051600160a060020a031633146129e55760405160e560020a62461bcd028152600401808060200182810382526046815260200180613ac76046913960600191505060405180910390fd5b600f60018703815481106129f557fe5b6000918252602090912060099091020160080154600160a060020a03163314612a525760405160e560020a62461bcd028152600401808060200182810382526043815260200180613b316043913960600191505060405180910390fd5b600f6001870381548110612a6257fe5b6000918252602090912060099091020160030154610100900460ff1615612ad3576040805160e560020a62461bcd02815260206004820152601860248201527f4974656d20697320616c7265616479206f6e2072656e74210000000000000000604482015290519081900360640190fd5b6001600f6001880381548110612ae557fe5b906000526020600020906009020160030160016101000a81548160ff02191690831515021790555084600f6001880381548110612b1e57fe5b90600052602060002090600902016005018190555080603c8302610e108502620151808702010101600f6001880381548110612b5657fe5b906000526020600020906009020160070181905550612b753087610db2565b604080513360208201526000818301526060810187905260808082526007908201527f4f6e2052656e740000000000000000000000000000000000000000000000000060a082015290518791600080516020613ba0833981519152919081900360c00190a2505050505050565b600160a060020a03918216600090815260046020908152604080832093909416825291909152205460ff1690565b336000908152600d60209081526040909120825161188a928401906138ec565b30600160a060020a0316636352211e826040518263ffffffff1660e060020a0281526004018082815260200191505060206040518083038186803b158015612c7757600080fd5b505afa158015612c8b573d6000803e3d6000fd5b505050506040513d6020811015612ca157600080fd5b5051600160a060020a0316331415612d03576040805160e560020a62461bcd02815260206004820152601d60248201527f596f752063616e6e6f742062757920796f7572206f776e206974656d21000000604482015290519081900360640190fd5b600f6001820381548110612d1357fe5b600091825260209091206003600990920201015460ff161515600114612d6d5760405160e560020a62461bcd0281526004018080602001828103825260298152602001806140426029913960400191505060405180910390fd5b34600f6001830381548110612d7e57fe5b9060005260206000209060090201600401541115612dd05760405160e560020a62461bcd02815260040180806020018281038252602d815260200180613bc0602d913960400191505060405180910390fd5b30600160a060020a031630600160a060020a031663081812fc836040518263ffffffff1660e060020a0281526004018082815260200191505060206040518083038186803b158015612e2157600080fd5b505afa158015612e35573d6000803e3d6000fd5b505050506040513d6020811015612e4b57600080fd5b5051600160a060020a031614612e955760405160e560020a62461bcd02815260040180806020018281038252603a815260200180613eb6603a913960400191505060405180910390fd5b6000600f6001830381548110612ea757fe5b60009182526020822060099190910201600301805460ff191692151592909217909155600f80546000198401908110612edc57fe5b906000526020600020906009020160030160016101000a81548160ff0219169083151502179055506000600f6001830381548110612f1657fe5b9060005260206000209060090201600401819055506000600f6001830381548110612f3d57fe5b9060005260206000209060090201600501819055506000600f6001830381548110612f6457fe5b9060005260206000209060090201600601819055506000600f6001830381548110612f8b57fe5b90600052602060002090600902016007018190555033600f6001830381548110612fb157fe5b906000526020600020906009020160080160006101000a815481600160a060020a030219169083600160a060020a03160217905550600030600160a060020a0316636352211e836040518263ffffffff1660e060020a0281526004018082815260200191505060206040518083038186803b15801561302f57600080fd5b505afa158015613043573d6000803e3d6000fd5b505050506040513d602081101561305957600080fd5b5051604080517f42842e0e000000000000000000000000000000000000000000000000000000008152600160a060020a038316600482015233602482015260448101859052905191925030916342842e0e9160648082019260009290919082900301818387803b1580156130cc57600080fd5b505af11580156130e0573d6000803e3d6000fd5b505050600160a060020a0382166000818152600d60209081526040918290206001018054349081019091558251918201939093523381830152606081019290925260808083526004908301527f536f6c640000000000000000000000000000000000000000000000000000000060a083015251849250600080516020613ba08339815191529181900360c00190a25050565b600090815260016020526040902054600160a060020a0316151590565b600061319a82613172565b6131d85760405160e560020a62461bcd02815260040180806020018281038252602c815260200180613b74602c913960400191505060405180910390fd5b60006131e38361188e565b905080600160a060020a031684600160a060020a0316148061321e575083600160a060020a031661321384610d4d565b600160a060020a0316145b8061322e575061322e8185612be2565b949350505050565b61324183838361340a565b61324b8382613561565b610f2f8282613656565b5490565b600160a060020a0316600090815260056020526040902090565b61327d8282613694565b6132878282613656565b61188a816137d8565b60006132a484600160a060020a031661381c565b6132b05750600161322e565b6040517f150b7a020000000000000000000000000000000000000000000000000000000081523360048201818152600160a060020a03888116602485015260448401879052608060648501908152865160848601528651600095928a169463150b7a029490938c938b938b939260a4019060208501908083838e5b8381101561334357818101518382015260200161332b565b50505050905090810190601f1680156133705780820380516001836020036101000a031916815260200191505b5095505050505050602060405180830381600087803b15801561339257600080fd5b505af11580156133a6573d6000803e3d6000fd5b505050506040513d60208110156133bc57600080fd5b50517bffffffffffffffffffffffffffffffffffffffffffffffffffffffff19167f150b7a020000000000000000000000000000000000000000000000000000000014915050949350505050565b82600160a060020a031661341d8261188e565b600160a060020a0316146134655760405160e560020a62461bcd028152600401808060200182810382526029815260200180613e186029913960400191505060405180910390fd5b600160a060020a0382166134ad5760405160e560020a62461bcd028152600401808060200182810382526024815260200180613b0d6024913960400191505060405180910390fd5b6134b681613822565b600160a060020a03831660009081526003602052604090206134d79061386c565b600160a060020a03821660009081526003602052604090206134f890613883565b600081815260016020526040808220805473ffffffffffffffffffffffffffffffffffffffff1916600160a060020a0386811691821790925591518493918716917fddf252ad1be2c89b69c2b068fc378daa952ba7f163c4a11628f55a4df523b3ef91a4505050565b600160a060020a03821660009081526005602052604081205461358b90600163ffffffff61388c16565b60008381526006602052604090205490915080821461362657600160a060020a03841660009081526005602052604081208054849081106135c857fe5b90600052602060002001549050806005600087600160a060020a0316600160a060020a03168152602001908152602001600020838154811061360657fe5b600091825260208083209091019290925591825260069052604090208190555b600160a060020a038416600090815260056020526040902080549061364f90600019830161396a565b5050505050565b600160a060020a0390911660009081526005602081815260408084208054868652600684529185208290559282526001810183559183529091200155565b600160a060020a0382166136f2576040805160e560020a62461bcd02815260206004820181905260248201527f4552433732313a206d696e7420746f20746865207a65726f2061646472657373604482015290519081900360640190fd5b6136fb81613172565b15613750576040805160e560020a62461bcd02815260206004820152601c60248201527f4552433732313a20746f6b656e20616c7265616479206d696e74656400000000604482015290519081900360640190fd5b6000818152600160209081526040808320805473ffffffffffffffffffffffffffffffffffffffff1916600160a060020a03871690811790915583526003909152902061379c90613883565b6040518190600160a060020a038416906000907fddf252ad1be2c89b69c2b068fc378daa952ba7f163c4a11628f55a4df523b3ef908290a45050565b600780546000838152600860205260408120829055600182018355919091527fa66cc928b5edb82af9bd49922954155ab7b0942694bea4ce44661d9a8736c6880155565b3b151590565b600081815260026020526040902054600160a060020a031615613869576000818152600260205260409020805473ffffffffffffffffffffffffffffffffffffffff191690555b50565b805461387f90600163ffffffff61388c16565b9055565b80546001019055565b6000828211156138e6576040805160e560020a62461bcd02815260206004820152601e60248201527f536166654d6174683a207375627472616374696f6e206f766572666c6f770000604482015290519081900360640190fd5b50900390565b828054600181600116156101000203166002900490600052602060002090601f016020900481019282601f1061392d57805160ff191683800117855561395a565b8280016001018555821561395a579182015b8281111561395a57825182559160200191906001019061393f565b5061396692915061398a565b5090565b815481835581811115610f2f57600083815260209020610f2f9181019083015b610d4a91905b80821115613966576000815560010161399056fe52656e74657220646964206e6f7420676976652074686520616c6c6f77616e636520666f7220757320746f2072656e742074686973206974656d596f7520646f206e6f74206861766520656e6f7567682062616c616e636520746f207769746864726177207468697320616d6f756e74455243373231456e756d657261626c653a206f776e657220696e646578206f7574206f6620626f756e64734552433732313a207472616e7366657220746f206e6f6e20455243373231526563656976657220696d706c656d656e7465724f6e6c79206f776e6572206f662074686520636f6e74726163742063616e206d696e744974656d2073686f756c6420626520707574206f6e2072656e742066697273742c20746f2062652063616e63656c6c65642e596f752063616e6e6f74207075742074686973206974656d206f6e2072656e742c206265636175736520796f7520617265206e6f7420746865206f776e6572206f662069742e4552433732313a207472616e7366657220746f20746865207a65726f2061646472657373596f752063616e6e6f742072656e742074686973206974656d206f75742c206265636175736520796f7520617265206e6f74206974732061637475616c206f776e65724552433732313a206f70657261746f7220717565727920666f72206e6f6e6578697374656e7420746f6b656ee08c5ec3e4eec30f43f959991338b87e61cc24376dfe3fc0e156daee7a4f7cf854686520616d6f756e7420796f752073656e742c206973206c657373207468616e2073656c6c2070726963652e4974656d2073686f756c64206265206f6e2073616c652066697273742c20746f2062652063616e63656c6c65642e4552433732313a20617070726f76652063616c6c6572206973206e6f74206f776e6572206e6f7220617070726f76656420666f7220616c6c4552433732313a2062616c616e636520717565727920666f7220746865207a65726f20616464726573734552433732313a206f776e657220717565727920666f72206e6f6e6578697374656e7420746f6b656e596f752063616e6e6f742072657475726e2072656e746564206974656d2c206265636175736520796f752061726520616c726561647920697473206f776e6572596f752063616e6e6f742063616e63656c207468652073616c65206f662074686973206974656d2c206265636175736520796f7520617265206e6f7420746865206f776e65722e596f752063616e6e6f742063616e63656c207468652072656e74696e67206f662074686973206974656d2c206265636175736520796f7520617265206e6f7420746865206f776e65722e4552433732313a20617070726f76656420717565727920666f72206e6f6e6578697374656e7420746f6b656e54686520616d6f756e7420796f752073656e742c206973206c657373207468616e207468652072656e742070726963652e596f752063616e6e6f742072657475726e2072656e746564206974656d2c206265636175736520796f7520617265206e6f74206974732061637475616c206f776e65722e4552433732313a207472616e73666572206f6620746f6b656e2074686174206973206e6f74206f776e596f752063616e6e6f74207075742074686973206974656d206f6e2073616c652c206265636175736520796f7520617265206e6f74206974732061637475616c206f776e65724552433732314d657461646174613a2055524920717565727920666f72206e6f6e6578697374656e7420746f6b656e53656c6c657220646964206e6f7420676976652074686520616c6c6f77616e636520666f7220757320746f2073656c6c2074686973206974656d4552433732313a20617070726f76616c20746f2063757272656e74206f776e65724974656d2073686f756c64206265206f6e2072656e7420666f7220796f7520746f2072656e74206974206f75742e596f752063616e6e6f74207075742074686973206974656d206f6e2073616c652c206265636175736520796f7520617265206e6f7420746865206f776e6572206f662069744552433732313a207472616e736665722063616c6c6572206973206e6f74206f776e6572206e6f7220617070726f766564596f752063616e206e6f742072657475726e206974656d2077686963682072656e742074696d6520686173206e6f7420656e6465644974656d2069642073686f756c6420626520756e697175652c20666f7220796f7520746f206d696e74206974455243373231456e756d657261626c653a20676c6f62616c20696e646578206f7574206f6620626f756e64734974656d2073686f756c64206265206f6e2073616c6520666f7220796f7520746f206275792069742e596f752063616e6e6f74206d696e7420616e79206d6f7265206974656d2073696e636520796f7520616c7265616479207265616368656420746865206d6178696d756d20737570706c79a265627a7a723158205df26eb00daab2b3de70de65fa6c2e3aa5632608cfd91355acaff29ce50bae0364736f6c634300050c0032",
  "source": "pragma solidity ^0.5.12;\r\n\r\nimport \"../dependencies/ERC721Full.sol\";\r\n// import \"@openzeppelin/contracts/token/ERC721/ERC721Full.sol\";\r\n// import \"https://github.com/OpenZeppelin/openzeppelin-contracts/blob/v3.0.0-beta.0/contracts/token/ERC721/ERC721Full.sol\";\r\n\r\ncontract NFTRental is ERC721Full {\r\n    uint private _tokenIds = 0;\r\n\r\n    struct nftData {\r\n        string name;\r\n        uint256 id;\r\n        string imageUrl;\r\n        bool isOnSale;\r\n        bool isOnRent;\r\n        uint256 sellPrice;\r\n        uint256 rentPrice;\r\n        uint256 rentEndTime;\r\n        uint256 rentSeconds;\r\n        address actualOwner;\r\n    }\r\n\r\n    struct userData {\r\n        string username;\r\n        uint256 userBalance;\r\n    }\r\n\r\n    event nftTransaction(\r\n        uint256 indexed id,\r\n        string transactionType,\r\n        address fromAddress,\r\n        address toAddress,\r\n        uint256 value\r\n    );\r\n\r\n    mapping(address => userData) public users;\r\n    mapping(uint256 => bool) exists;\r\n    nftData[] public nfts;\r\n\r\n    address public owner;\r\n    uint256 public maxSupply;\r\n    \r\n    // Constants\r\n    uint constant DAY_IN_SECONDS = 86400;\r\n\r\n    uint constant HOUR_IN_SECONDS = 3600;\r\n    uint constant MINUTE_IN_SECONDS = 60;\r\n    \r\n    // mapping (address => uint256) nftsPostedByUser;      // map from lenders to the tokens they have posted (aka available for renting)\r\n    // mapping (address => uint256[4]) borrowerDeadlines;  // map from borrowers to the deadlines of their rentals (uint256[4] is a timestamp)\r\n    \r\n    constructor() public ERC721Full(\"NFTRental\", \"NFTR\") {\r\n        owner = msg.sender;\r\n        maxSupply = 1000;\r\n    }\r\n    \r\n    function setUsername(string memory _username) public {\r\n        users[msg.sender].username = _username;\r\n    }\r\n\r\n    function tokensOfOwner(address _owner) public view returns (uint256[] memory)\r\n    {\r\n        return _tokensOfOwner(_owner);\r\n    }\r\n\r\n    function putOnSale(uint256 _tokenId, uint256 _sellPrice) public {\r\n        require(msg.sender == this.ownerOf(_tokenId), \"You cannot put this item on sale, because you are not the owner of it\");\r\n        require(msg.sender == nfts[_tokenId - 1].actualOwner, \"You cannot put this item on sale, because you are not its actual owner\");\r\n        require(nfts[_tokenId - 1].isOnSale == false, \"Item is already on sale!\");\r\n        \r\n        nfts[_tokenId - 1].isOnSale = true;\r\n        nfts[_tokenId - 1].sellPrice = _sellPrice; \r\n        approve(address(this), _tokenId);\r\n\r\n        emit nftTransaction(\r\n            _tokenId,\r\n            \"On Sale\",\r\n            msg.sender,\r\n            address(0x0),\r\n            _sellPrice\r\n        ); \r\n    }\r\n\r\n    function cancelSale(uint256 _tokenId) public {\r\n        require(nfts[_tokenId - 1].isOnSale == true, \"Item should be on sale first, to be cancelled.\");\r\n        require(msg.sender == this.ownerOf(_tokenId), \"You cannot cancel the sale of this item, because you are not the owner.\");\r\n        \r\n        nfts[_tokenId - 1].isOnSale = false; \r\n        nfts[_tokenId - 1].sellPrice = 0; \r\n\r\n        emit nftTransaction(\r\n            _tokenId,\r\n            \"Sale Cancelled\",\r\n            msg.sender,\r\n            address(0x0),\r\n            0\r\n        ); \r\n    }\r\n\r\n    function buyFromSale(uint256 _tokenId) public payable {\r\n       \r\n        require(msg.sender != this.ownerOf(_tokenId), \"You cannot buy your own item!\");\r\n        \r\n        require(nfts[_tokenId - 1].isOnSale == true, \"Item should be on sale for you to buy it.\");\r\n       \r\n        require (nfts[_tokenId - 1].sellPrice <= msg.value, \"The amount you sent, is less than sell price.\");\r\n       \r\n        require(this.getApproved(_tokenId) == address(this), \"Seller did not give the allowance for us to sell this item\");\r\n        \r\n        nfts[_tokenId - 1].isOnSale = false;\r\n        nfts[_tokenId - 1].isOnRent = false;\r\n        nfts[_tokenId - 1].sellPrice = 0;\r\n        nfts[_tokenId - 1].rentPrice = 0;\r\n        nfts[_tokenId - 1].rentEndTime = 0;\r\n        nfts[_tokenId - 1].rentSeconds = 0;\r\n        nfts[_tokenId - 1].actualOwner = msg.sender;\r\n        \r\n        address sellerAddress = this.ownerOf(_tokenId);\r\n        this.safeTransferFrom(sellerAddress, msg.sender, _tokenId);\r\n\r\n        users[sellerAddress].userBalance += msg.value; \r\n\r\n        emit nftTransaction(\r\n            _tokenId,\r\n            \"Sold\",\r\n            sellerAddress,\r\n            msg.sender,\r\n            msg.value\r\n        );\r\n    }\r\n    \r\n    function putOnRent(uint256 _tokenId, uint256 _rentPrice, uint256 _days, uint256 _hours, uint256 _minutes, uint256 _seconds) public {\r\n        require(msg.sender == this.ownerOf(_tokenId), \"You cannot put this item on rent, because you are not the owner of it.\");\r\n        require(msg.sender == nfts[_tokenId - 1].actualOwner, \"You cannot rent this item out, because you are not its actual owner\");\r\n        require(nfts[_tokenId - 1].isOnRent == false, \"Item is already on rent!\");\r\n        \r\n        nfts[_tokenId - 1].isOnRent = true;\r\n        nfts[_tokenId - 1].rentPrice = _rentPrice;\r\n        nfts[_tokenId - 1].rentSeconds = _days * DAY_IN_SECONDS + _hours * HOUR_IN_SECONDS + _minutes * MINUTE_IN_SECONDS + _seconds;\r\n        approve(address(this), _tokenId);\r\n\r\n        emit nftTransaction(\r\n            _tokenId,\r\n            \"On Rent\",\r\n            msg.sender,\r\n            address(0x0),\r\n            _rentPrice\r\n        ); \r\n    }\r\n    \r\n    function cancelRent(uint256 _tokenId) public {\r\n        require(nfts[_tokenId - 1].isOnRent == true, \"Item should be put on rent first, to be cancelled.\");\r\n        require(msg.sender == this.ownerOf(_tokenId), \"You cannot cancel the renting of this item, because you are not the owner.\");\r\n        \r\n        nfts[_tokenId - 1].isOnRent = false;\r\n        nfts[_tokenId - 1].rentPrice = 0;\r\n        nfts[_tokenId - 1].rentSeconds = 0;\r\n        \r\n\r\n        emit nftTransaction(\r\n            _tokenId,\r\n            \"Rent Cancelled\",\r\n            msg.sender,\r\n            address(0x0),\r\n            0\r\n        ); \r\n    }\r\n    \r\n    function rent(uint256 _tokenId) public payable {\r\n        require(msg.sender != this.ownerOf(_tokenId), \"You cannot rent your own item!\");\r\n        \r\n        require(nfts[_tokenId - 1].isOnRent == true, \"Item should be on rent for you to rent it out.\");\r\n       \r\n        require (nfts[_tokenId - 1].rentPrice <= msg.value, \"The amount you sent, is less than the rent price.\");\r\n       \r\n        require(this.getApproved(_tokenId) == address(this), \"Renter did not give the allowance for us to rent this item\");\r\n        \r\n        nfts[_tokenId - 1].isOnRent = false;\r\n        nfts[_tokenId - 1].isOnSale = false; \r\n        nfts[_tokenId - 1].sellPrice = 0;\r\n        nfts[_tokenId - 1].rentPrice = 0;\r\n        nfts[_tokenId - 1].rentEndTime = now + nfts[_tokenId - 1].rentSeconds;\r\n        \r\n        address sellerAddress = this.ownerOf(_tokenId);\r\n        this.safeTransferFrom(sellerAddress, msg.sender, _tokenId);\r\n\r\n        users[sellerAddress].userBalance += msg.value; \r\n        approve(address(this), _tokenId);   // Allows current owner return item to actual owner\r\n\r\n        emit nftTransaction(\r\n            _tokenId,\r\n            \"Rented out\",\r\n            sellerAddress,\r\n            msg.sender,\r\n            msg.value\r\n        );\r\n    }\r\n    \r\n    function returnRented(uint256 _tokenId) public {\r\n        require(msg.sender != this.ownerOf(_tokenId), \"You cannot return rented item, because you are already its owner\");\r\n        require(msg.sender == nfts[_tokenId - 1].actualOwner, \"You cannot return rented item, because you are not its actual owner.\");\r\n        require(nfts[_tokenId - 1].rentEndTime < now, \"You can not return item which rent time has not ended\");\r\n        \r\n        nfts[_tokenId - 1].isOnRent = false;\r\n        nfts[_tokenId - 1].rentPrice = 0;\r\n        nfts[_tokenId - 1].rentSeconds = 0;\r\n        nfts[_tokenId - 1].rentEndTime = 0;\r\n        \r\n        address currentOwnerAddress = this.ownerOf(_tokenId);\r\n        this.safeTransferFrom(currentOwnerAddress, nfts[_tokenId - 1].actualOwner, _tokenId);\r\n\r\n        emit nftTransaction(\r\n            _tokenId,\r\n            \"Rented item returned\",\r\n            msg.sender,\r\n            address(0x0),\r\n            0\r\n        ); \r\n    }\r\n\r\n    function withdrawMoney(uint256 _amount) public {\r\n\r\n        require(users[msg.sender].userBalance >= _amount, \"You do not have enough balance to withdraw this amount\");\r\n\r\n        users[msg.sender].userBalance -= _amount;\r\n        msg.sender.transfer(_amount);\r\n        \r\n    }\r\n        \r\n    function mint(string memory _name, string memory _imageUrl) public returns (uint256) {\r\n        _tokenIds++;\r\n        uint256 newItemId = _tokenIds;\r\n        require(exists[newItemId] == false, \"Item id should be unique, for you to mint it\");\r\n        require(this.totalSupply() < maxSupply, \"You cannot mint any more item since you already reached the maximum supply\");\r\n        require(msg.sender == owner, \"Only owner of the contract can mint\");\r\n        \r\n        nfts.push(\r\n            nftData(\r\n                _name,\r\n                newItemId,\r\n                _imageUrl,\r\n                false,\r\n                false,\r\n                0,\r\n                0,\r\n                0,\r\n                0,\r\n                msg.sender\r\n            )\r\n        );\r\n        _mint(msg.sender, newItemId);\r\n        exists[newItemId] = true;\r\n        \r\n        emit nftTransaction(newItemId, \"claimed\", address(0x0), msg.sender, 0);\r\n       \r\n        return newItemId;\r\n    }\r\n    \r\n    function transfer(address from, uint256 nft) public {}\r\n    \r\n    // TODO: data structures:\r\n                // vault with posted NFTs\r\n                // keeping track of borrowers and their deadlines\r\n    // TODO: liquidate borrowers (checks that time is up) -- callable by lenders\r\n    // TODO: get remaining time of rentals (callable by lenders)\r\n    // TODO: post NFT for rental    DONE\r\n    // TODO: rent NFT               DONE\r\n    // TODO: detach rent and sell data from nftData\r\n}",
  "sourcePath": "/mnt/c/Programming Projects/Copenhagen University/BBD/nft-rental/truffle/contracts/NFTRental.sol",
  "compiler": {
    "name": "solc",
    "version": "0.5.12+commit.7709ece9.Emscripten.clang"
  },
  "schemaVersion": "3.0.1",
  "updatedAt": "2021-11-04T01:40:47.741Z",
  "devdoc": {
    "methods": {
      "approve(address,uint256)": {
        "details": "Approves another address to transfer the given token ID The zero address indicates there is no approved address. There can only be one approved address per token at a given time. Can only be called by the token owner or an approved operator.",
        "params": {
          "to": "address to be approved for the given token ID",
          "tokenId": "uint256 ID of the token to be approved"
        }
      },
      "balanceOf(address)": {
        "details": "Gets the balance of the specified address.",
        "params": {
          "owner": "address to query the balance of"
        },
        "return": "uint256 representing the amount owned by the passed address"
      },
      "getApproved(uint256)": {
        "details": "Gets the approved address for a token ID, or zero if no address set Reverts if the token ID does not exist.",
        "params": {
          "tokenId": "uint256 ID of the token to query the approval of"
        },
        "return": "address currently approved for the given token ID"
      },
      "isApprovedForAll(address,address)": {
        "details": "Tells whether an operator is approved by a given owner.",
        "params": {
          "operator": "operator address which you want to query the approval of",
          "owner": "owner address which you want to query the approval of"
        },
        "return": "bool whether the given operator is approved by the given owner"
      },
      "name()": {
        "details": "Gets the token name.",
        "return": "string representing the token name"
      },
      "ownerOf(uint256)": {
        "details": "Gets the owner of the specified token ID.",
        "params": {
          "tokenId": "uint256 ID of the token to query the owner of"
        },
        "return": "address currently marked as the owner of the given token ID"
      },
      "safeTransferFrom(address,address,uint256)": {
        "details": "Safely transfers the ownership of a given token ID to another address If the target address is a contract, it must implement `onERC721Received`, which is called upon a safe transfer, and return the magic value `bytes4(keccak256(\"onERC721Received(address,address,uint256,bytes)\"))`; otherwise, the transfer is reverted. Requires the msg.sender to be the owner, approved, or operator",
        "params": {
          "from": "current owner of the token",
          "to": "address to receive the ownership of the given token ID",
          "tokenId": "uint256 ID of the token to be transferred"
        }
      },
      "safeTransferFrom(address,address,uint256,bytes)": {
        "details": "Safely transfers the ownership of a given token ID to another address If the target address is a contract, it must implement `onERC721Received`, which is called upon a safe transfer, and return the magic value `bytes4(keccak256(\"onERC721Received(address,address,uint256,bytes)\"))`; otherwise, the transfer is reverted. Requires the msg.sender to be the owner, approved, or operator",
        "params": {
          "_data": "bytes data to send along with a safe transfer check",
          "from": "current owner of the token",
          "to": "address to receive the ownership of the given token ID",
          "tokenId": "uint256 ID of the token to be transferred"
        }
      },
      "setApprovalForAll(address,bool)": {
        "details": "Sets or unsets the approval of a given operator An operator is allowed to transfer all tokens of the sender on their behalf.",
        "params": {
          "approved": "representing the status of the approval to be set",
          "to": "operator address to set the approval"
        }
      },
      "supportsInterface(bytes4)": {
        "details": "See `IERC165.supportsInterface`.      * Time complexity O(1), guaranteed to always use less than 30 000 gas."
      },
      "symbol()": {
        "details": "Gets the token symbol.",
        "return": "string representing the token symbol"
      },
      "tokenByIndex(uint256)": {
        "details": "Gets the token ID at a given index of all the tokens in this contract Reverts if the index is greater or equal to the total number of tokens.",
        "params": {
          "index": "uint256 representing the index to be accessed of the tokens list"
        },
        "return": "uint256 token ID at the given index of the tokens list"
      },
      "tokenOfOwnerByIndex(address,uint256)": {
        "details": "Gets the token ID at a given index of the tokens list of the requested owner.",
        "params": {
          "index": "uint256 representing the index to be accessed of the requested tokens list",
          "owner": "address owning the tokens list to be accessed"
        },
        "return": "uint256 token ID at the given index of the tokens list owned by the requested address"
      },
      "tokenURI(uint256)": {
        "details": "Returns an URI for a given token ID. Throws if the token ID does not exist. May return an empty string.",
        "params": {
          "tokenId": "uint256 ID of the token to query"
        }
      },
      "totalSupply()": {
        "details": "Gets the total amount of tokens stored by the contract.",
        "return": "uint256 representing the total amount of tokens"
      },
      "transferFrom(address,address,uint256)": {
        "details": "Transfers the ownership of a given token ID to another address. Usage of this method is discouraged, use `safeTransferFrom` whenever possible. Requires the msg.sender to be the owner, approved, or operator.",
        "params": {
          "from": "current owner of the token",
          "to": "address to receive the ownership of the given token ID",
          "tokenId": "uint256 ID of the token to be transferred"
        }
      }
    }
  },
  "userdoc": {
    "methods": {}
  }
}