{
  "contractName": "NFTRental",
  "abi": [
    {
      "inputs": [],
      "stateMutability": "nonpayable",
      "type": "constructor"
    },
    {
      "anonymous": false,
      "inputs": [
        {
          "indexed": true,
          "internalType": "address",
          "name": "owner",
          "type": "address"
        },
        {
          "indexed": true,
          "internalType": "address",
          "name": "approved",
          "type": "address"
        },
        {
          "indexed": true,
          "internalType": "uint256",
          "name": "tokenId",
          "type": "uint256"
        }
      ],
      "name": "Approval",
      "type": "event"
    },
    {
      "anonymous": false,
      "inputs": [
        {
          "indexed": true,
          "internalType": "address",
          "name": "owner",
          "type": "address"
        },
        {
          "indexed": true,
          "internalType": "address",
          "name": "operator",
          "type": "address"
        },
        {
          "indexed": false,
          "internalType": "bool",
          "name": "approved",
          "type": "bool"
        }
      ],
      "name": "ApprovalForAll",
      "type": "event"
    },
    {
      "anonymous": false,
      "inputs": [
        {
          "indexed": true,
          "internalType": "address",
          "name": "previousOwner",
          "type": "address"
        },
        {
          "indexed": true,
          "internalType": "address",
          "name": "newOwner",
          "type": "address"
        }
      ],
      "name": "OwnershipTransferred",
      "type": "event"
    },
    {
      "anonymous": false,
      "inputs": [
        {
          "indexed": true,
          "internalType": "address",
          "name": "from",
          "type": "address"
        },
        {
          "indexed": true,
          "internalType": "address",
          "name": "to",
          "type": "address"
        },
        {
          "indexed": true,
          "internalType": "uint256",
          "name": "tokenId",
          "type": "uint256"
        }
      ],
      "name": "Transfer",
      "type": "event"
    },
    {
      "anonymous": false,
      "inputs": [
        {
          "indexed": true,
          "internalType": "uint256",
          "name": "id",
          "type": "uint256"
        },
        {
          "indexed": false,
          "internalType": "uint8",
          "name": "maxDurationInDays",
          "type": "uint8"
        },
        {
          "indexed": false,
          "internalType": "uint256",
          "name": "dailyPrice",
          "type": "uint256"
        },
        {
          "indexed": false,
          "internalType": "uint256",
          "name": "collateral",
          "type": "uint256"
        },
        {
          "indexed": false,
          "internalType": "uint256",
          "name": "rentEndTime",
          "type": "uint256"
        },
        {
          "indexed": false,
          "internalType": "string",
          "name": "transactionType",
          "type": "string"
        },
        {
          "indexed": false,
          "internalType": "address",
          "name": "fromAddress",
          "type": "address"
        },
        {
          "indexed": false,
          "internalType": "address",
          "name": "toAddress",
          "type": "address"
        },
        {
          "indexed": false,
          "internalType": "uint256",
          "name": "value",
          "type": "uint256"
        }
      ],
      "name": "nftTransaction",
      "type": "event"
    },
    {
      "inputs": [],
      "name": "MAX_NFT_SUPPLY",
      "outputs": [
        {
          "internalType": "uint16",
          "name": "",
          "type": "uint16"
        }
      ],
      "stateMutability": "view",
      "type": "function",
      "constant": true
    },
    {
      "inputs": [
        {
          "internalType": "address",
          "name": "to",
          "type": "address"
        },
        {
          "internalType": "uint256",
          "name": "tokenId",
          "type": "uint256"
        }
      ],
      "name": "approve",
      "outputs": [],
      "stateMutability": "nonpayable",
      "type": "function"
    },
    {
      "inputs": [
        {
          "internalType": "address",
          "name": "owner",
          "type": "address"
        }
      ],
      "name": "balanceOf",
      "outputs": [
        {
          "internalType": "uint256",
          "name": "",
          "type": "uint256"
        }
      ],
      "stateMutability": "view",
      "type": "function",
      "constant": true
    },
    {
      "inputs": [
        {
          "internalType": "uint256",
          "name": "tokenId",
          "type": "uint256"
        }
      ],
      "name": "getApproved",
      "outputs": [
        {
          "internalType": "address",
          "name": "",
          "type": "address"
        }
      ],
      "stateMutability": "view",
      "type": "function",
      "constant": true
    },
    {
      "inputs": [
        {
          "internalType": "address",
          "name": "owner",
          "type": "address"
        },
        {
          "internalType": "address",
          "name": "operator",
          "type": "address"
        }
      ],
      "name": "isApprovedForAll",
      "outputs": [
        {
          "internalType": "bool",
          "name": "",
          "type": "bool"
        }
      ],
      "stateMutability": "view",
      "type": "function",
      "constant": true
    },
    {
      "inputs": [],
      "name": "maxSupply",
      "outputs": [
        {
          "internalType": "uint256",
          "name": "",
          "type": "uint256"
        }
      ],
      "stateMutability": "view",
      "type": "function",
      "constant": true
    },
    {
      "inputs": [],
      "name": "name",
      "outputs": [
        {
          "internalType": "string",
          "name": "",
          "type": "string"
        }
      ],
      "stateMutability": "view",
      "type": "function",
      "constant": true
    },
    {
      "inputs": [
        {
          "internalType": "uint256",
          "name": "",
          "type": "uint256"
        }
      ],
      "name": "nfts",
      "outputs": [
        {
          "internalType": "string",
          "name": "name",
          "type": "string"
        },
        {
          "internalType": "string",
          "name": "imageUrl",
          "type": "string"
        },
        {
          "internalType": "uint256",
          "name": "id",
          "type": "uint256"
        },
        {
          "internalType": "bool",
          "name": "isOnSale",
          "type": "bool"
        },
        {
          "internalType": "address payable",
          "name": "lender",
          "type": "address"
        },
        {
          "internalType": "uint256",
          "name": "rentSeconds",
          "type": "uint256"
        },
        {
          "internalType": "uint256",
          "name": "rentEndTime",
          "type": "uint256"
        },
        {
          "internalType": "uint256",
          "name": "dailyPrice",
          "type": "uint256"
        },
        {
          "internalType": "uint256",
          "name": "collateral",
          "type": "uint256"
        }
      ],
      "stateMutability": "view",
      "type": "function",
      "constant": true
    },
    {
      "inputs": [],
      "name": "owner",
      "outputs": [
        {
          "internalType": "address",
          "name": "",
          "type": "address"
        }
      ],
      "stateMutability": "view",
      "type": "function",
      "constant": true
    },
    {
      "inputs": [
        {
          "internalType": "uint256",
          "name": "tokenId",
          "type": "uint256"
        }
      ],
      "name": "ownerOf",
      "outputs": [
        {
          "internalType": "address",
          "name": "",
          "type": "address"
        }
      ],
      "stateMutability": "view",
      "type": "function",
      "constant": true
    },
    {
      "inputs": [],
      "name": "renounceOwnership",
      "outputs": [],
      "stateMutability": "nonpayable",
      "type": "function"
    },
    {
      "inputs": [],
      "name": "rentFee",
      "outputs": [
        {
          "internalType": "uint256",
          "name": "",
          "type": "uint256"
        }
      ],
      "stateMutability": "view",
      "type": "function",
      "constant": true
    },
    {
      "inputs": [
        {
          "internalType": "address",
          "name": "from",
          "type": "address"
        },
        {
          "internalType": "address",
          "name": "to",
          "type": "address"
        },
        {
          "internalType": "uint256",
          "name": "tokenId",
          "type": "uint256"
        }
      ],
      "name": "safeTransferFrom",
      "outputs": [],
      "stateMutability": "nonpayable",
      "type": "function"
    },
    {
      "inputs": [
        {
          "internalType": "address",
          "name": "from",
          "type": "address"
        },
        {
          "internalType": "address",
          "name": "to",
          "type": "address"
        },
        {
          "internalType": "uint256",
          "name": "tokenId",
          "type": "uint256"
        },
        {
          "internalType": "bytes",
          "name": "_data",
          "type": "bytes"
        }
      ],
      "name": "safeTransferFrom",
      "outputs": [],
      "stateMutability": "nonpayable",
      "type": "function"
    },
    {
      "inputs": [
        {
          "internalType": "address",
          "name": "operator",
          "type": "address"
        },
        {
          "internalType": "bool",
          "name": "approved",
          "type": "bool"
        }
      ],
      "name": "setApprovalForAll",
      "outputs": [],
      "stateMutability": "nonpayable",
      "type": "function"
    },
    {
      "inputs": [
        {
          "internalType": "bytes4",
          "name": "interfaceId",
          "type": "bytes4"
        }
      ],
      "name": "supportsInterface",
      "outputs": [
        {
          "internalType": "bool",
          "name": "",
          "type": "bool"
        }
      ],
      "stateMutability": "view",
      "type": "function",
      "constant": true
    },
    {
      "inputs": [],
      "name": "symbol",
      "outputs": [
        {
          "internalType": "string",
          "name": "",
          "type": "string"
        }
      ],
      "stateMutability": "view",
      "type": "function",
      "constant": true
    },
    {
      "inputs": [
        {
          "internalType": "uint256",
          "name": "index",
          "type": "uint256"
        }
      ],
      "name": "tokenByIndex",
      "outputs": [
        {
          "internalType": "uint256",
          "name": "",
          "type": "uint256"
        }
      ],
      "stateMutability": "view",
      "type": "function",
      "constant": true
    },
    {
      "inputs": [
        {
          "internalType": "address",
          "name": "owner",
          "type": "address"
        },
        {
          "internalType": "uint256",
          "name": "index",
          "type": "uint256"
        }
      ],
      "name": "tokenOfOwnerByIndex",
      "outputs": [
        {
          "internalType": "uint256",
          "name": "",
          "type": "uint256"
        }
      ],
      "stateMutability": "view",
      "type": "function",
      "constant": true
    },
    {
      "inputs": [
        {
          "internalType": "uint256",
          "name": "tokenId",
          "type": "uint256"
        }
      ],
      "name": "tokenURI",
      "outputs": [
        {
          "internalType": "string",
          "name": "",
          "type": "string"
        }
      ],
      "stateMutability": "view",
      "type": "function",
      "constant": true
    },
    {
      "inputs": [],
      "name": "totalSupply",
      "outputs": [
        {
          "internalType": "uint256",
          "name": "",
          "type": "uint256"
        }
      ],
      "stateMutability": "view",
      "type": "function",
      "constant": true
    },
    {
      "inputs": [
        {
          "internalType": "address",
          "name": "from",
          "type": "address"
        },
        {
          "internalType": "address",
          "name": "to",
          "type": "address"
        },
        {
          "internalType": "uint256",
          "name": "tokenId",
          "type": "uint256"
        }
      ],
      "name": "transferFrom",
      "outputs": [],
      "stateMutability": "nonpayable",
      "type": "function"
    },
    {
      "inputs": [
        {
          "internalType": "address",
          "name": "newOwner",
          "type": "address"
        }
      ],
      "name": "transferOwnership",
      "outputs": [],
      "stateMutability": "nonpayable",
      "type": "function"
    },
    {
      "inputs": [
        {
          "internalType": "address",
          "name": "",
          "type": "address"
        }
      ],
      "name": "users",
      "outputs": [
        {
          "internalType": "string",
          "name": "username",
          "type": "string"
        },
        {
          "internalType": "uint256",
          "name": "userBalance",
          "type": "uint256"
        }
      ],
      "stateMutability": "view",
      "type": "function",
      "constant": true
    },
    {
      "inputs": [
        {
          "internalType": "uint256",
          "name": "_rentFee",
          "type": "uint256"
        }
      ],
      "name": "setRentFee",
      "outputs": [],
      "stateMutability": "nonpayable",
      "type": "function"
    },
    {
      "inputs": [
        {
          "internalType": "string",
          "name": "_username",
          "type": "string"
        }
      ],
      "name": "setUsername",
      "outputs": [],
      "stateMutability": "nonpayable",
      "type": "function"
    },
    {
      "inputs": [
        {
          "internalType": "uint256",
          "name": "_tokenId",
          "type": "uint256"
        },
        {
          "internalType": "uint8",
          "name": "_maxDurationInDays",
          "type": "uint8"
        },
        {
          "internalType": "uint256",
          "name": "_dailyPrice",
          "type": "uint256"
        },
        {
          "internalType": "uint256",
          "name": "_collateral",
          "type": "uint256"
        }
      ],
      "name": "putOnSale",
      "outputs": [],
      "stateMutability": "nonpayable",
      "type": "function"
    },
    {
      "inputs": [
        {
          "internalType": "uint256",
          "name": "_tokenId",
          "type": "uint256"
        }
      ],
      "name": "cancelSale",
      "outputs": [],
      "stateMutability": "nonpayable",
      "type": "function"
    },
    {
      "inputs": [
        {
          "internalType": "uint256",
          "name": "_tokenId",
          "type": "uint256"
        }
      ],
      "name": "buyFromSale",
      "outputs": [],
      "stateMutability": "payable",
      "type": "function",
      "payable": true
    },
    {
      "inputs": [
        {
          "internalType": "uint256",
          "name": "_tokenId",
          "type": "uint256"
        }
      ],
      "name": "returnNFT",
      "outputs": [],
      "stateMutability": "nonpayable",
      "type": "function"
    },
    {
      "inputs": [
        {
          "internalType": "uint256",
          "name": "_tokenId",
          "type": "uint256"
        }
      ],
      "name": "claimCollateral",
      "outputs": [],
      "stateMutability": "nonpayable",
      "type": "function"
    },
    {
      "inputs": [
        {
          "internalType": "string",
          "name": "_name",
          "type": "string"
        },
        {
          "internalType": "string",
          "name": "_imageUrl",
          "type": "string"
        }
      ],
      "name": "mintNFT",
      "outputs": [
        {
          "internalType": "uint256",
          "name": "",
          "type": "uint256"
        }
      ],
      "stateMutability": "nonpayable",
      "type": "function"
    }
  ],
  "bytecode": "0x60806040526032600f553480156200001657600080fd5b506040518060400160405280600981526020016813919514995b9d185b60ba1b8152506040518060400160405280600481526020016327232a2960e11b815250620000706200006a620000a460201b60201c565b620000a8565b815162000085906001906020850190620000f8565b5080516200009b906002906020840190620000f8565b505050620001db565b3390565b600080546001600160a01b038381166001600160a01b0319831681178455604051919092169283917f8be0079c531659141344cd1fd0a4f28419497f9722a3daafe3b4186f6b6457e09190a35050565b82805462000106906200019e565b90600052602060002090601f0160209004810192826200012a576000855562000175565b82601f106200014557805160ff191683800117855562000175565b8280016001018555821562000175579182015b828111156200017557825182559160200191906001019062000158565b506200018392915062000187565b5090565b5b8082111562000183576000815560010162000188565b600181811c90821680620001b357607f821691505b60208210811415620001d557634e487b7160e01b600052602260045260246000fd5b50919050565b613c5a80620001eb6000396000f3fe6080604052600436106101e35760003560e01c806395d89b4111610102578063c49785b411610095578063e985e9c511610064578063e985e9c514610598578063ed59313a146105e1578063f2fde38b14610601578063fc84afb41461062157600080fd5b8063c49785b414610522578063c87b56dd14610542578063d5abeb0114610562578063e96055441461057857600080fd5b8063b5077f44116100d1578063b5077f44146104a3578063b88d4fde146104cc578063bd94b005146104ec578063bf2b23ea1461050c57600080fd5b806395d89b4114610420578063a22cb46514610435578063a87430ba14610455578063b0cd2aa01461048357600080fd5b806342842e0e1161017a57806370a082311161014957806370a08231146103ad578063715018a6146103cd57806376774ea3146103e25780638da5cb5b1461040257600080fd5b806342842e0e1461032d57806343618ead1461034d5780634f6ccce71461036d5780636352211e1461038d57600080fd5b806318160ddd116101b657806318160ddd1461029957806323b872dd146102b8578063265aa621146102d85780632f745c591461030d57600080fd5b806301ffc9a7146101e857806306fdde031461021d578063081812fc1461023f578063095ea7b314610277575b600080fd5b3480156101f457600080fd5b50610208610203366004613735565b610634565b60405190151581526020015b60405180910390f35b34801561022957600080fd5b5061023261065f565b60405161021491906138fc565b34801561024b57600080fd5b5061025f61025a366004613808565b6106f1565b6040516001600160a01b039091168152602001610214565b34801561028357600080fd5b50610297610292366004613709565b61078b565b005b3480156102a557600080fd5b506009545b604051908152602001610214565b3480156102c457600080fd5b506102976102d3366004613615565b6108a1565b3480156102e457600080fd5b506102f86102f3366004613808565b6108d2565b6040516102149998979695949392919061390f565b34801561031957600080fd5b506102aa610328366004613709565b610a51565b34801561033957600080fd5b50610297610348366004613615565b610ae7565b34801561035957600080fd5b50610297610368366004613821565b610b02565b34801561037957600080fd5b506102aa610388366004613808565b610ec8565b34801561039957600080fd5b5061025f6103a8366004613808565b610f5b565b3480156103b957600080fd5b506102aa6103c83660046135a2565b610fd2565b3480156103d957600080fd5b50610297611059565b3480156103ee57600080fd5b506102976103fd366004613808565b61108f565b34801561040e57600080fd5b506000546001600160a01b031661025f565b34801561042c57600080fd5b5061023261110f565b34801561044157600080fd5b506102976104503660046136d6565b61111e565b34801561046157600080fd5b506104756104703660046135a2565b6111e3565b604051610214929190613979565b34801561048f57600080fd5b5061029761049e366004613808565b611287565b3480156104af57600080fd5b506104b96103e881565b60405161ffff9091168152602001610214565b3480156104d857600080fd5b506102976104e7366004613656565b61196f565b3480156104f857600080fd5b50610297610507366004613808565b6119a7565b34801561051857600080fd5b506102aa600f5481565b34801561052e57600080fd5b5061029761053d366004613808565b611c4a565b34801561054e57600080fd5b5061023261055d366004613808565b612050565b34801561056e57600080fd5b506102aa600e5481565b34801561058457600080fd5b506102aa6105933660046137a4565b612138565b3480156105a457600080fd5b506102086105b33660046135dc565b6001600160a01b03918216600090815260066020908152604080832093909416825291909152205460ff1690565b3480156105ed57600080fd5b506102976105fc36600461376f565b61237f565b34801561060d57600080fd5b5061029761061c3660046135a2565b6123a3565b61029761062f366004613808565b61243e565b60006001600160e01b0319821663780e9d6360e01b1480610659575061065982612aef565b92915050565b60606001805461066e90613b01565b80601f016020809104026020016040519081016040528092919081815260200182805461069a90613b01565b80156106e75780601f106106bc576101008083540402835291602001916106e7565b820191906000526020600020905b8154815290600101906020018083116106ca57829003601f168201915b5050505050905090565b6000818152600360205260408120546001600160a01b031661076f5760405162461bcd60e51b815260206004820152602c60248201527f4552433732313a20617070726f76656420717565727920666f72206e6f6e657860448201526b34b9ba32b73a103a37b5b2b760a11b60648201526084015b60405180910390fd5b506000908152600560205260409020546001600160a01b031690565b600061079682610f5b565b9050806001600160a01b0316836001600160a01b031614156108045760405162461bcd60e51b815260206004820152602160248201527f4552433732313a20617070726f76616c20746f2063757272656e74206f776e656044820152603960f91b6064820152608401610766565b336001600160a01b0382161480610820575061082081336105b3565b6108925760405162461bcd60e51b815260206004820152603860248201527f4552433732313a20617070726f76652063616c6c6572206973206e6f74206f7760448201527f6e6572206e6f7220617070726f76656420666f7220616c6c00000000000000006064820152608401610766565b61089c8383612b3f565b505050565b6108ab3382612bad565b6108c75760405162461bcd60e51b815260040161076690613a22565b61089c838383612ca4565b600d81815481106108e257600080fd5b906000526020600020906008020160009150905080600001805461090590613b01565b80601f016020809104026020016040519081016040528092919081815260200182805461093190613b01565b801561097e5780601f106109535761010080835404028352916020019161097e565b820191906000526020600020905b81548152906001019060200180831161096157829003601f168201915b50505050509080600101805461099390613b01565b80601f01602080910402602001604051908101604052809291908181526020018280546109bf90613b01565b8015610a0c5780601f106109e157610100808354040283529160200191610a0c565b820191906000526020600020905b8154815290600101906020018083116109ef57829003601f168201915b50505050600283015460038401546004850154600586015460068701546007909701549596939560ff841695506101009093046001600160a01b031693919290919089565b6000610a5c83610fd2565b8210610abe5760405162461bcd60e51b815260206004820152602b60248201527f455243373231456e756d657261626c653a206f776e657220696e646578206f7560448201526a74206f6620626f756e647360a81b6064820152608401610766565b506001600160a01b03919091166000908152600760209081526040808320938352929052205490565b61089c8383836040518060200160405280600081525061196f565b6040516331a9108f60e11b8152600481018590523090636352211e9060240160206040518083038186803b158015610b3957600080fd5b505afa158015610b4d573d6000803e3d6000fd5b505050506040513d601f19601f82011682018060405250810190610b7191906135bf565b6001600160a01b0316336001600160a01b031614610c055760405162461bcd60e51b815260206004820152604560248201527f596f752063616e6e6f74207075742074686973206974656d206f6e2073616c6560448201527f2c206265636175736520796f7520617265206e6f7420746865206f776e6572206064820152641bd9881a5d60da1b608482015260a401610766565b600d610c12600186613abe565b81548110610c2257610c22613bad565b600091825260209091206003600890920201015460ff1615610c865760405162461bcd60e51b815260206004820152601860248201527f4974656d20697320616c7265616479206f6e2073616c652e00000000000000006044820152606401610766565b60008360ff1611610cf05760405162461bcd60e51b815260206004820152602e60248201527f596f752063616e6e6f74206c656e6420746865206974656d20666f72206c657360448201526d39903a3430b71018103230bcb99760911b6064820152608401610766565b6001600d610cfe8287613abe565b81548110610d0e57610d0e613bad565b60009182526020909120600890910201600301805460ff191691151591909117905533600d610d3e600187613abe565b81548110610d4e57610d4e613bad565b906000526020600020906008020160030160016101000a8154816001600160a01b0302191690836001600160a01b03160217905550620151808360ff16610d959190613a9f565b600d610da2600187613abe565b81548110610db257610db2613bad565b600091825260209091206004600890920201015581600d610dd4600187613abe565b81548110610de457610de4613bad565b600091825260209091206006600890920201015580600d610e06600187613abe565b81548110610e1657610e16613bad565b6000918252602082206007600890920201019190915581610e3a60ff861685613a9f565b610e449190613a73565b9050610e50308661078b565b6040805160ff861681526020810185905290810183905260006060820181905261010060808301819052600790830152664f6e2053616c6560c81b6101208301523360a083015260c082015260e081018290528590600080516020613c05833981519152906101400160405180910390a25050505050565b6000610ed360095490565b8210610f365760405162461bcd60e51b815260206004820152602c60248201527f455243373231456e756d657261626c653a20676c6f62616c20696e646578206f60448201526b7574206f6620626f756e647360a01b6064820152608401610766565b60098281548110610f4957610f49613bad565b90600052602060002001549050919050565b6000818152600360205260408120546001600160a01b0316806106595760405162461bcd60e51b815260206004820152602960248201527f4552433732313a206f776e657220717565727920666f72206e6f6e657869737460448201526832b73a103a37b5b2b760b91b6064820152608401610766565b60006001600160a01b03821661103d5760405162461bcd60e51b815260206004820152602a60248201527f4552433732313a2062616c616e636520717565727920666f7220746865207a65604482015269726f206164647265737360b01b6064820152608401610766565b506001600160a01b031660009081526004602052604090205490565b6000546001600160a01b031633146110835760405162461bcd60e51b8152600401610766906139ed565b61108d6000612e4f565b565b6000546001600160a01b031633146110b95760405162461bcd60e51b8152600401610766906139ed565b612710811061110a5760405162461bcd60e51b815260206004820152601860248201527f4665652065786365656473203130302070657263656e742e00000000000000006044820152606401610766565b600f55565b60606002805461066e90613b01565b6001600160a01b0382163314156111775760405162461bcd60e51b815260206004820152601960248201527f4552433732313a20617070726f766520746f2063616c6c6572000000000000006044820152606401610766565b3360008181526006602090815260408083206001600160a01b03871680855290835292819020805460ff191686151590811790915590519081529192917f17307eab39ab6107e8899845ad3d59bd9653f200f220920489ca2b5937696c31910160405180910390a35050565b600c602052600090815260409020805481906111fe90613b01565b80601f016020809104026020016040519081016040528092919081815260200182805461122a90613b01565b80156112775780601f1061124c57610100808354040283529160200191611277565b820191906000526020600020905b81548152906001019060200180831161125a57829003601f168201915b5050505050908060010154905082565b6040516331a9108f60e11b8152600481018290523090636352211e9060240160206040518083038186803b1580156112be57600080fd5b505afa1580156112d2573d6000803e3d6000fd5b505050506040513d601f19601f820116820180604052508101906112f691906135bf565b6001600160a01b0316336001600160a01b0316146113625760405162461bcd60e51b815260206004820152602360248201527f596f75206d757374206f776e20746865206974656d20746f2072657475726e2060448201526234ba1760e91b6064820152608401610766565b600d61136f600183613abe565b8154811061137f5761137f613bad565b600091825260209091206003600890920201015460ff16156113e35760405162461bcd60e51b815260206004820152601960248201527f4974656d206d757374206e6f74206265206f6e2073616c652e000000000000006044820152606401610766565b6000600d6113f2600184613abe565b8154811061140257611402613bad565b906000526020600020906008020160040154600d6001846114239190613abe565b8154811061143357611433613bad565b90600052602060002090600802016005015461144f9190613abe565b6114599042613abe565b90506000600d61146a600185613abe565b8154811061147a5761147a613bad565b9060005260206000209060080201600701546201518083600d6001876114a09190613abe565b815481106114b0576114b0613bad565b9060005260206000209060080201600401546114cc9190613abe565b6114d69190613a8b565b600d6114e3600187613abe565b815481106114f3576114f3613bad565b90600052602060002090600802016006015461150f9190613a9f565b6115199190613a73565b604051909150339082156108fc029083906000818181858888f19350505050158015611549573d6000803e3d6000fd5b5060008262015180600d61155e600188613abe565b8154811061156e5761156e613bad565b90600052602060002090600802016006015461158a9190613a8b565b6115949190613a9f565b9050600d6115a3600186613abe565b815481106115b3576115b3613bad565b906000526020600020906008020160030160019054906101000a90046001600160a01b03166001600160a01b03166108fc612710600f546127106115f79190613abe565b6116019190613a8b565b61160b9084613a9f565b6040518115909202916000818181858888f19350505050158015611633573d6000803e3d6000fd5b5060408051600080825260208201819052818301819052606082015261010060808201819052600c908201526b1391950814995d1d5c9b995960a21b6101208201523060a08201523360c082015260e0810184905290518591600080516020613c0583398151915291908190036101400190a26000600d6116b5600187613abe565b815481106116c5576116c5613bad565b60009182526020822060089190910201600301805460ff191692151592909217909155600d6116f5600187613abe565b8154811061170557611705613bad565b60009182526020822060046008909202010191909155600d611728600187613abe565b8154811061173857611738613bad565b60009182526020822060066008909202010191909155600d61175b600187613abe565b8154811061176b5761176b613bad565b60009182526020822060076008909202010191909155600d61178e600187613abe565b8154811061179e5761179e613bad565b6000918252602090912060036008909202010180546001600160a01b039290921661010002610100600160a81b031990921691909117905560405163020604bf60e21b8152600481018590523090819063081812fc9060240160206040518083038186803b15801561180f57600080fd5b505afa158015611823573d6000803e3d6000fd5b505050506040513d601f19601f8201168201806040525081019061184791906135bf565b6001600160a01b0316146118c35760405162461bcd60e51b815260206004820152603b60248201527f426f72726f77657220646964206e6f74206769766520616c6c6f77616e63652060448201527f666f7220757320746f2072657475726e2074686973206974656d2e00000000006064820152608401610766565b306342842e0e33600d6118d7600189613abe565b815481106118e7576118e7613bad565b600091825260209091206008909102016003015460405160e084901b6001600160e01b03191681526001600160a01b039283166004820152610100909104909116602482015260448101879052606401600060405180830381600087803b15801561195157600080fd5b505af1158015611965573d6000803e3d6000fd5b5050505050505050565b6119793383612bad565b6119955760405162461bcd60e51b815260040161076690613a22565b6119a184848484612e9f565b50505050565b600d6119b4600183613abe565b815481106119c4576119c4613bad565b600091825260209091206003600890920201015460ff161515600114611a3b5760405162461bcd60e51b815260206004820152602660248201527f4974656d2073686f756c64206265206f6e2073616c6520746f2063616e63656c6044820152651039b0b6329760d11b6064820152608401610766565b6040516331a9108f60e11b8152600481018290523090636352211e9060240160206040518083038186803b158015611a7257600080fd5b505afa158015611a86573d6000803e3d6000fd5b505050506040513d601f19601f82011682018060405250810190611aaa91906135bf565b6001600160a01b0316336001600160a01b031614611b405760405162461bcd60e51b815260206004820152604760248201527f596f752063616e6e6f742063616e63656c207468652073616c65206f6620746860448201527f6973206974656d2c206265636175736520796f7520617265206e6f74207468656064820152661037bbb732b91760c91b608482015260a401610766565b6000600d611b4f600184613abe565b81548110611b5f57611b5f613bad565b60009182526020822060089190910201600301805460ff191692151592909217909155600d611b8f600184613abe565b81548110611b9f57611b9f613bad565b600091825260208083206008929092029091016003018054610100600160a81b0319166101006001600160a01b039590951685021790556040805183815291820183905281018290526060810182905260808101839052600e928101929092526d14d85b194810d85b98d95b1b195960921b6101208301523360a083015260c0820181905260e08201528190600080516020613c05833981519152906101400160405180910390a250565b600d611c57600183613abe565b81548110611c6757611c67613bad565b600091825260209091206003600890920201015460ff1615611cf15760405162461bcd60e51b815260206004820152603d60248201527f596f752063616e6e6f7420636c61696d2074686520636f6c6c61746572616c2c60448201527f206265636175736520746865206974656d206973206f6e2073616c652e0000006064820152608401610766565b600d611cfe600183613abe565b81548110611d0e57611d0e613bad565b600091825260209091206008909102016003015461010090046001600160a01b03163314611db95760405162461bcd60e51b815260206004820152604c60248201527f596f752063616e6e6f7420636c61696d2074686520636f6c6c61746572616c2c60448201527f206265636175736520796f7520617265206e6f7420746865206c656e6465722060648201526b37b3103a34329034ba32b69760a11b608482015260a401610766565b42600d611dc7600184613abe565b81548110611dd757611dd7613bad565b90600052602060002090600802016005015410611e6a5760405162461bcd60e51b8152602060048201526044602482018190527f596f752063616e206e6f7420636c61696d2074686520636f6c6c61746572616c908201527f2c2073696e6365207468652072656e742074696d6520686173206e6f7420656e6064820152633232b21760e11b608482015260a401610766565b6000600d611e79600184613abe565b81548110611e8957611e89613bad565b906000526020600020906008020160030160016101000a8154816001600160a01b0302191690836001600160a01b031602179055506000600d600183611ecf9190613abe565b81548110611edf57611edf613bad565b906000526020600020906008020160070154600d600184611f009190613abe565b81548110611f1057611f10613bad565b90600052602060002090600802016004015462015180600d600186611f359190613abe565b81548110611f4557611f45613bad565b906000526020600020906008020160060154611f619190613a8b565b611f6b9190613a9f565b611f759190613a73565b9050336001600160a01b03166108fc612710600f54612710611f979190613abe565b611fa19190613a8b565b611fab9084613a9f565b6040518115909202916000818181858888f19350505050158015611fd3573d6000803e3d6000fd5b50604080516000808252602082018190528183018190526060820152610100608082018190526012908201527110dbdb1b185d195c985b0810db185a5b595960721b6101208201523060a08201523360c082015260e0810183905290518391600080516020613c0583398151915291908190036101400190a25050565b6000818152600360205260409020546060906001600160a01b03166120cf5760405162461bcd60e51b815260206004820152602f60248201527f4552433732314d657461646174613a2055524920717565727920666f72206e6f60448201526e3732bc34b9ba32b73a103a37b5b2b760891b6064820152608401610766565b60006120e660408051602081019091526000815290565b905060008151116121065760405180602001604052806000815250612131565b8061211084612ed2565b604051602001612121929190613890565b6040516020818303038152906040525b9392505050565b6000612148600b80546001019055565b6000612153600b5490565b90506103e881106121e05760405162461bcd60e51b815260206004820152604b60248201527f596f752063616e6e6f74206d696e7420616e79206d6f7265206974656d73207360448201527f696e636520796f7520616c7265616479207265616368656420746865206d617860648201526a696d756d20737570706c7960a81b608482015260a401610766565b604080516101208101825285815260208082018690529181018390526000606082018190526080820181905260a0820181905260c0820181905260e082018190526101008201819052600d8054600181018255915281518051929360089092027fd7b6990105719101dabeb77144f2a3385c8033acd3af97e9423a695e81ad1eb501926122709284920190613473565b5060208281015180516122899260018501920190613473565b5060408201516002820155606082015160038201805460808501516001600160a81b0319909116921515610100600160a81b031916929092176101006001600160a01b03909316830217905560a0830151600483015560c0830151600583015560e08301516006830155909101516007909101556123073382612fd0565b604080516000808252602082018190528183018190526060820181905261010060808301819052600a908301526913919508135a5b9d195960b21b61012083015260a082018190523360c083015260e082015290518291600080516020613c0583398151915291908190036101400190a29392505050565b336000908152600c60209081526040909120825161239f92840190613473565b5050565b6000546001600160a01b031633146123cd5760405162461bcd60e51b8152600401610766906139ed565b6001600160a01b0381166124325760405162461bcd60e51b815260206004820152602660248201527f4f776e61626c653a206e6577206f776e657220697320746865207a65726f206160448201526564647265737360d01b6064820152608401610766565b61243b81612e4f565b50565b6040516331a9108f60e11b8152600481018290523090636352211e9060240160206040518083038186803b15801561247557600080fd5b505afa158015612489573d6000803e3d6000fd5b505050506040513d601f19601f820116820180604052508101906124ad91906135bf565b6001600160a01b0316336001600160a01b0316141561250e5760405162461bcd60e51b815260206004820181905260248201527f596f752063616e6e6f7420626f72726f7720796f7572206f776e206974656d216044820152606401610766565b600d61251b600183613abe565b8154811061252b5761252b613bad565b600091825260209091206008909102016003015461010090046001600160a01b03163314156125ad5760405162461bcd60e51b815260206004820152602860248201527f596f752063616e6e6f7420626f72726f7720616e206974656d207468617420796044820152676f75206c656e642160c01b6064820152608401610766565b600d6125ba600183613abe565b815481106125ca576125ca613bad565b600091825260209091206003600890920201015460ff1615156001146126445760405162461bcd60e51b815260206004820152602960248201527f4974656d2073686f756c64206265206f6e2073616c6520666f7220796f7520746044820152683790313abc9034ba1760b91b6064820152608401610766565b6000600d612653600184613abe565b8154811061266357612663613bad565b90600052602060002090600802016007015462015180600d6001856126889190613abe565b8154811061269857612698613bad565b9060005260206000209060080201600401546126b49190613a8b565b600d6126c1600186613abe565b815481106126d1576126d1613bad565b9060005260206000209060080201600601546126ed9190613a9f565b6126f79190613a73565b9050348111156127b25760405162461bcd60e51b815260206004820152607460248201527f54686520616d6f756e7420796f752073656e74206973206c657373207468616e60448201527f20746865207072696365206f662072656e74616c20287768696368206973207460648201527f6865207072696365206f66207468652066756c6c2072656e74616c20706572696084820152736f6420706c757320636f6c6c61746572616c2e2960601b60a482015260c401610766565b60405163020604bf60e21b8152600481018390523090819063081812fc9060240160206040518083038186803b1580156127eb57600080fd5b505afa1580156127ff573d6000803e3d6000fd5b505050506040513d601f19601f8201168201806040525081019061282391906135bf565b6001600160a01b03161461289f5760405162461bcd60e51b815260206004820152603760248201527f53656c6c657220646964206e6f74206769766520616c6c6f77616e636520666f60448201527f7220757320746f2073656c6c2074686973206974656d2e0000000000000000006064820152608401610766565b6040516331a9108f60e11b8152600481018390526000903090636352211e9060240160206040518083038186803b1580156128d957600080fd5b505afa1580156128ed573d6000803e3d6000fd5b505050506040513d601f19601f8201168201806040525081019061291191906135bf565b604051632142170760e11b81526001600160a01b03821660048201523360248201526044810185905290915030906342842e0e90606401600060405180830381600087803b15801561296257600080fd5b505af1158015612976573d6000803e3d6000fd5b505050506000600d60018561298b9190613abe565b8154811061299b5761299b613bad565b60009182526020822060089190910201600301805460ff191692151592909217909155600d6129cb600186613abe565b815481106129db576129db613bad565b906000526020600020906008020160040154426129f89190613a73565b905080600d612a08600187613abe565b81548110612a1857612a18613bad565b906000526020600020906008020160050181905550612a37308561078b565b83600080516020613c058339815191526000808085600d612a59600188613abe565b81548110612a6957612a69613bad565b6000918252602091829020600891820201600301546040805160ff989098168852928701959095529085019290925260608401526101006080840181905280840191909152671391950814dbdb1960c21b61012084015290046001600160a01b031660a08201523360c082015260e081018690526101400160405180910390a250505050565b60006001600160e01b031982166380ac58cd60e01b1480612b2057506001600160e01b03198216635b5e139f60e01b145b8061065957506301ffc9a760e01b6001600160e01b0319831614610659565b600081815260056020526040902080546001600160a01b0319166001600160a01b0384169081179091558190612b7482610f5b565b6001600160a01b03167f8c5be1e5ebec7d5bd14f71427d1e84f3dd0314c0f7b2291e5b200ac8c7c3b92560405160405180910390a45050565b6000818152600360205260408120546001600160a01b0316612c265760405162461bcd60e51b815260206004820152602c60248201527f4552433732313a206f70657261746f7220717565727920666f72206e6f6e657860448201526b34b9ba32b73a103a37b5b2b760a11b6064820152608401610766565b6000612c3183610f5b565b9050806001600160a01b0316846001600160a01b03161480612c6c5750836001600160a01b0316612c61846106f1565b6001600160a01b0316145b80612c9c57506001600160a01b0380821660009081526006602090815260408083209388168352929052205460ff165b949350505050565b826001600160a01b0316612cb782610f5b565b6001600160a01b031614612d1f5760405162461bcd60e51b815260206004820152602960248201527f4552433732313a207472616e73666572206f6620746f6b656e2074686174206960448201526839903737ba1037bbb760b91b6064820152608401610766565b6001600160a01b038216612d815760405162461bcd60e51b8152602060048201526024808201527f4552433732313a207472616e7366657220746f20746865207a65726f206164646044820152637265737360e01b6064820152608401610766565b612d8c83838361311e565b612d97600082612b3f565b6001600160a01b0383166000908152600460205260408120805460019290612dc0908490613abe565b90915550506001600160a01b0382166000908152600460205260408120805460019290612dee908490613a73565b909155505060008181526003602052604080822080546001600160a01b0319166001600160a01b0386811691821790925591518493918716917fddf252ad1be2c89b69c2b068fc378daa952ba7f163c4a11628f55a4df523b3ef91a4505050565b600080546001600160a01b038381166001600160a01b0319831681178455604051919092169283917f8be0079c531659141344cd1fd0a4f28419497f9722a3daafe3b4186f6b6457e09190a35050565b612eaa848484612ca4565b612eb6848484846131d6565b6119a15760405162461bcd60e51b81526004016107669061399b565b606081612ef65750506040805180820190915260018152600360fc1b602082015290565b8160005b8115612f205780612f0a81613b3c565b9150612f199050600a83613a8b565b9150612efa565b60008167ffffffffffffffff811115612f3b57612f3b613bc3565b6040519080825280601f01601f191660200182016040528015612f65576020820181803683370190505b5090505b8415612c9c57612f7a600183613abe565b9150612f87600a86613b57565b612f92906030613a73565b60f81b818381518110612fa757612fa7613bad565b60200101906001600160f81b031916908160001a905350612fc9600a86613a8b565b9450612f69565b6001600160a01b0382166130265760405162461bcd60e51b815260206004820181905260248201527f4552433732313a206d696e7420746f20746865207a65726f20616464726573736044820152606401610766565b6000818152600360205260409020546001600160a01b03161561308b5760405162461bcd60e51b815260206004820152601c60248201527f4552433732313a20746f6b656e20616c7265616479206d696e746564000000006044820152606401610766565b6130976000838361311e565b6001600160a01b03821660009081526004602052604081208054600192906130c0908490613a73565b909155505060008181526003602052604080822080546001600160a01b0319166001600160a01b03861690811790915590518392907fddf252ad1be2c89b69c2b068fc378daa952ba7f163c4a11628f55a4df523b3ef908290a45050565b6001600160a01b0383166131795761317481600980546000838152600a60205260408120829055600182018355919091527f6e1540171b6c0c960b71a7020d9f60077f6af931a8bbf590da0223dacf75c7af0155565b61319c565b816001600160a01b0316836001600160a01b03161461319c5761319c83826132e3565b6001600160a01b0382166131b35761089c81613380565b826001600160a01b0316826001600160a01b03161461089c5761089c828261342f565b60006001600160a01b0384163b156132d857604051630a85bd0160e11b81526001600160a01b0385169063150b7a029061321a9033908990889088906004016138bf565b602060405180830381600087803b15801561323457600080fd5b505af1925050508015613264575060408051601f3d908101601f1916820190925261326191810190613752565b60015b6132be573d808015613292576040519150601f19603f3d011682016040523d82523d6000602084013e613297565b606091505b5080516132b65760405162461bcd60e51b81526004016107669061399b565b805181602001fd5b6001600160e01b031916630a85bd0160e11b149050612c9c565b506001949350505050565b600060016132f084610fd2565b6132fa9190613abe565b60008381526008602052604090205490915080821461334d576001600160a01b03841660009081526007602090815260408083208584528252808320548484528184208190558352600890915290208190555b5060009182526008602090815260408084208490556001600160a01b039094168352600781528383209183525290812055565b60095460009061339290600190613abe565b6000838152600a6020526040812054600980549394509092849081106133ba576133ba613bad565b9060005260206000200154905080600983815481106133db576133db613bad565b6000918252602080832090910192909255828152600a9091526040808220849055858252812055600980548061341357613413613b97565b6001900381819060005260206000200160009055905550505050565b600061343a83610fd2565b6001600160a01b039093166000908152600760209081526040808320868452825280832085905593825260089052919091209190915550565b82805461347f90613b01565b90600052602060002090601f0160209004810192826134a157600085556134e7565b82601f106134ba57805160ff19168380011785556134e7565b828001600101855582156134e7579182015b828111156134e75782518255916020019190600101906134cc565b506134f39291506134f7565b5090565b5b808211156134f357600081556001016134f8565b600067ffffffffffffffff8084111561352757613527613bc3565b604051601f8501601f19908116603f0116810190828211818310171561354f5761354f613bc3565b8160405280935085815286868601111561356857600080fd5b858560208301376000602087830101525050509392505050565b600082601f83011261359357600080fd5b6121318383356020850161350c565b6000602082840312156135b457600080fd5b813561213181613bd9565b6000602082840312156135d157600080fd5b815161213181613bd9565b600080604083850312156135ef57600080fd5b82356135fa81613bd9565b9150602083013561360a81613bd9565b809150509250929050565b60008060006060848603121561362a57600080fd5b833561363581613bd9565b9250602084013561364581613bd9565b929592945050506040919091013590565b6000806000806080858703121561366c57600080fd5b843561367781613bd9565b9350602085013561368781613bd9565b925060408501359150606085013567ffffffffffffffff8111156136aa57600080fd5b8501601f810187136136bb57600080fd5b6136ca8782356020840161350c565b91505092959194509250565b600080604083850312156136e957600080fd5b82356136f481613bd9565b91506020830135801515811461360a57600080fd5b6000806040838503121561371c57600080fd5b823561372781613bd9565b946020939093013593505050565b60006020828403121561374757600080fd5b813561213181613bee565b60006020828403121561376457600080fd5b815161213181613bee565b60006020828403121561378157600080fd5b813567ffffffffffffffff81111561379857600080fd5b612c9c84828501613582565b600080604083850312156137b757600080fd5b823567ffffffffffffffff808211156137cf57600080fd5b6137db86838701613582565b935060208501359150808211156137f157600080fd5b506137fe85828601613582565b9150509250929050565b60006020828403121561381a57600080fd5b5035919050565b6000806000806080858703121561383757600080fd5b84359350602085013560ff8116811461384f57600080fd5b93969395505050506040820135916060013590565b6000815180845261387c816020860160208601613ad5565b601f01601f19169290920160200192915050565b600083516138a2818460208801613ad5565b8351908301906138b6818360208801613ad5565b01949350505050565b6001600160a01b03858116825284166020820152604081018390526080606082018190526000906138f290830184613864565b9695505050505050565b6020815260006121316020830184613864565b60006101208083526139238184018d613864565b90508281036020840152613937818c613864565b604084019a909a52505095151560608701526001600160a01b0394909416608086015260a085019290925260c084015260e08301526101009091015292915050565b60408152600061398c6040830185613864565b90508260208301529392505050565b60208082526032908201527f4552433732313a207472616e7366657220746f206e6f6e20455243373231526560408201527131b2b4bb32b91034b6b83632b6b2b73a32b960711b606082015260800190565b6020808252818101527f4f776e61626c653a2063616c6c6572206973206e6f7420746865206f776e6572604082015260600190565b60208082526031908201527f4552433732313a207472616e736665722063616c6c6572206973206e6f74206f6040820152701ddb995c881b9bdc88185c1c1c9bdd9959607a1b606082015260800190565b60008219821115613a8657613a86613b6b565b500190565b600082613a9a57613a9a613b81565b500490565b6000816000190483118215151615613ab957613ab9613b6b565b500290565b600082821015613ad057613ad0613b6b565b500390565b60005b83811015613af0578181015183820152602001613ad8565b838111156119a15750506000910152565b600181811c90821680613b1557607f821691505b60208210811415613b3657634e487b7160e01b600052602260045260246000fd5b50919050565b6000600019821415613b5057613b50613b6b565b5060010190565b600082613b6657613b66613b81565b500690565b634e487b7160e01b600052601160045260246000fd5b634e487b7160e01b600052601260045260246000fd5b634e487b7160e01b600052603160045260246000fd5b634e487b7160e01b600052603260045260246000fd5b634e487b7160e01b600052604160045260246000fd5b6001600160a01b038116811461243b57600080fd5b6001600160e01b03198116811461243b57600080fdfecba46644a699ab3d1e4b53ebd93e2dec3f27c5956d926c72d7e7e64c3a9f7836a264697066735822122013e8865f34aec593091b607c7ab212dc1b250cbbe11ef8dd296bf3e42bb97fef64736f6c63430008060033",
  "immutableReferences": {},
  "source": "pragma solidity ^0.8.0;\r\n\r\nimport \"@openzeppelin/contracts/token/ERC721/extensions/ERC721Enumerable.sol\";\r\nimport \"@openzeppelin/contracts/utils/Counters.sol\";\r\nimport \"@openzeppelin/contracts/access/Ownable.sol\";\r\n\r\ncontract NFTRental is Ownable, ERC721Enumerable {\r\n    using Counters for Counters.Counter;\r\n    \r\n    Counters.Counter private _tokenIds;\r\n    uint constant DAY_IN_SECONDS = 86400;\r\n    uint16 public constant MAX_NFT_SUPPLY = 1000;\r\n\r\n    struct nftData {\r\n        string name;\r\n        string imageUrl;\r\n        uint256 id;\r\n        bool isOnSale;\r\n        address payable lender;\r\n        //address custodian;\r\n        uint256 rentSeconds;\r\n        uint256 rentEndTime;\r\n        uint256 dailyPrice;\r\n        uint256 collateral;\r\n    }\r\n\r\n    struct userData {\r\n        string username;\r\n        uint256 userBalance;\r\n    }\r\n\r\n    event nftTransaction(\r\n        uint256 indexed id,\r\n        uint8 maxDurationInDays,\r\n        uint256 dailyPrice,\r\n        uint256 collateral,\r\n        uint256 rentEndTime,\r\n        string transactionType,\r\n        address fromAddress,\r\n        address toAddress,\r\n        uint256 value\r\n    );\r\n\r\n    mapping(address => userData) public users;\r\n\r\n    nftData[] public nfts;\r\n    uint256 public maxSupply;\r\n    uint256 public rentFee = 50; // in basis points, so 50 => 0.5%\r\n\r\n    constructor() ERC721(\"NFTRental\", \"NFTR\") {}\r\n    \r\n    \r\n    function setRentFee(uint256 _rentFee) external onlyOwner {\r\n        require(_rentFee < 10000, \"Fee exceeds 100 percent.\");\r\n        rentFee = _rentFee;\r\n    }\r\n    \r\n    \r\n    function setUsername(string memory _username) public {\r\n        users[msg.sender].username = _username;\r\n    }\r\n    \r\n\r\n    /* for general NFT support\r\n    function safeTransfer(address _from, address _to, uint256 _tokenId) private {\r\n        if (isERC721(_tokenId) {\r\n            IERC721(_tokenId).transferFrom(_from, _to, _tokenId);\r\n        } else {\r\n            revert(\"We currently only support ERC721 tokens.\");\r\n        }\r\n    }\r\n    \r\n    // Currently only support ERC721 tokens\r\n    function isERC721(address _tokenId) private view returns (bool) {\r\n        return IERC165(_tokenId).supportsInterface(type(IERC721).interfaceId);\r\n    }\r\n    */\r\n    \r\n    \r\n    /*function withdrawMoney(uint256 _amount) public {\r\n        require(users[msg.sender].userBalance >= _amount, \"You do not have enough balance to withdraw this amount\");\r\n\r\n        users[msg.sender].userBalance -= _amount;\r\n        msg.sender.transfer(_amount);\r\n    }*/\r\n    \r\n\r\n\r\n    function putOnSale(uint256 _tokenId, uint8 _maxDurationInDays, uint256 _dailyPrice, uint256 _collateral) public {\r\n        require(msg.sender == this.ownerOf(_tokenId), \"You cannot put this item on sale, because you are not the owner of it\");\r\n        //require(msg.sender == nfts[_tokenId - 1].custodian, \"You cannot put this item on sale, because you are not its custodian\");\r\n        require(nfts[_tokenId - 1].isOnSale == false, \"Item is already on sale.\");\r\n        require(_maxDurationInDays > 0, \"You cannot lend the item for less than 0 days.\");\r\n        require(_dailyPrice >= 0, \"Daily rent price can not be negative.\");\r\n        require(_collateral >= 0, \"Collateral amount can not be negative.\");\r\n\r\n        nfts[_tokenId - 1].isOnSale = true;\r\n        nfts[_tokenId - 1].lender = payable(msg.sender);\r\n        nfts[_tokenId - 1].rentSeconds = _maxDurationInDays * DAY_IN_SECONDS;\r\n        nfts[_tokenId - 1].dailyPrice = _dailyPrice;\r\n        nfts[_tokenId - 1].collateral = _collateral;\r\n        uint256 value = _dailyPrice * _maxDurationInDays + _collateral;\r\n\r\n        approve(address(this), _tokenId);\r\n        // safeTransfer(msg.sender, address(this), _tokenId); // also checks that msg.sender in fact owns _tokenId\r\n\r\n        emit nftTransaction(\r\n            _tokenId,\r\n            _maxDurationInDays,\r\n            _dailyPrice,\r\n            _collateral,\r\n            0,\r\n            \"On Sale\",\r\n            msg.sender,\r\n            address(0x0),\r\n            value\r\n        ); \r\n    }\r\n\r\n    function cancelSale(uint256 _tokenId) public {\r\n        require(nfts[_tokenId - 1].isOnSale == true, \"Item should be on sale to cancel sale.\");\r\n        require(msg.sender == this.ownerOf(_tokenId), \"You cannot cancel the sale of this item, because you are not the owner.\");\r\n        //require(nfts[_tokenId - 1].custodian == msg.sender, \"You cannot cancel the sale of this item, because you did not put it on sale.\");\r\n\r\n        nfts[_tokenId - 1].isOnSale = false;\r\n        nfts[_tokenId - 1].lender = payable(address(0));\r\n\r\n        //safeTransfer(address(this), msg.sender, _tokenId);\r\n\r\n        emit nftTransaction(\r\n            _tokenId,\r\n            0,\r\n            0,\r\n            0,\r\n            0,\r\n            \"Sale Cancelled\",\r\n            msg.sender,\r\n            address(0),\r\n            0\r\n        ); \r\n    }\r\n\r\n    function buyFromSale(uint256 _tokenId) public payable {\r\n        require(msg.sender != this.ownerOf(_tokenId), \"You cannot borrow your own item!\");\r\n        require(msg.sender != nfts[_tokenId - 1].lender, \"You cannot borrow an item that you lend!\");\r\n        //require(nfts[_tokenId - 1].custodian != msg.sender, \"You cannot buy your own item.\");\r\n        require(nfts[_tokenId - 1].isOnSale == true, \"Item should be on sale for you to buy it.\");\r\n        \r\n        uint256 initialPrice = nfts[_tokenId - 1].dailyPrice * (nfts[_tokenId - 1].rentSeconds / DAY_IN_SECONDS) + nfts[_tokenId - 1].collateral;\r\n        require(initialPrice <= msg.value, \"The amount you sent is less than the price of rental (which is the price of the full rental period plus collateral.)\");\r\n        \r\n        require(this.getApproved(_tokenId) == address(this), \"Seller did not give allowance for us to sell this item.\");\r\n        \r\n        address sellerAddress = this.ownerOf(_tokenId);\r\n        this.safeTransferFrom(sellerAddress, msg.sender, _tokenId);\r\n        \r\n        //safeTransfer(address(this), msg.sender, _tokenId);\r\n        //users[lender].userBalance += msg.value;\r\n        // users[msg.sender].userBalance -= msg.value;\r\n        \r\n        nfts[_tokenId - 1].isOnSale = false;\r\n        //nfts[_tokenId - 1].custodian = msg.sender;\r\n        uint256 rentEndTime = block.timestamp + nfts[_tokenId - 1].rentSeconds;\r\n        nfts[_tokenId - 1].rentEndTime = rentEndTime;\r\n\r\n        // Allows lender to return NFT back\r\n        approve(address(this), _tokenId);\r\n\r\n        //(address(this)).receive(initialPrice)\r\n\r\n        emit nftTransaction(\r\n            _tokenId,\r\n            0,\r\n            0,\r\n            0,\r\n            rentEndTime,\r\n            \"NFT Sold\",\r\n            nfts[_tokenId - 1].lender,\r\n            msg.sender,\r\n            initialPrice\r\n        );\r\n    }\r\n    \r\n    function returnNFT(uint256 _tokenId) public {\r\n        require(msg.sender == this.ownerOf(_tokenId), \"You must own the item to return it.\");\r\n        //require(nfts[_tokenId - 1].custodian == msg.sender, \"Only the borrower can return the item.\");\r\n        require(nfts[_tokenId - 1].isOnSale == false, \"Item must not be on sale.\");\r\n\r\n        // return some rent money to borrower when they return early along with their collateral\r\n        uint256 secondsRented = block.timestamp - (nfts[_tokenId - 1].rentEndTime - nfts[_tokenId - 1].rentSeconds);\r\n        uint256 moneyBack = nfts[_tokenId - 1].dailyPrice * ((nfts[_tokenId - 1].rentSeconds - secondsRented) / DAY_IN_SECONDS) + nfts[_tokenId - 1].collateral;\r\n        (payable(msg.sender)).transfer(moneyBack); \r\n        \r\n        // send rent to lender\r\n        uint256 rentToLender = nfts[_tokenId - 1].dailyPrice / DAY_IN_SECONDS * secondsRented;\r\n        (nfts[_tokenId - 1].lender).transfer(rentToLender*((10000-rentFee)/10000)); // small fee is taken and kept in contract\r\n\r\n        emit nftTransaction(\r\n            _tokenId,\r\n            0,\r\n            0,\r\n            0,\r\n            0,\r\n            \"NFT Returned\",\r\n            address(this),\r\n            msg.sender,\r\n            moneyBack\r\n        );\r\n\r\n        nfts[_tokenId - 1].isOnSale = false;\r\n        nfts[_tokenId - 1].rentSeconds = 0;\r\n        nfts[_tokenId - 1].dailyPrice = 0;\r\n        nfts[_tokenId - 1].collateral = 0;\r\n        nfts[_tokenId - 1].lender = payable(address(0));\r\n        \r\n        require(this.getApproved(_tokenId) == address(this), \"Borrower did not give allowance for us to return this item.\");\r\n        this.safeTransferFrom(msg.sender, nfts[_tokenId - 1].lender, _tokenId);\r\n        // delete nfts[_tokenId - 1];\r\n        \r\n    }\r\n    \r\n    function claimCollateral(uint256 _tokenId) public {\r\n        //require(msg.sender != nfts[_tokenId - 1].custodian, \"You cannot claim the collateral, because you are already the custodian of the item.\");\r\n        require(nfts[_tokenId - 1].isOnSale == false, \"You cannot claim the collateral, because the item is on sale.\");\r\n        require(msg.sender == nfts[_tokenId - 1].lender, \"You cannot claim the collateral, because you are not the lender of the item.\");\r\n        require(nfts[_tokenId - 1].rentEndTime < block.timestamp, \"You can not claim the collateral, since the rent time has not ended.\");\r\n        \r\n        //nfts[_tokenId - 1].custodian = address(0);\r\n        nfts[_tokenId - 1].lender = payable(address(0));\r\n        \r\n        // Send the full rent + collateral to lender.\r\n        uint256 moneyToLender = nfts[_tokenId - 1].dailyPrice / DAY_IN_SECONDS * nfts[_tokenId - 1].rentSeconds + nfts[_tokenId - 1].collateral;\r\n        (payable(msg.sender)).transfer(moneyToLender*((10000-rentFee)/10000));  // small fee is taken and kept in contract\r\n\r\n        emit nftTransaction(\r\n            _tokenId,\r\n            0,\r\n            0,\r\n            0,\r\n            0,\r\n            \"Collateral Claimed\",\r\n            address(this),\r\n            msg.sender,\r\n            moneyToLender\r\n        ); \r\n    }\r\n\r\n\r\n    function mintNFT(string memory _name, string memory _imageUrl) public returns (uint256) {\r\n        _tokenIds.increment();\r\n        uint256 newItemId = _tokenIds.current();\r\n        require(newItemId < MAX_NFT_SUPPLY, \"You cannot mint any more items since you already reached the maximum supply\");\r\n\r\n        nfts.push(\r\n            nftData(\r\n                _name,\r\n                _imageUrl,\r\n                newItemId,\r\n                false,\r\n                payable(address(0x0)),\r\n                //address(msg.sender),\r\n                0,\r\n                0,\r\n                0,\r\n                0\r\n            )\r\n        );\r\n        \r\n        _mint(msg.sender, newItemId);\r\n        \r\n        emit nftTransaction(\r\n            newItemId,\r\n            0,\r\n            0,\r\n            0,\r\n            0,\r\n            \"NFT Minted\",\r\n            address(0x0),\r\n            msg.sender, \r\n            0\r\n        );\r\n       \r\n        return newItemId;\r\n    }\r\n}",
  "sourcePath": "/mnt/c/Programming Projects/Copenhagen University/BBD/nft-rental/truffle/contracts/NFTRental.sol",
  "compiler": {
    "name": "solc",
    "version": "0.8.6+commit.11564f7e.Emscripten.clang"
  },
  "schemaVersion": "3.4.3",
  "updatedAt": "2021-11-06T22:50:24.638Z",
  "networkType": "ethereum",
  "devdoc": {
    "kind": "dev",
    "methods": {
      "approve(address,uint256)": {
        "details": "See {IERC721-approve}."
      },
      "balanceOf(address)": {
        "details": "See {IERC721-balanceOf}."
      },
      "getApproved(uint256)": {
        "details": "See {IERC721-getApproved}."
      },
      "isApprovedForAll(address,address)": {
        "details": "See {IERC721-isApprovedForAll}."
      },
      "name()": {
        "details": "See {IERC721Metadata-name}."
      },
      "owner()": {
        "details": "Returns the address of the current owner."
      },
      "ownerOf(uint256)": {
        "details": "See {IERC721-ownerOf}."
      },
      "renounceOwnership()": {
        "details": "Leaves the contract without owner. It will not be possible to call `onlyOwner` functions anymore. Can only be called by the current owner. NOTE: Renouncing ownership will leave the contract without an owner, thereby removing any functionality that is only available to the owner."
      },
      "safeTransferFrom(address,address,uint256)": {
        "details": "See {IERC721-safeTransferFrom}."
      },
      "safeTransferFrom(address,address,uint256,bytes)": {
        "details": "See {IERC721-safeTransferFrom}."
      },
      "setApprovalForAll(address,bool)": {
        "details": "See {IERC721-setApprovalForAll}."
      },
      "supportsInterface(bytes4)": {
        "details": "See {IERC165-supportsInterface}."
      },
      "symbol()": {
        "details": "See {IERC721Metadata-symbol}."
      },
      "tokenByIndex(uint256)": {
        "details": "See {IERC721Enumerable-tokenByIndex}."
      },
      "tokenOfOwnerByIndex(address,uint256)": {
        "details": "See {IERC721Enumerable-tokenOfOwnerByIndex}."
      },
      "tokenURI(uint256)": {
        "details": "See {IERC721Metadata-tokenURI}."
      },
      "totalSupply()": {
        "details": "See {IERC721Enumerable-totalSupply}."
      },
      "transferFrom(address,address,uint256)": {
        "details": "See {IERC721-transferFrom}."
      },
      "transferOwnership(address)": {
        "details": "Transfers ownership of the contract to a new account (`newOwner`). Can only be called by the current owner."
      }
    },
    "version": 1
  },
  "userdoc": {
    "kind": "user",
    "methods": {},
    "version": 1
  }
}