{
  "contractName": "NFTRental",
  "abi": [
    {
      "inputs": [],
      "stateMutability": "nonpayable",
      "type": "constructor"
    },
    {
      "anonymous": false,
      "inputs": [
        {
          "indexed": true,
          "internalType": "address",
          "name": "owner",
          "type": "address"
        },
        {
          "indexed": true,
          "internalType": "address",
          "name": "approved",
          "type": "address"
        },
        {
          "indexed": true,
          "internalType": "uint256",
          "name": "tokenId",
          "type": "uint256"
        }
      ],
      "name": "Approval",
      "type": "event"
    },
    {
      "anonymous": false,
      "inputs": [
        {
          "indexed": true,
          "internalType": "address",
          "name": "owner",
          "type": "address"
        },
        {
          "indexed": true,
          "internalType": "address",
          "name": "operator",
          "type": "address"
        },
        {
          "indexed": false,
          "internalType": "bool",
          "name": "approved",
          "type": "bool"
        }
      ],
      "name": "ApprovalForAll",
      "type": "event"
    },
    {
      "anonymous": false,
      "inputs": [
        {
          "indexed": true,
          "internalType": "address",
          "name": "previousOwner",
          "type": "address"
        },
        {
          "indexed": true,
          "internalType": "address",
          "name": "newOwner",
          "type": "address"
        }
      ],
      "name": "OwnershipTransferred",
      "type": "event"
    },
    {
      "anonymous": false,
      "inputs": [
        {
          "indexed": true,
          "internalType": "address",
          "name": "from",
          "type": "address"
        },
        {
          "indexed": true,
          "internalType": "address",
          "name": "to",
          "type": "address"
        },
        {
          "indexed": true,
          "internalType": "uint256",
          "name": "tokenId",
          "type": "uint256"
        }
      ],
      "name": "Transfer",
      "type": "event"
    },
    {
      "anonymous": false,
      "inputs": [
        {
          "indexed": true,
          "internalType": "uint256",
          "name": "id",
          "type": "uint256"
        },
        {
          "indexed": false,
          "internalType": "uint8",
          "name": "maxDurationInDays",
          "type": "uint8"
        },
        {
          "indexed": false,
          "internalType": "uint256",
          "name": "dailyPrice",
          "type": "uint256"
        },
        {
          "indexed": false,
          "internalType": "uint256",
          "name": "collateral",
          "type": "uint256"
        },
        {
          "indexed": false,
          "internalType": "uint256",
          "name": "rentEndTime",
          "type": "uint256"
        },
        {
          "indexed": false,
          "internalType": "string",
          "name": "transactionType",
          "type": "string"
        },
        {
          "indexed": false,
          "internalType": "address",
          "name": "fromAddress",
          "type": "address"
        },
        {
          "indexed": false,
          "internalType": "address",
          "name": "toAddress",
          "type": "address"
        },
        {
          "indexed": false,
          "internalType": "uint256",
          "name": "value",
          "type": "uint256"
        }
      ],
      "name": "nftTransaction",
      "type": "event"
    },
    {
      "inputs": [],
      "name": "MAX_NFT_SUPPLY",
      "outputs": [
        {
          "internalType": "uint16",
          "name": "",
          "type": "uint16"
        }
      ],
      "stateMutability": "view",
      "type": "function",
      "constant": true
    },
    {
      "inputs": [
        {
          "internalType": "address",
          "name": "to",
          "type": "address"
        },
        {
          "internalType": "uint256",
          "name": "tokenId",
          "type": "uint256"
        }
      ],
      "name": "approve",
      "outputs": [],
      "stateMutability": "nonpayable",
      "type": "function"
    },
    {
      "inputs": [
        {
          "internalType": "address",
          "name": "owner",
          "type": "address"
        }
      ],
      "name": "balanceOf",
      "outputs": [
        {
          "internalType": "uint256",
          "name": "",
          "type": "uint256"
        }
      ],
      "stateMutability": "view",
      "type": "function",
      "constant": true
    },
    {
      "inputs": [
        {
          "internalType": "uint256",
          "name": "tokenId",
          "type": "uint256"
        }
      ],
      "name": "getApproved",
      "outputs": [
        {
          "internalType": "address",
          "name": "",
          "type": "address"
        }
      ],
      "stateMutability": "view",
      "type": "function",
      "constant": true
    },
    {
      "inputs": [
        {
          "internalType": "address",
          "name": "owner",
          "type": "address"
        },
        {
          "internalType": "address",
          "name": "operator",
          "type": "address"
        }
      ],
      "name": "isApprovedForAll",
      "outputs": [
        {
          "internalType": "bool",
          "name": "",
          "type": "bool"
        }
      ],
      "stateMutability": "view",
      "type": "function",
      "constant": true
    },
    {
      "inputs": [],
      "name": "maxSupply",
      "outputs": [
        {
          "internalType": "uint256",
          "name": "",
          "type": "uint256"
        }
      ],
      "stateMutability": "view",
      "type": "function",
      "constant": true
    },
    {
      "inputs": [],
      "name": "name",
      "outputs": [
        {
          "internalType": "string",
          "name": "",
          "type": "string"
        }
      ],
      "stateMutability": "view",
      "type": "function",
      "constant": true
    },
    {
      "inputs": [
        {
          "internalType": "uint256",
          "name": "",
          "type": "uint256"
        }
      ],
      "name": "nfts",
      "outputs": [
        {
          "internalType": "string",
          "name": "name",
          "type": "string"
        },
        {
          "internalType": "string",
          "name": "imageUrl",
          "type": "string"
        },
        {
          "internalType": "uint256",
          "name": "id",
          "type": "uint256"
        },
        {
          "internalType": "bool",
          "name": "isOnSale",
          "type": "bool"
        },
        {
          "internalType": "address payable",
          "name": "lender",
          "type": "address"
        },
        {
          "internalType": "uint256",
          "name": "rentSeconds",
          "type": "uint256"
        },
        {
          "internalType": "uint256",
          "name": "rentEndTime",
          "type": "uint256"
        },
        {
          "internalType": "uint256",
          "name": "dailyPrice",
          "type": "uint256"
        },
        {
          "internalType": "uint256",
          "name": "collateral",
          "type": "uint256"
        }
      ],
      "stateMutability": "view",
      "type": "function",
      "constant": true
    },
    {
      "inputs": [],
      "name": "owner",
      "outputs": [
        {
          "internalType": "address",
          "name": "",
          "type": "address"
        }
      ],
      "stateMutability": "view",
      "type": "function",
      "constant": true
    },
    {
      "inputs": [
        {
          "internalType": "uint256",
          "name": "tokenId",
          "type": "uint256"
        }
      ],
      "name": "ownerOf",
      "outputs": [
        {
          "internalType": "address",
          "name": "",
          "type": "address"
        }
      ],
      "stateMutability": "view",
      "type": "function",
      "constant": true
    },
    {
      "inputs": [],
      "name": "renounceOwnership",
      "outputs": [],
      "stateMutability": "nonpayable",
      "type": "function"
    },
    {
      "inputs": [],
      "name": "rentFee",
      "outputs": [
        {
          "internalType": "uint256",
          "name": "",
          "type": "uint256"
        }
      ],
      "stateMutability": "view",
      "type": "function",
      "constant": true
    },
    {
      "inputs": [
        {
          "internalType": "address",
          "name": "from",
          "type": "address"
        },
        {
          "internalType": "address",
          "name": "to",
          "type": "address"
        },
        {
          "internalType": "uint256",
          "name": "tokenId",
          "type": "uint256"
        }
      ],
      "name": "safeTransferFrom",
      "outputs": [],
      "stateMutability": "nonpayable",
      "type": "function"
    },
    {
      "inputs": [
        {
          "internalType": "address",
          "name": "from",
          "type": "address"
        },
        {
          "internalType": "address",
          "name": "to",
          "type": "address"
        },
        {
          "internalType": "uint256",
          "name": "tokenId",
          "type": "uint256"
        },
        {
          "internalType": "bytes",
          "name": "_data",
          "type": "bytes"
        }
      ],
      "name": "safeTransferFrom",
      "outputs": [],
      "stateMutability": "nonpayable",
      "type": "function"
    },
    {
      "inputs": [
        {
          "internalType": "address",
          "name": "operator",
          "type": "address"
        },
        {
          "internalType": "bool",
          "name": "approved",
          "type": "bool"
        }
      ],
      "name": "setApprovalForAll",
      "outputs": [],
      "stateMutability": "nonpayable",
      "type": "function"
    },
    {
      "inputs": [
        {
          "internalType": "bytes4",
          "name": "interfaceId",
          "type": "bytes4"
        }
      ],
      "name": "supportsInterface",
      "outputs": [
        {
          "internalType": "bool",
          "name": "",
          "type": "bool"
        }
      ],
      "stateMutability": "view",
      "type": "function",
      "constant": true
    },
    {
      "inputs": [],
      "name": "symbol",
      "outputs": [
        {
          "internalType": "string",
          "name": "",
          "type": "string"
        }
      ],
      "stateMutability": "view",
      "type": "function",
      "constant": true
    },
    {
      "inputs": [
        {
          "internalType": "uint256",
          "name": "tokenId",
          "type": "uint256"
        }
      ],
      "name": "tokenURI",
      "outputs": [
        {
          "internalType": "string",
          "name": "",
          "type": "string"
        }
      ],
      "stateMutability": "view",
      "type": "function",
      "constant": true
    },
    {
      "inputs": [
        {
          "internalType": "address",
          "name": "from",
          "type": "address"
        },
        {
          "internalType": "address",
          "name": "to",
          "type": "address"
        },
        {
          "internalType": "uint256",
          "name": "tokenId",
          "type": "uint256"
        }
      ],
      "name": "transferFrom",
      "outputs": [],
      "stateMutability": "nonpayable",
      "type": "function"
    },
    {
      "inputs": [
        {
          "internalType": "address",
          "name": "newOwner",
          "type": "address"
        }
      ],
      "name": "transferOwnership",
      "outputs": [],
      "stateMutability": "nonpayable",
      "type": "function"
    },
    {
      "inputs": [
        {
          "internalType": "address",
          "name": "",
          "type": "address"
        }
      ],
      "name": "users",
      "outputs": [
        {
          "internalType": "string",
          "name": "username",
          "type": "string"
        },
        {
          "internalType": "uint256",
          "name": "userBalance",
          "type": "uint256"
        }
      ],
      "stateMutability": "view",
      "type": "function",
      "constant": true
    },
    {
      "inputs": [
        {
          "internalType": "uint256",
          "name": "_rentFee",
          "type": "uint256"
        }
      ],
      "name": "setRentFee",
      "outputs": [],
      "stateMutability": "nonpayable",
      "type": "function"
    },
    {
      "inputs": [
        {
          "internalType": "string",
          "name": "_username",
          "type": "string"
        }
      ],
      "name": "setUsername",
      "outputs": [],
      "stateMutability": "nonpayable",
      "type": "function"
    },
    {
      "inputs": [
        {
          "internalType": "uint256",
          "name": "_tokenId",
          "type": "uint256"
        },
        {
          "internalType": "uint8",
          "name": "_maxDurationInDays",
          "type": "uint8"
        },
        {
          "internalType": "uint256",
          "name": "_dailyPrice",
          "type": "uint256"
        },
        {
          "internalType": "uint256",
          "name": "_collateral",
          "type": "uint256"
        }
      ],
      "name": "putOnSale",
      "outputs": [],
      "stateMutability": "nonpayable",
      "type": "function"
    },
    {
      "inputs": [
        {
          "internalType": "uint256",
          "name": "_tokenId",
          "type": "uint256"
        }
      ],
      "name": "cancelSale",
      "outputs": [],
      "stateMutability": "nonpayable",
      "type": "function"
    },
    {
      "inputs": [
        {
          "internalType": "uint256",
          "name": "_tokenId",
          "type": "uint256"
        }
      ],
      "name": "buyFromSale",
      "outputs": [],
      "stateMutability": "payable",
      "type": "function",
      "payable": true
    },
    {
      "inputs": [
        {
          "internalType": "uint256",
          "name": "_tokenId",
          "type": "uint256"
        }
      ],
      "name": "returnNFT",
      "outputs": [],
      "stateMutability": "nonpayable",
      "type": "function"
    },
    {
      "inputs": [
        {
          "internalType": "uint256",
          "name": "_tokenId",
          "type": "uint256"
        }
      ],
      "name": "claimCollateral",
      "outputs": [],
      "stateMutability": "nonpayable",
      "type": "function"
    },
    {
      "inputs": [
        {
          "internalType": "string",
          "name": "_name",
          "type": "string"
        },
        {
          "internalType": "string",
          "name": "_imageUrl",
          "type": "string"
        }
      ],
      "name": "mintNFT",
      "outputs": [
        {
          "internalType": "uint256",
          "name": "",
          "type": "uint256"
        }
      ],
      "stateMutability": "nonpayable",
      "type": "function"
    }
  ],
  "bytecode": "0x60806040526032600b553480156200001657600080fd5b506040518060400160405280600981526020016813919514995b9d185b60ba1b8152506040518060400160405280600481526020016327232a2960e11b815250620000706200006a620000a460201b60201c565b620000a8565b815162000085906001906020850190620000f8565b5080516200009b906002906020840190620000f8565b505050620001db565b3390565b600080546001600160a01b038381166001600160a01b0319831681178455604051919092169283917f8be0079c531659141344cd1fd0a4f28419497f9722a3daafe3b4186f6b6457e09190a35050565b82805462000106906200019e565b90600052602060002090601f0160209004810192826200012a576000855562000175565b82601f106200014557805160ff191683800117855562000175565b8280016001018555821562000175579182015b828111156200017557825182559160200191906001019062000158565b506200018392915062000187565b5090565b5b8082111562000183576000815560010162000188565b600181811c90821680620001b357607f821691505b60208210811415620001d557634e487b7160e01b600052602260045260246000fd5b50919050565b61360d80620001eb6000396000f3fe6080604052600436106101c25760003560e01c8063a22cb465116100f7578063c49785b411610095578063e985e9c511610064578063e985e9c514610526578063ed59313a1461056f578063f2fde38b1461058f578063fc84afb4146105af57600080fd5b8063c49785b4146104b0578063c87b56dd146104d0578063d5abeb01146104f0578063e96055441461050657600080fd5b8063b5077f44116100d1578063b5077f4414610431578063b88d4fde1461045a578063bd94b0051461047a578063bf2b23ea1461049a57600080fd5b8063a22cb465146103c3578063a87430ba146103e3578063b0cd2aa01461041157600080fd5b806343618ead11610164578063715018a61161013e578063715018a61461035b57806376774ea3146103705780638da5cb5b1461039057806395d89b41146103ae57600080fd5b806343618ead146102ed5780636352211e1461030d57806370a082311461032d57600080fd5b8063095ea7b3116101a0578063095ea7b31461025657806323b872dd14610278578063265aa6211461029857806342842e0e146102cd57600080fd5b806301ffc9a7146101c757806306fdde03146101fc578063081812fc1461021e575b600080fd5b3480156101d357600080fd5b506101e76101e23660046130fe565b6105c2565b60405190151581526020015b60405180910390f35b34801561020857600080fd5b50610211610614565b6040516101f391906132c5565b34801561022a57600080fd5b5061023e6102393660046131d1565b6106a6565b6040516001600160a01b0390911681526020016101f3565b34801561026257600080fd5b506102766102713660046130d2565b610740565b005b34801561028457600080fd5b50610276610293366004612fde565b610856565b3480156102a457600080fd5b506102b86102b33660046131d1565b610887565b6040516101f3999897969594939291906132d8565b3480156102d957600080fd5b506102766102e8366004612fde565b610a06565b3480156102f957600080fd5b506102766103083660046131ea565b610a21565b34801561031957600080fd5b5061023e6103283660046131d1565b610de7565b34801561033957600080fd5b5061034d610348366004612f6b565b610e5e565b6040519081526020016101f3565b34801561036757600080fd5b50610276610ee5565b34801561037c57600080fd5b5061027661038b3660046131d1565b610f1b565b34801561039c57600080fd5b506000546001600160a01b031661023e565b3480156103ba57600080fd5b50610211610f9b565b3480156103cf57600080fd5b506102766103de36600461309f565b610faa565b3480156103ef57600080fd5b506104036103fe366004612f6b565b61106f565b6040516101f3929190613342565b34801561041d57600080fd5b5061027661042c3660046131d1565b611113565b34801561043d57600080fd5b506104476103e881565b60405161ffff90911681526020016101f3565b34801561046657600080fd5b5061027661047536600461301f565b6115b4565b34801561048657600080fd5b506102766104953660046131d1565b6115ec565b3480156104a657600080fd5b5061034d600b5481565b3480156104bc57600080fd5b506102766104cb3660046131d1565b61188f565b3480156104dc57600080fd5b506102116104eb3660046131d1565b611c95565b3480156104fc57600080fd5b5061034d600a5481565b34801561051257600080fd5b5061034d61052136600461316d565b611d7d565b34801561053257600080fd5b506101e7610541366004612fa5565b6001600160a01b03918216600090815260066020908152604080832093909416825291909152205460ff1690565b34801561057b57600080fd5b5061027661058a366004613138565b611fc4565b34801561059b57600080fd5b506102766105aa366004612f6b565b611fe8565b6102766105bd3660046131d1565b612083565b60006001600160e01b031982166380ac58cd60e01b14806105f357506001600160e01b03198216635b5e139f60e01b145b8061060e57506301ffc9a760e01b6001600160e01b03198316145b92915050565b606060018054610623906134ca565b80601f016020809104026020016040519081016040528092919081815260200182805461064f906134ca565b801561069c5780601f106106715761010080835404028352916020019161069c565b820191906000526020600020905b81548152906001019060200180831161067f57829003601f168201915b5050505050905090565b6000818152600360205260408120546001600160a01b03166107245760405162461bcd60e51b815260206004820152602c60248201527f4552433732313a20617070726f76656420717565727920666f72206e6f6e657860448201526b34b9ba32b73a103a37b5b2b760a11b60648201526084015b60405180910390fd5b506000908152600560205260409020546001600160a01b031690565b600061074b82610de7565b9050806001600160a01b0316836001600160a01b031614156107b95760405162461bcd60e51b815260206004820152602160248201527f4552433732313a20617070726f76616c20746f2063757272656e74206f776e656044820152603960f91b606482015260840161071b565b336001600160a01b03821614806107d557506107d58133610541565b6108475760405162461bcd60e51b815260206004820152603860248201527f4552433732313a20617070726f76652063616c6c6572206973206e6f74206f7760448201527f6e6572206e6f7220617070726f76656420666f7220616c6c0000000000000000606482015260840161071b565b610851838361272d565b505050565b610860338261279b565b61087c5760405162461bcd60e51b815260040161071b906133eb565b610851838383612892565b6009818154811061089757600080fd5b90600052602060002090600802016000915090508060000180546108ba906134ca565b80601f01602080910402602001604051908101604052809291908181526020018280546108e6906134ca565b80156109335780601f1061090857610100808354040283529160200191610933565b820191906000526020600020905b81548152906001019060200180831161091657829003601f168201915b505050505090806001018054610948906134ca565b80601f0160208091040260200160405190810160405280929190818152602001828054610974906134ca565b80156109c15780601f10610996576101008083540402835291602001916109c1565b820191906000526020600020905b8154815290600101906020018083116109a457829003601f168201915b50505050600283015460038401546004850154600586015460068701546007909701549596939560ff841695506101009093046001600160a01b031693919290919089565b610851838383604051806020016040528060008152506115b4565b6040516331a9108f60e11b8152600481018590523090636352211e9060240160206040518083038186803b158015610a5857600080fd5b505afa158015610a6c573d6000803e3d6000fd5b505050506040513d601f19601f82011682018060405250810190610a909190612f88565b6001600160a01b0316336001600160a01b031614610b245760405162461bcd60e51b815260206004820152604560248201527f596f752063616e6e6f74207075742074686973206974656d206f6e2073616c6560448201527f2c206265636175736520796f7520617265206e6f7420746865206f776e6572206064820152641bd9881a5d60da1b608482015260a40161071b565b6009610b31600186613487565b81548110610b4157610b41613560565b600091825260209091206003600890920201015460ff1615610ba55760405162461bcd60e51b815260206004820152601860248201527f4974656d20697320616c7265616479206f6e2073616c652e0000000000000000604482015260640161071b565b60008360ff1611610c0f5760405162461bcd60e51b815260206004820152602e60248201527f596f752063616e6e6f74206c656e6420746865206974656d20666f72206c657360448201526d39903a3430b71018103230bcb99760911b606482015260840161071b565b60016009610c1d8287613487565b81548110610c2d57610c2d613560565b60009182526020909120600890910201600301805460ff1916911515919091179055336009610c5d600187613487565b81548110610c6d57610c6d613560565b906000526020600020906008020160030160016101000a8154816001600160a01b0302191690836001600160a01b03160217905550620151808360ff16610cb49190613468565b6009610cc1600187613487565b81548110610cd157610cd1613560565b6000918252602090912060046008909202010155816009610cf3600187613487565b81548110610d0357610d03613560565b6000918252602090912060066008909202010155806009610d25600187613487565b81548110610d3557610d35613560565b6000918252602082206007600890920201019190915581610d5960ff861685613468565b610d63919061343c565b9050610d6f3086610740565b6040805160ff861681526020810185905290810183905260006060820181905261010060808301819052600790830152664f6e2053616c6560c81b6101208301523360a083015260c082015260e0810182905285906000805160206135b8833981519152906101400160405180910390a25050505050565b6000818152600360205260408120546001600160a01b03168061060e5760405162461bcd60e51b815260206004820152602960248201527f4552433732313a206f776e657220717565727920666f72206e6f6e657869737460448201526832b73a103a37b5b2b760b91b606482015260840161071b565b60006001600160a01b038216610ec95760405162461bcd60e51b815260206004820152602a60248201527f4552433732313a2062616c616e636520717565727920666f7220746865207a65604482015269726f206164647265737360b01b606482015260840161071b565b506001600160a01b031660009081526004602052604090205490565b6000546001600160a01b03163314610f0f5760405162461bcd60e51b815260040161071b906133b6565b610f196000612a32565b565b6000546001600160a01b03163314610f455760405162461bcd60e51b815260040161071b906133b6565b6127108110610f965760405162461bcd60e51b815260206004820152601860248201527f4665652065786365656473203130302070657263656e742e0000000000000000604482015260640161071b565b600b55565b606060028054610623906134ca565b6001600160a01b0382163314156110035760405162461bcd60e51b815260206004820152601960248201527f4552433732313a20617070726f766520746f2063616c6c657200000000000000604482015260640161071b565b3360008181526006602090815260408083206001600160a01b03871680855290835292819020805460ff191686151590811790915590519081529192917f17307eab39ab6107e8899845ad3d59bd9653f200f220920489ca2b5937696c31910160405180910390a35050565b60086020526000908152604090208054819061108a906134ca565b80601f01602080910402602001604051908101604052809291908181526020018280546110b6906134ca565b80156111035780601f106110d857610100808354040283529160200191611103565b820191906000526020600020905b8154815290600101906020018083116110e657829003601f168201915b5050505050908060010154905082565b6040516331a9108f60e11b8152600481018290523090636352211e9060240160206040518083038186803b15801561114a57600080fd5b505afa15801561115e573d6000803e3d6000fd5b505050506040513d601f19601f820116820180604052508101906111829190612f88565b6001600160a01b0316336001600160a01b0316146111ee5760405162461bcd60e51b815260206004820152602360248201527f596f75206d757374206f776e20746865206974656d20746f2072657475726e2060448201526234ba1760e91b606482015260840161071b565b60096111fb600183613487565b8154811061120b5761120b613560565b600091825260209091206003600890920201015460ff161561126f5760405162461bcd60e51b815260206004820152601960248201527f4974656d206d757374206e6f74206265206f6e2073616c652e00000000000000604482015260640161071b565b6000600961127e600184613487565b8154811061128e5761128e613560565b90600052602060002090600802016004015460096001846112af9190613487565b815481106112bf576112bf613560565b9060005260206000209060080201600501546112db9190613487565b6112e59042613487565b9050600060096112f6600185613487565b8154811061130657611306613560565b9060005260206000209060080201600701546201518083600960018761132c9190613487565b8154811061133c5761133c613560565b9060005260206000209060080201600401546113589190613487565b6113629190613454565b600961136f600187613487565b8154811061137f5761137f613560565b90600052602060002090600802016006015461139b9190613468565b6113a5919061343c565b604051909150339082156108fc029083906000818181858888f193505050501580156113d5573d6000803e3d6000fd5b506000826201518060096113ea600188613487565b815481106113fa576113fa613560565b9060005260206000209060080201600601546114169190613454565b6114209190613468565b9050600961142f600186613487565b8154811061143f5761143f613560565b906000526020600020906008020160030160019054906101000a90046001600160a01b03166001600160a01b03166108fc612710600b546127106114839190613487565b61148d9190613454565b6114979084613468565b6040518115909202916000818181858888f193505050501580156114bf573d6000803e3d6000fd5b5060408051600080825260208201819052818301819052606082015261010060808201819052600c908201526b1391950814995d1d5c9b995960a21b6101208201523060a08201523360c082015260e08101849052905185916000805160206135b883398151915291908190036101400190a2600961153f600186613487565b8154811061154f5761154f613560565b600091825260208220600890910201906115698282612e02565b611577600183016000612e02565b506000600282018190556003820180546001600160a81b031916905560048201819055600582018190556006820181905560079091015550505050565b6115be338361279b565b6115da5760405162461bcd60e51b815260040161071b906133eb565b6115e684848484612a82565b50505050565b60096115f9600183613487565b8154811061160957611609613560565b600091825260209091206003600890920201015460ff1615156001146116805760405162461bcd60e51b815260206004820152602660248201527f4974656d2073686f756c64206265206f6e2073616c6520746f2063616e63656c6044820152651039b0b6329760d11b606482015260840161071b565b6040516331a9108f60e11b8152600481018290523090636352211e9060240160206040518083038186803b1580156116b757600080fd5b505afa1580156116cb573d6000803e3d6000fd5b505050506040513d601f19601f820116820180604052508101906116ef9190612f88565b6001600160a01b0316336001600160a01b0316146117855760405162461bcd60e51b815260206004820152604760248201527f596f752063616e6e6f742063616e63656c207468652073616c65206f6620746860448201527f6973206974656d2c206265636175736520796f7520617265206e6f74207468656064820152661037bbb732b91760c91b608482015260a40161071b565b60006009611794600184613487565b815481106117a4576117a4613560565b60009182526020822060089190910201600301805460ff19169215159290921790915560096117d4600184613487565b815481106117e4576117e4613560565b600091825260208083206008929092029091016003018054610100600160a81b0319166101006001600160a01b039590951685021790556040805183815291820183905281018290526060810182905260808101839052600e928101929092526d14d85b194810d85b98d95b1b195960921b6101208301523360a083015260c0820181905260e082015281906000805160206135b8833981519152906101400160405180910390a250565b600961189c600183613487565b815481106118ac576118ac613560565b600091825260209091206003600890920201015460ff16156119365760405162461bcd60e51b815260206004820152603d60248201527f596f752063616e6e6f7420636c61696d2074686520636f6c6c61746572616c2c60448201527f206265636175736520746865206974656d206973206f6e2073616c652e000000606482015260840161071b565b6009611943600183613487565b8154811061195357611953613560565b600091825260209091206008909102016003015461010090046001600160a01b031633146119fe5760405162461bcd60e51b815260206004820152604c60248201527f596f752063616e6e6f7420636c61696d2074686520636f6c6c61746572616c2c60448201527f206265636175736520796f7520617265206e6f7420746865206c656e6465722060648201526b37b3103a34329034ba32b69760a11b608482015260a40161071b565b426009611a0c600184613487565b81548110611a1c57611a1c613560565b90600052602060002090600802016005015410611aaf5760405162461bcd60e51b8152602060048201526044602482018190527f596f752063616e206e6f7420636c61696d2074686520636f6c6c61746572616c908201527f2c2073696e6365207468652072656e742074696d6520686173206e6f7420656e6064820152633232b21760e11b608482015260a40161071b565b60006009611abe600184613487565b81548110611ace57611ace613560565b906000526020600020906008020160030160016101000a8154816001600160a01b0302191690836001600160a01b0316021790555060006009600183611b149190613487565b81548110611b2457611b24613560565b9060005260206000209060080201600701546009600184611b459190613487565b81548110611b5557611b55613560565b906000526020600020906008020160040154620151806009600186611b7a9190613487565b81548110611b8a57611b8a613560565b906000526020600020906008020160060154611ba69190613454565b611bb09190613468565b611bba919061343c565b9050336001600160a01b03166108fc612710600b54612710611bdc9190613487565b611be69190613454565b611bf09084613468565b6040518115909202916000818181858888f19350505050158015611c18573d6000803e3d6000fd5b50604080516000808252602082018190528183018190526060820152610100608082018190526012908201527110dbdb1b185d195c985b0810db185a5b595960721b6101208201523060a08201523360c082015260e08101839052905183916000805160206135b883398151915291908190036101400190a25050565b6000818152600360205260409020546060906001600160a01b0316611d145760405162461bcd60e51b815260206004820152602f60248201527f4552433732314d657461646174613a2055524920717565727920666f72206e6f60448201526e3732bc34b9ba32b73a103a37b5b2b760891b606482015260840161071b565b6000611d2b60408051602081019091526000815290565b90506000815111611d4b5760405180602001604052806000815250611d76565b80611d5584612ab5565b604051602001611d66929190613259565b6040516020818303038152906040525b9392505050565b6000611d8d600780546001019055565b6000611d9860075490565b90506103e88110611e255760405162461bcd60e51b815260206004820152604b60248201527f596f752063616e6e6f74206d696e7420616e79206d6f7265206974656d73207360448201527f696e636520796f7520616c7265616479207265616368656420746865206d617860648201526a696d756d20737570706c7960a81b608482015260a40161071b565b604080516101208101825285815260208082018690529181018390526000606082018190526080820181905260a0820181905260c0820181905260e08201819052610100820181905260098054600181018255915281518051929360089092027f6e1540171b6c0c960b71a7020d9f60077f6af931a8bbf590da0223dacf75c7af0192611eb59284920190612e3c565b506020828101518051611ece9260018501920190612e3c565b5060408201516002820155606082015160038201805460808501516001600160a81b0319909116921515610100600160a81b031916929092176101006001600160a01b03909316830217905560a0830151600483015560c0830151600583015560e0830151600683015590910151600790910155611f4c3382612bb3565b604080516000808252602082018190528183018190526060820181905261010060808301819052600a908301526913919508135a5b9d195960b21b61012083015260a082018190523360c083015260e0820152905182916000805160206135b883398151915291908190036101400190a29392505050565b3360009081526008602090815260409091208251611fe492840190612e3c565b5050565b6000546001600160a01b031633146120125760405162461bcd60e51b815260040161071b906133b6565b6001600160a01b0381166120775760405162461bcd60e51b815260206004820152602660248201527f4f776e61626c653a206e6577206f776e657220697320746865207a65726f206160448201526564647265737360d01b606482015260840161071b565b61208081612a32565b50565b6040516331a9108f60e11b8152600481018290523090636352211e9060240160206040518083038186803b1580156120ba57600080fd5b505afa1580156120ce573d6000803e3d6000fd5b505050506040513d601f19601f820116820180604052508101906120f29190612f88565b6001600160a01b0316336001600160a01b031614156121535760405162461bcd60e51b815260206004820181905260248201527f596f752063616e6e6f7420626f72726f7720796f7572206f776e206974656d21604482015260640161071b565b6009612160600183613487565b8154811061217057612170613560565b600091825260209091206008909102016003015461010090046001600160a01b03163314156121f25760405162461bcd60e51b815260206004820152602860248201527f596f752063616e6e6f7420626f72726f7720616e206974656d207468617420796044820152676f75206c656e642160c01b606482015260840161071b565b60096121ff600183613487565b8154811061220f5761220f613560565b600091825260209091206003600890920201015460ff1615156001146122895760405162461bcd60e51b815260206004820152602960248201527f4974656d2073686f756c64206265206f6e2073616c6520666f7220796f7520746044820152683790313abc9034ba1760b91b606482015260840161071b565b60006009612298600184613487565b815481106122a8576122a8613560565b9060005260206000209060080201600701546201518060096001856122cd9190613487565b815481106122dd576122dd613560565b9060005260206000209060080201600401546122f99190613454565b6009612306600186613487565b8154811061231657612316613560565b9060005260206000209060080201600601546123329190613468565b61233c919061343c565b9050348111156123f75760405162461bcd60e51b815260206004820152607460248201527f54686520616d6f756e7420796f752073656e74206973206c657373207468616e60448201527f20746865207072696365206f662072656e74616c20287768696368206973207460648201527f6865207072696365206f66207468652066756c6c2072656e74616c20706572696084820152736f6420706c757320636f6c6c61746572616c2e2960601b60a482015260c40161071b565b60405163020604bf60e21b8152600481018390523090819063081812fc9060240160206040518083038186803b15801561243057600080fd5b505afa158015612444573d6000803e3d6000fd5b505050506040513d601f19601f820116820180604052508101906124689190612f88565b6001600160a01b0316146124e45760405162461bcd60e51b815260206004820152603760248201527f53656c6c657220646964206e6f74206769766520616c6c6f77616e636520666f60448201527f7220757320746f2073656c6c2074686973206974656d2e000000000000000000606482015260840161071b565b6040516331a9108f60e11b8152600481018390526000903090636352211e9060240160206040518083038186803b15801561251e57600080fd5b505afa158015612532573d6000803e3d6000fd5b505050506040513d601f19601f820116820180604052508101906125569190612f88565b604051632142170760e11b81526001600160a01b03821660048201523360248201526044810185905290915030906342842e0e90606401600060405180830381600087803b1580156125a757600080fd5b505af11580156125bb573d6000803e3d6000fd5b50505050600060096001856125d09190613487565b815481106125e0576125e0613560565b60009182526020822060089190910201600301805460ff1916921515929092179091556009612610600186613487565b8154811061262057612620613560565b9060005260206000209060080201600401544261263d919061343c565b905080600961264d600187613487565b8154811061265d5761265d613560565b906000526020600020906008020160050181905550836000805160206135b8833981519152600080600085600960018b6126979190613487565b815481106126a7576126a7613560565b6000918252602091829020600891820201600301546040805160ff989098168852928701959095529085019290925260608401526101006080840181905280840191909152671391950814dbdb1960c21b61012084015290046001600160a01b031660a08201523360c082015260e081018690526101400160405180910390a250505050565b600081815260056020526040902080546001600160a01b0319166001600160a01b038416908117909155819061276282610de7565b6001600160a01b03167f8c5be1e5ebec7d5bd14f71427d1e84f3dd0314c0f7b2291e5b200ac8c7c3b92560405160405180910390a45050565b6000818152600360205260408120546001600160a01b03166128145760405162461bcd60e51b815260206004820152602c60248201527f4552433732313a206f70657261746f7220717565727920666f72206e6f6e657860448201526b34b9ba32b73a103a37b5b2b760a11b606482015260840161071b565b600061281f83610de7565b9050806001600160a01b0316846001600160a01b0316148061285a5750836001600160a01b031661284f846106a6565b6001600160a01b0316145b8061288a57506001600160a01b0380821660009081526006602090815260408083209388168352929052205460ff165b949350505050565b826001600160a01b03166128a582610de7565b6001600160a01b03161461290d5760405162461bcd60e51b815260206004820152602960248201527f4552433732313a207472616e73666572206f6620746f6b656e2074686174206960448201526839903737ba1037bbb760b91b606482015260840161071b565b6001600160a01b03821661296f5760405162461bcd60e51b8152602060048201526024808201527f4552433732313a207472616e7366657220746f20746865207a65726f206164646044820152637265737360e01b606482015260840161071b565b61297a60008261272d565b6001600160a01b03831660009081526004602052604081208054600192906129a3908490613487565b90915550506001600160a01b03821660009081526004602052604081208054600192906129d190849061343c565b909155505060008181526003602052604080822080546001600160a01b0319166001600160a01b0386811691821790925591518493918716917fddf252ad1be2c89b69c2b068fc378daa952ba7f163c4a11628f55a4df523b3ef91a4505050565b600080546001600160a01b038381166001600160a01b0319831681178455604051919092169283917f8be0079c531659141344cd1fd0a4f28419497f9722a3daafe3b4186f6b6457e09190a35050565b612a8d848484612892565b612a9984848484612cf5565b6115e65760405162461bcd60e51b815260040161071b90613364565b606081612ad95750506040805180820190915260018152600360fc1b602082015290565b8160005b8115612b035780612aed81613505565b9150612afc9050600a83613454565b9150612add565b60008167ffffffffffffffff811115612b1e57612b1e613576565b6040519080825280601f01601f191660200182016040528015612b48576020820181803683370190505b5090505b841561288a57612b5d600183613487565b9150612b6a600a86613520565b612b7590603061343c565b60f81b818381518110612b8a57612b8a613560565b60200101906001600160f81b031916908160001a905350612bac600a86613454565b9450612b4c565b6001600160a01b038216612c095760405162461bcd60e51b815260206004820181905260248201527f4552433732313a206d696e7420746f20746865207a65726f2061646472657373604482015260640161071b565b6000818152600360205260409020546001600160a01b031615612c6e5760405162461bcd60e51b815260206004820152601c60248201527f4552433732313a20746f6b656e20616c7265616479206d696e74656400000000604482015260640161071b565b6001600160a01b0382166000908152600460205260408120805460019290612c9790849061343c565b909155505060008181526003602052604080822080546001600160a01b0319166001600160a01b03861690811790915590518392907fddf252ad1be2c89b69c2b068fc378daa952ba7f163c4a11628f55a4df523b3ef908290a45050565b60006001600160a01b0384163b15612df757604051630a85bd0160e11b81526001600160a01b0385169063150b7a0290612d39903390899088908890600401613288565b602060405180830381600087803b158015612d5357600080fd5b505af1925050508015612d83575060408051601f3d908101601f19168201909252612d809181019061311b565b60015b612ddd573d808015612db1576040519150601f19603f3d011682016040523d82523d6000602084013e612db6565b606091505b508051612dd55760405162461bcd60e51b815260040161071b90613364565b805181602001fd5b6001600160e01b031916630a85bd0160e11b14905061288a565b506001949350505050565b508054612e0e906134ca565b6000825580601f10612e1e575050565b601f0160209004906000526020600020908101906120809190612ec0565b828054612e48906134ca565b90600052602060002090601f016020900481019282612e6a5760008555612eb0565b82601f10612e8357805160ff1916838001178555612eb0565b82800160010185558215612eb0579182015b82811115612eb0578251825591602001919060010190612e95565b50612ebc929150612ec0565b5090565b5b80821115612ebc5760008155600101612ec1565b600067ffffffffffffffff80841115612ef057612ef0613576565b604051601f8501601f19908116603f01168101908282118183101715612f1857612f18613576565b81604052809350858152868686011115612f3157600080fd5b858560208301376000602087830101525050509392505050565b600082601f830112612f5c57600080fd5b611d7683833560208501612ed5565b600060208284031215612f7d57600080fd5b8135611d768161358c565b600060208284031215612f9a57600080fd5b8151611d768161358c565b60008060408385031215612fb857600080fd5b8235612fc38161358c565b91506020830135612fd38161358c565b809150509250929050565b600080600060608486031215612ff357600080fd5b8335612ffe8161358c565b9250602084013561300e8161358c565b929592945050506040919091013590565b6000806000806080858703121561303557600080fd5b84356130408161358c565b935060208501356130508161358c565b925060408501359150606085013567ffffffffffffffff81111561307357600080fd5b8501601f8101871361308457600080fd5b61309387823560208401612ed5565b91505092959194509250565b600080604083850312156130b257600080fd5b82356130bd8161358c565b915060208301358015158114612fd357600080fd5b600080604083850312156130e557600080fd5b82356130f08161358c565b946020939093013593505050565b60006020828403121561311057600080fd5b8135611d76816135a1565b60006020828403121561312d57600080fd5b8151611d76816135a1565b60006020828403121561314a57600080fd5b813567ffffffffffffffff81111561316157600080fd5b61288a84828501612f4b565b6000806040838503121561318057600080fd5b823567ffffffffffffffff8082111561319857600080fd5b6131a486838701612f4b565b935060208501359150808211156131ba57600080fd5b506131c785828601612f4b565b9150509250929050565b6000602082840312156131e357600080fd5b5035919050565b6000806000806080858703121561320057600080fd5b84359350602085013560ff8116811461321857600080fd5b93969395505050506040820135916060013590565b6000815180845261324581602086016020860161349e565b601f01601f19169290920160200192915050565b6000835161326b81846020880161349e565b83519083019061327f81836020880161349e565b01949350505050565b6001600160a01b03858116825284166020820152604081018390526080606082018190526000906132bb9083018461322d565b9695505050505050565b602081526000611d76602083018461322d565b60006101208083526132ec8184018d61322d565b90508281036020840152613300818c61322d565b604084019a909a52505095151560608701526001600160a01b0394909416608086015260a085019290925260c084015260e08301526101009091015292915050565b604081526000613355604083018561322d565b90508260208301529392505050565b60208082526032908201527f4552433732313a207472616e7366657220746f206e6f6e20455243373231526560408201527131b2b4bb32b91034b6b83632b6b2b73a32b960711b606082015260800190565b6020808252818101527f4f776e61626c653a2063616c6c6572206973206e6f7420746865206f776e6572604082015260600190565b60208082526031908201527f4552433732313a207472616e736665722063616c6c6572206973206e6f74206f6040820152701ddb995c881b9bdc88185c1c1c9bdd9959607a1b606082015260800190565b6000821982111561344f5761344f613534565b500190565b6000826134635761346361354a565b500490565b600081600019048311821515161561348257613482613534565b500290565b60008282101561349957613499613534565b500390565b60005b838110156134b95781810151838201526020016134a1565b838111156115e65750506000910152565b600181811c908216806134de57607f821691505b602082108114156134ff57634e487b7160e01b600052602260045260246000fd5b50919050565b600060001982141561351957613519613534565b5060010190565b60008261352f5761352f61354a565b500690565b634e487b7160e01b600052601160045260246000fd5b634e487b7160e01b600052601260045260246000fd5b634e487b7160e01b600052603260045260246000fd5b634e487b7160e01b600052604160045260246000fd5b6001600160a01b038116811461208057600080fd5b6001600160e01b03198116811461208057600080fdfecba46644a699ab3d1e4b53ebd93e2dec3f27c5956d926c72d7e7e64c3a9f7836a2646970667358221220ce77a48fa37e7255f0569e8c3cd3d1590d363ed1f0093f62cf7b578811ba1c7c64736f6c63430008060033",
  "immutableReferences": {},
  "source": "pragma solidity ^0.8.0;\r\n\r\nimport \"@openzeppelin/contracts/token/ERC721/ERC721.sol\";\r\nimport \"@openzeppelin/contracts/utils/Counters.sol\";\r\nimport \"@openzeppelin/contracts/access/Ownable.sol\";\r\n\r\ncontract NFTRental is Ownable, ERC721 {\r\n    using Counters for Counters.Counter;\r\n    \r\n    Counters.Counter private _tokenIds;\r\n    uint constant DAY_IN_SECONDS = 86400;\r\n    uint16 public constant MAX_NFT_SUPPLY = 1000;\r\n\r\n    struct nftData {\r\n        string name;\r\n        string imageUrl;\r\n        uint256 id;\r\n        bool isOnSale;\r\n        address payable lender;\r\n        //address custodian;\r\n        uint256 rentSeconds;\r\n        uint256 rentEndTime;\r\n        uint256 dailyPrice;\r\n        uint256 collateral;\r\n    }\r\n\r\n    struct userData {\r\n        string username;\r\n        uint256 userBalance;\r\n    }\r\n\r\n    event nftTransaction(\r\n        uint256 indexed id,\r\n        uint8 maxDurationInDays,\r\n        uint256 dailyPrice,\r\n        uint256 collateral,\r\n        uint256 rentEndTime,\r\n        string transactionType,\r\n        address fromAddress,\r\n        address toAddress,\r\n        uint256 value\r\n    );\r\n\r\n    mapping(address => userData) public users;\r\n\r\n    nftData[] public nfts;\r\n    uint256 public maxSupply;\r\n    uint256 public rentFee = 50; // in basis points, so 50 => 0.5%\r\n\r\n    constructor() ERC721(\"NFTRental\", \"NFTR\") {}\r\n    \r\n    \r\n    function setRentFee(uint256 _rentFee) external onlyOwner {\r\n        require(_rentFee < 10000, \"Fee exceeds 100 percent.\");\r\n        rentFee = _rentFee;\r\n    }\r\n    \r\n    \r\n    function setUsername(string memory _username) public {\r\n        users[msg.sender].username = _username;\r\n    }\r\n    \r\n    \r\n    /* for general NFT support\r\n    function safeTransfer(address _from, address _to, uint256 _tokenId) private {\r\n        if (isERC721(_tokenId) {\r\n            IERC721(_tokenId).transferFrom(_from, _to, _tokenId);\r\n        } else {\r\n            revert(\"We currently only support ERC721 tokens.\");\r\n        }\r\n    }\r\n    \r\n    // Currently only support ERC721 tokens\r\n    function isERC721(address _tokenId) private view returns (bool) {\r\n        return IERC165(_tokenId).supportsInterface(type(IERC721).interfaceId);\r\n    }\r\n    */\r\n    \r\n    \r\n    /*function withdrawMoney(uint256 _amount) public {\r\n        require(users[msg.sender].userBalance >= _amount, \"You do not have enough balance to withdraw this amount\");\r\n\r\n        users[msg.sender].userBalance -= _amount;\r\n        msg.sender.transfer(_amount);\r\n    }*/\r\n    \r\n\r\n\r\n    function putOnSale(uint256 _tokenId, uint8 _maxDurationInDays, uint256 _dailyPrice, uint256 _collateral) public {\r\n        require(msg.sender == this.ownerOf(_tokenId), \"You cannot put this item on sale, because you are not the owner of it\");\r\n        //require(msg.sender == nfts[_tokenId - 1].custodian, \"You cannot put this item on sale, because you are not its custodian\");\r\n        require(nfts[_tokenId - 1].isOnSale == false, \"Item is already on sale.\");\r\n        require(_maxDurationInDays > 0, \"You cannot lend the item for less than 0 days.\");\r\n        require(_dailyPrice >= 0, \"Daily rent price can not be negative.\");\r\n        require(_collateral >= 0, \"Collateral amount can not be negative.\");\r\n\r\n        nfts[_tokenId - 1].isOnSale = true;\r\n        nfts[_tokenId - 1].lender = payable(msg.sender);\r\n        nfts[_tokenId - 1].rentSeconds = _maxDurationInDays * DAY_IN_SECONDS;\r\n        nfts[_tokenId - 1].dailyPrice = _dailyPrice;\r\n        nfts[_tokenId - 1].collateral = _collateral;\r\n        uint256 value = _dailyPrice * _maxDurationInDays + _collateral;\r\n\r\n        approve(address(this), _tokenId);\r\n        // safeTransfer(msg.sender, address(this), _tokenId); // also checks that msg.sender in fact owns _tokenId\r\n\r\n        emit nftTransaction(\r\n            _tokenId,\r\n            _maxDurationInDays,\r\n            _dailyPrice,\r\n            _collateral,\r\n            0,\r\n            \"On Sale\",\r\n            msg.sender,\r\n            address(0x0),\r\n            value\r\n        ); \r\n    }\r\n\r\n    function cancelSale(uint256 _tokenId) public {\r\n        require(nfts[_tokenId - 1].isOnSale == true, \"Item should be on sale to cancel sale.\");\r\n        require(msg.sender == this.ownerOf(_tokenId), \"You cannot cancel the sale of this item, because you are not the owner.\");\r\n        //require(nfts[_tokenId - 1].custodian == msg.sender, \"You cannot cancel the sale of this item, because you did not put it on sale.\");\r\n\r\n        nfts[_tokenId - 1].isOnSale = false;\r\n        nfts[_tokenId - 1].lender = payable(address(0));\r\n\r\n        //safeTransfer(address(this), msg.sender, _tokenId);\r\n\r\n        emit nftTransaction(\r\n            _tokenId,\r\n            0,\r\n            0,\r\n            0,\r\n            0,\r\n            \"Sale Cancelled\",\r\n            msg.sender,\r\n            address(0),\r\n            0\r\n        ); \r\n    }\r\n\r\n    function buyFromSale(uint256 _tokenId) public payable {\r\n        require(msg.sender != this.ownerOf(_tokenId), \"You cannot borrow your own item!\");\r\n        require(msg.sender != nfts[_tokenId - 1].lender, \"You cannot borrow an item that you lend!\");\r\n        //require(nfts[_tokenId - 1].custodian != msg.sender, \"You cannot buy your own item.\");\r\n        require(nfts[_tokenId - 1].isOnSale == true, \"Item should be on sale for you to buy it.\");\r\n        \r\n        uint256 initialPrice = nfts[_tokenId - 1].dailyPrice * (nfts[_tokenId - 1].rentSeconds / DAY_IN_SECONDS) + nfts[_tokenId - 1].collateral;\r\n        require(initialPrice <= msg.value, \"The amount you sent is less than the price of rental (which is the price of the full rental period plus collateral.)\");\r\n        \r\n        require(this.getApproved(_tokenId) == address(this), \"Seller did not give allowance for us to sell this item.\");\r\n        \r\n        address sellerAddress = this.ownerOf(_tokenId);\r\n        this.safeTransferFrom(sellerAddress, msg.sender, _tokenId);\r\n        \r\n        //safeTransfer(address(this), msg.sender, _tokenId);\r\n        //users[lender].userBalance += msg.value;\r\n        // users[msg.sender].userBalance -= msg.value;\r\n        \r\n        nfts[_tokenId - 1].isOnSale = false;\r\n        //nfts[_tokenId - 1].custodian = msg.sender;\r\n        uint256 rentEndTime = block.timestamp + nfts[_tokenId - 1].rentSeconds;\r\n        nfts[_tokenId - 1].rentEndTime = rentEndTime;\r\n\r\n        //(address(this)).receive(initialPrice)\r\n\r\n        emit nftTransaction(\r\n            _tokenId,\r\n            0,\r\n            0,\r\n            0,\r\n            rentEndTime,\r\n            \"NFT Sold\",\r\n            nfts[_tokenId - 1].lender,\r\n            msg.sender,\r\n            initialPrice\r\n        );\r\n    }\r\n    \r\n    function returnNFT(uint256 _tokenId) public {\r\n        require(msg.sender == this.ownerOf(_tokenId), \"You must own the item to return it.\");\r\n        //require(nfts[_tokenId - 1].custodian == msg.sender, \"Only the borrower can return the item.\");\r\n        require(nfts[_tokenId - 1].isOnSale == false, \"Item must not be on sale.\");\r\n\r\n        // return some rent money to borrower when they return early along with their collateral\r\n        uint256 secondsRented = block.timestamp - (nfts[_tokenId - 1].rentEndTime - nfts[_tokenId - 1].rentSeconds);\r\n        uint256 moneyBack = nfts[_tokenId - 1].dailyPrice * ((nfts[_tokenId - 1].rentSeconds - secondsRented) / DAY_IN_SECONDS) + nfts[_tokenId - 1].collateral;\r\n        (payable(msg.sender)).transfer(moneyBack); \r\n        \r\n        // send rent to lender\r\n        uint256 rentToLender = nfts[_tokenId - 1].dailyPrice / DAY_IN_SECONDS * secondsRented;\r\n        (nfts[_tokenId - 1].lender).transfer(rentToLender*((10000-rentFee)/10000)); // small fee is taken and kept in contract\r\n\r\n        emit nftTransaction(\r\n            _tokenId,\r\n            0,\r\n            0,\r\n            0,\r\n            0,\r\n            \"NFT Returned\",\r\n            address(this),\r\n            msg.sender,\r\n            moneyBack\r\n        );\r\n        \r\n        delete nfts[_tokenId - 1];\r\n        \r\n    }\r\n    \r\n    function claimCollateral(uint256 _tokenId) public {\r\n        //require(msg.sender != nfts[_tokenId - 1].custodian, \"You cannot claim the collateral, because you are already the custodian of the item.\");\r\n        require(nfts[_tokenId - 1].isOnSale == false, \"You cannot claim the collateral, because the item is on sale.\");\r\n        require(msg.sender == nfts[_tokenId - 1].lender, \"You cannot claim the collateral, because you are not the lender of the item.\");\r\n        require(nfts[_tokenId - 1].rentEndTime < block.timestamp, \"You can not claim the collateral, since the rent time has not ended.\");\r\n        \r\n        //nfts[_tokenId - 1].custodian = address(0);\r\n        nfts[_tokenId - 1].lender = payable(address(0));\r\n        \r\n        // Send the full rent + collateral to lender.\r\n        uint256 moneyToLender = nfts[_tokenId - 1].dailyPrice / DAY_IN_SECONDS * nfts[_tokenId - 1].rentSeconds + nfts[_tokenId - 1].collateral;\r\n        (payable(msg.sender)).transfer(moneyToLender*((10000-rentFee)/10000));  // small fee is taken and kept in contract\r\n\r\n        emit nftTransaction(\r\n            _tokenId,\r\n            0,\r\n            0,\r\n            0,\r\n            0,\r\n            \"Collateral Claimed\",\r\n            address(this),\r\n            msg.sender,\r\n            moneyToLender\r\n        ); \r\n    }\r\n\r\n\r\n    function mintNFT(string memory _name, string memory _imageUrl) public returns (uint256) {\r\n        _tokenIds.increment();\r\n        uint256 newItemId = _tokenIds.current();\r\n        require(newItemId < MAX_NFT_SUPPLY, \"You cannot mint any more items since you already reached the maximum supply\");\r\n\r\n        nfts.push(\r\n            nftData(\r\n                _name,\r\n                _imageUrl,\r\n                newItemId,\r\n                false,\r\n                payable(address(0x0)),\r\n                //address(msg.sender),\r\n                0,\r\n                0,\r\n                0,\r\n                0\r\n            )\r\n        );\r\n        \r\n        _mint(msg.sender, newItemId);\r\n        \r\n        emit nftTransaction(\r\n            newItemId,\r\n            0,\r\n            0,\r\n            0,\r\n            0,\r\n            \"NFT Minted\",\r\n            address(0x0),\r\n            msg.sender, \r\n            0\r\n        );\r\n       \r\n        return newItemId;\r\n    }\r\n}",
  "sourcePath": "/mnt/c/Programming Projects/Copenhagen University/BBD/nft-rental/truffle/contracts/NFTRental.sol",
  "compiler": {
    "name": "solc",
    "version": "0.8.6+commit.11564f7e.Emscripten.clang"
  },
  "schemaVersion": "3.4.3",
  "updatedAt": "2021-11-04T14:55:58.467Z",
  "networkType": "ethereum",
  "devdoc": {
    "kind": "dev",
    "methods": {
      "approve(address,uint256)": {
        "details": "See {IERC721-approve}."
      },
      "balanceOf(address)": {
        "details": "See {IERC721-balanceOf}."
      },
      "getApproved(uint256)": {
        "details": "See {IERC721-getApproved}."
      },
      "isApprovedForAll(address,address)": {
        "details": "See {IERC721-isApprovedForAll}."
      },
      "name()": {
        "details": "See {IERC721Metadata-name}."
      },
      "owner()": {
        "details": "Returns the address of the current owner."
      },
      "ownerOf(uint256)": {
        "details": "See {IERC721-ownerOf}."
      },
      "renounceOwnership()": {
        "details": "Leaves the contract without owner. It will not be possible to call `onlyOwner` functions anymore. Can only be called by the current owner. NOTE: Renouncing ownership will leave the contract without an owner, thereby removing any functionality that is only available to the owner."
      },
      "safeTransferFrom(address,address,uint256)": {
        "details": "See {IERC721-safeTransferFrom}."
      },
      "safeTransferFrom(address,address,uint256,bytes)": {
        "details": "See {IERC721-safeTransferFrom}."
      },
      "setApprovalForAll(address,bool)": {
        "details": "See {IERC721-setApprovalForAll}."
      },
      "supportsInterface(bytes4)": {
        "details": "See {IERC165-supportsInterface}."
      },
      "symbol()": {
        "details": "See {IERC721Metadata-symbol}."
      },
      "tokenURI(uint256)": {
        "details": "See {IERC721Metadata-tokenURI}."
      },
      "transferFrom(address,address,uint256)": {
        "details": "See {IERC721-transferFrom}."
      },
      "transferOwnership(address)": {
        "details": "Transfers ownership of the contract to a new account (`newOwner`). Can only be called by the current owner."
      }
    },
    "version": 1
  },
  "userdoc": {
    "kind": "user",
    "methods": {},
    "version": 1
  }
}